{
  "contractName": "IDOMaster",
  "abi": [
    {
      "inputs": [
        {
          "internalType": "contract ERC20Burnable",
          "name": "_feeToken",
          "type": "address"
        },
        {
          "internalType": "address payable",
          "name": "_feeWallet",
          "type": "address"
        },
        {
          "internalType": "uint256",
          "name": "_feeAmount",
          "type": "uint256"
        },
        {
          "internalType": "uint256",
          "name": "_burnPercent",
          "type": "uint256"
        }
      ],
      "stateMutability": "nonpayable",
      "type": "constructor"
    },
    {
      "anonymous": false,
      "inputs": [
        {
          "indexed": false,
          "internalType": "uint256",
          "name": "newBurnPercent",
          "type": "uint256"
        },
        {
          "indexed": false,
          "internalType": "uint256",
          "name": "divider",
          "type": "uint256"
        }
      ],
      "name": "BurnPercentUpdated",
      "type": "event"
    },
    {
      "anonymous": false,
      "inputs": [
        {
          "indexed": false,
          "internalType": "address",
          "name": "idoCreator",
          "type": "address"
        }
      ],
      "name": "CreatorUpdated",
      "type": "event"
    },
    {
      "anonymous": false,
      "inputs": [
        {
          "indexed": false,
          "internalType": "uint256",
          "name": "newFeeAmount",
          "type": "uint256"
        }
      ],
      "name": "FeeAmountUpdated",
      "type": "event"
    },
    {
      "anonymous": false,
      "inputs": [
        {
          "indexed": false,
          "internalType": "address",
          "name": "newFeeWallet",
          "type": "address"
        }
      ],
      "name": "FeeWalletUpdated",
      "type": "event"
    },
    {
      "anonymous": false,
      "inputs": [
        {
          "indexed": false,
          "internalType": "address",
          "name": "idoPool",
          "type": "address"
        },
        {
          "indexed": false,
          "internalType": "uint256",
          "name": "tokenPrice",
          "type": "uint256"
        },
        {
          "indexed": false,
          "internalType": "address",
          "name": "payableToken",
          "type": "address"
        },
        {
          "indexed": false,
          "internalType": "address",
          "name": "rewardToken",
          "type": "address"
        },
        {
          "indexed": false,
          "internalType": "uint256",
          "name": "startTimestamp",
          "type": "uint256"
        },
        {
          "indexed": false,
          "internalType": "uint256",
          "name": "finishTimestamp",
          "type": "uint256"
        },
        {
          "indexed": false,
          "internalType": "uint256",
          "name": "startClaimTimestamp",
          "type": "uint256"
        },
        {
          "indexed": false,
          "internalType": "uint256",
          "name": "minEthPayment",
          "type": "uint256"
        },
        {
          "indexed": false,
          "internalType": "uint256",
          "name": "maxEthPayment",
          "type": "uint256"
        },
        {
          "indexed": false,
          "internalType": "uint256",
          "name": "maxDistributedTokenAmount",
          "type": "uint256"
        }
      ],
      "name": "IDOCreated",
      "type": "event"
    },
    {
      "anonymous": false,
      "inputs": [
        {
          "indexed": true,
          "internalType": "address",
          "name": "previousOwner",
          "type": "address"
        },
        {
          "indexed": true,
          "internalType": "address",
          "name": "newOwner",
          "type": "address"
        }
      ],
      "name": "OwnershipTransferred",
      "type": "event"
    },
    {
      "anonymous": false,
      "inputs": [
        {
          "indexed": false,
          "internalType": "address",
          "name": "newFeeToken",
          "type": "address"
        }
      ],
      "name": "TokenFeeUpdated",
      "type": "event"
    },
    {
      "inputs": [],
      "name": "burnPercent",
      "outputs": [
        {
          "internalType": "uint256",
          "name": "",
          "type": "uint256"
        }
      ],
      "stateMutability": "view",
      "type": "function"
    },
    {
      "inputs": [],
      "name": "creatorProxy",
      "outputs": [
        {
          "internalType": "address",
          "name": "",
          "type": "address"
        }
      ],
      "stateMutability": "view",
      "type": "function"
    },
    {
      "inputs": [],
      "name": "divider",
      "outputs": [
        {
          "internalType": "uint256",
          "name": "",
          "type": "uint256"
        }
      ],
      "stateMutability": "view",
      "type": "function"
    },
    {
      "inputs": [],
      "name": "feeAmount",
      "outputs": [
        {
          "internalType": "uint256",
          "name": "",
          "type": "uint256"
        }
      ],
      "stateMutability": "view",
      "type": "function"
    },
    {
      "inputs": [],
      "name": "feeFundsPercent",
      "outputs": [
        {
          "internalType": "uint256",
          "name": "",
          "type": "uint256"
        }
      ],
      "stateMutability": "view",
      "type": "function"
    },
    {
      "inputs": [],
      "name": "feeToken",
      "outputs": [
        {
          "internalType": "contract ERC20Burnable",
          "name": "",
          "type": "address"
        }
      ],
      "stateMutability": "view",
      "type": "function"
    },
    {
      "inputs": [],
      "name": "feeWallet",
      "outputs": [
        {
          "internalType": "address payable",
          "name": "",
          "type": "address"
        }
      ],
      "stateMutability": "view",
      "type": "function"
    },
    {
      "inputs": [
        {
          "internalType": "address",
          "name": "",
          "type": "address"
        }
      ],
      "name": "idoInfo",
      "outputs": [
        {
          "internalType": "uint256",
          "name": "tokenPrice",
          "type": "uint256"
        },
        {
          "internalType": "address",
          "name": "payableToken",
          "type": "address"
        },
        {
          "internalType": "address",
          "name": "payToken",
          "type": "address"
        },
        {
          "internalType": "address",
          "name": "rewardToken",
          "type": "address"
        },
        {
          "internalType": "uint256",
          "name": "startTimestamp",
          "type": "uint256"
        },
        {
          "internalType": "uint256",
          "name": "finishTimestamp",
          "type": "uint256"
        },
        {
          "internalType": "uint256",
          "name": "startClaimTimestamp",
          "type": "uint256"
        },
        {
          "internalType": "uint256",
          "name": "minEthPayment",
          "type": "uint256"
        },
        {
          "internalType": "uint256",
          "name": "maxEthPayment",
          "type": "uint256"
        },
        {
          "internalType": "uint256",
          "name": "maxDistributedTokenAmount",
          "type": "uint256"
        }
      ],
      "stateMutability": "view",
      "type": "function"
    },
    {
      "inputs": [],
      "name": "owner",
      "outputs": [
        {
          "internalType": "address",
          "name": "",
          "type": "address"
        }
      ],
      "stateMutability": "view",
      "type": "function"
    },
    {
      "inputs": [],
      "name": "renounceOwnership",
      "outputs": [],
      "stateMutability": "nonpayable",
      "type": "function"
    },
    {
      "inputs": [
        {
          "internalType": "address",
          "name": "newOwner",
          "type": "address"
        }
      ],
      "name": "transferOwnership",
      "outputs": [],
      "stateMutability": "nonpayable",
      "type": "function"
    },
    {
      "inputs": [
        {
          "internalType": "address",
          "name": "_newFeeToken",
          "type": "address"
        }
      ],
      "name": "setFeeToken",
      "outputs": [],
      "stateMutability": "nonpayable",
      "type": "function"
    },
    {
      "inputs": [
        {
          "internalType": "uint256",
          "name": "_newFeeAmount",
          "type": "uint256"
        }
      ],
      "name": "setFeeAmount",
      "outputs": [],
      "stateMutability": "nonpayable",
      "type": "function"
    },
    {
      "inputs": [
        {
          "internalType": "address payable",
          "name": "_newFeeWallet",
          "type": "address"
        }
      ],
      "name": "setFeeWallet",
      "outputs": [],
      "stateMutability": "nonpayable",
      "type": "function"
    },
    {
      "inputs": [
        {
          "internalType": "uint256",
          "name": "_newBurnPercent",
          "type": "uint256"
        },
        {
          "internalType": "uint256",
          "name": "_newDivider",
          "type": "uint256"
        }
      ],
      "name": "setBurnPercent",
      "outputs": [],
      "stateMutability": "nonpayable",
      "type": "function"
    },
    {
      "inputs": [
        {
          "internalType": "uint256",
          "name": "_feeFundsPercent",
          "type": "uint256"
        }
      ],
      "name": "setFeeFundsPercent",
      "outputs": [],
      "stateMutability": "nonpayable",
      "type": "function"
    },
    {
      "inputs": [
        {
          "internalType": "address",
          "name": "_creator",
          "type": "address"
        }
      ],
      "name": "setCreatorProxy",
      "outputs": [],
      "stateMutability": "nonpayable",
      "type": "function"
    },
    {
      "inputs": [
        {
          "internalType": "address",
          "name": "_poolAddress",
          "type": "address"
        },
        {
          "internalType": "uint256",
          "name": "_tokenPrice",
          "type": "uint256"
        },
        {
          "internalType": "address",
          "name": "_payableToken",
          "type": "address"
        },
        {
          "internalType": "address",
          "name": "_rewardToken",
          "type": "address"
        },
        {
          "internalType": "uint256",
          "name": "_startTimestamp",
          "type": "uint256"
        },
        {
          "internalType": "uint256",
          "name": "_finishTimestamp",
          "type": "uint256"
        },
        {
          "internalType": "uint256",
          "name": "_startClaimTimestamp",
          "type": "uint256"
        },
        {
          "internalType": "uint256",
          "name": "_minEthPayment",
          "type": "uint256"
        },
        {
          "internalType": "uint256",
          "name": "_maxEthPayment",
          "type": "uint256"
        },
        {
          "internalType": "uint256",
          "name": "_maxDistributedTokenAmount",
          "type": "uint256"
        }
      ],
      "name": "registrateIDO",
      "outputs": [],
      "stateMutability": "nonpayable",
      "type": "function"
    }
  ],
  "bytecode": "0x6080604052600060075534801561001557600080fd5b5060405161189d38038061189d8339818101604052608081101561003857600080fd5b810190808051906020019092919080519060200190929190805190602001909291908051906020019092919050505060006100776101b660201b60201c565b9050806000806101000a81548173ffffffffffffffffffffffffffffffffffffffff021916908373ffffffffffffffffffffffffffffffffffffffff1602179055508073ffffffffffffffffffffffffffffffffffffffff16600073ffffffffffffffffffffffffffffffffffffffff167f8be0079c531659141344cd1fd0a4f28419497f9722a3daafe3b4186f6b6457e060405160405180910390a35083600160006101000a81548173ffffffffffffffffffffffffffffffffffffffff021916908373ffffffffffffffffffffffffffffffffffffffff1602179055508160048190555082600260006101000a81548173ffffffffffffffffffffffffffffffffffffffff021916908373ffffffffffffffffffffffffffffffffffffffff160217905550806005819055506064600681905550505050506101be565b600033905090565b6116d0806101cd6000396000f3fe608060405234801561001057600080fd5b50600436106101165760003560e01c8063715018a6116100a257806390d49b9d1161007157806390d49b9d14610402578063c8d771af14610446578063c9991da014610464578063f25f4b561461053d578063f2fde38b1461057157610116565b8063715018a6146102c1578063760ad28c146102cb5780638da5cb5b146103965780638dc12991146103ca57610116565b80633c23a7db116100e95780633c23a7db146101cf5780634f6efa6d14610213578063647846a51461024157806369e15404146102755780636b3926801461029357610116565b806303807ee51461011b57806315cce22414610139578063378efa371461017d57806338c2f5c61461019b575b600080fd5b6101236105b5565b6040518082815260200191505060405180910390f35b61017b6004803603602081101561014f57600080fd5b81019080803573ffffffffffffffffffffffffffffffffffffffff1690602001909291905050506105bb565b005b61018561078f565b6040518082815260200191505060405180910390f35b6101a3610795565b604051808273ffffffffffffffffffffffffffffffffffffffff16815260200191505060405180910390f35b610211600480360360208110156101e557600080fd5b81019080803573ffffffffffffffffffffffffffffffffffffffff1690602001909291905050506107bb565b005b61023f6004803603602081101561022957600080fd5b81019080803590602001909291905050506109b1565b005b610249610afa565b604051808273ffffffffffffffffffffffffffffffffffffffff16815260200191505060405180910390f35b61027d610b20565b6040518082815260200191505060405180910390f35b6102bf600480360360208110156102a957600080fd5b8101908080359060200190929190505050610b26565b005b6102c9610c2f565b005b61039460048036036101408110156102e257600080fd5b81019080803573ffffffffffffffffffffffffffffffffffffffff16906020019092919080359060200190929190803573ffffffffffffffffffffffffffffffffffffffff169060200190929190803573ffffffffffffffffffffffffffffffffffffffff169060200190929190803590602001909291908035906020019092919080359060200190929190803590602001909291908035906020019092919080359060200190929190505050610db5565b005b61039e61104e565b604051808273ffffffffffffffffffffffffffffffffffffffff16815260200191505060405180910390f35b610400600480360360408110156103e057600080fd5b810190808035906020019092919080359060200190929190505050611077565b005b6104446004803603602081101561041857600080fd5b81019080803573ffffffffffffffffffffffffffffffffffffffff1690602001909291905050506111e9565b005b61044e611342565b6040518082815260200191505060405180910390f35b6104a66004803603602081101561047a57600080fd5b81019080803573ffffffffffffffffffffffffffffffffffffffff169060200190929190505050611348565b604051808b81526020018a73ffffffffffffffffffffffffffffffffffffffff1681526020018973ffffffffffffffffffffffffffffffffffffffff1681526020018873ffffffffffffffffffffffffffffffffffffffff1681526020018781526020018681526020018581526020018481526020018381526020018281526020019a505050505050505050505060405180910390f35b6105456113fc565b604051808273ffffffffffffffffffffffffffffffffffffffff16815260200191505060405180910390f35b6105b36004803603602081101561058757600080fd5b81019080803573ffffffffffffffffffffffffffffffffffffffff169060200190929190505050611422565b005b60055481565b6105c361162d565b73ffffffffffffffffffffffffffffffffffffffff1660008054906101000a900473ffffffffffffffffffffffffffffffffffffffff1673ffffffffffffffffffffffffffffffffffffffff1614610683576040517f08c379a00000000000000000000000000000000000000000000000000000000081526004018080602001828103825260208152602001807f4f776e61626c653a2063616c6c6572206973206e6f7420746865206f776e657281525060200191505060405180910390fd5b61068c81611635565b6106fe576040517f08c379a000000000000000000000000000000000000000000000000000000000815260040180806020018281038252601a8152602001807f4e65772061646472657373206973206e6f74206120746f6b656e00000000000081525060200191505060405180910390fd5b80600160006101000a81548173ffffffffffffffffffffffffffffffffffffffff021916908373ffffffffffffffffffffffffffffffffffffffff1602179055507f9e892f555b0a5cac6c8cc33c82ebb9308207bd16dfdca9d0289b96d7e4186c8a81604051808273ffffffffffffffffffffffffffffffffffffffff16815260200191505060405180910390a150565b60065481565b600360009054906101000a900473ffffffffffffffffffffffffffffffffffffffff1681565b6107c361162d565b73ffffffffffffffffffffffffffffffffffffffff1660008054906101000a900473ffffffffffffffffffffffffffffffffffffffff1673ffffffffffffffffffffffffffffffffffffffff1614610883576040517f08c379a00000000000000000000000000000000000000000000000000000000081526004018080602001828103825260208152602001807f4f776e61626c653a2063616c6c6572206973206e6f7420746865206f776e657281525060200191505060405180910390fd5b61088c81611635565b6108fe576040517f08c379a000000000000000000000000000000000000000000000000000000000815260040180806020018281038252600d8152602001807f4572726f7220616464726573730000000000000000000000000000000000000081525060200191505060405180910390fd5b80600360006101000a81548173ffffffffffffffffffffffffffffffffffffffff021916908373ffffffffffffffffffffffffffffffffffffffff1602179055507f40ce16136d64bc46500073cc9655e1b0b622a8a3023a5b4a35ea71b2dc4a24b3600360009054906101000a900473ffffffffffffffffffffffffffffffffffffffff16604051808273ffffffffffffffffffffffffffffffffffffffff16815260200191505060405180910390a150565b6109b961162d565b73ffffffffffffffffffffffffffffffffffffffff1660008054906101000a900473ffffffffffffffffffffffffffffffffffffffff1673ffffffffffffffffffffffffffffffffffffffff1614610a79576040517f08c379a00000000000000000000000000000000000000000000000000000000081526004018080602001828103825260208152602001807f4f776e61626c653a2063616c6c6572206973206e6f7420746865206f776e657281525060200191505060405180910390fd5b6063811115610af0576040517f08c379a000000000000000000000000000000000000000000000000000000000815260040180806020018281038252601e8152602001807f4665652050657263656e746167652068617320746f206265203c20313030000081525060200191505060405180910390fd5b8060078190555050565b600160009054906101000a900473ffffffffffffffffffffffffffffffffffffffff1681565b60045481565b610b2e61162d565b73ffffffffffffffffffffffffffffffffffffffff1660008054906101000a900473ffffffffffffffffffffffffffffffffffffffff1673ffffffffffffffffffffffffffffffffffffffff1614610bee576040517f08c379a00000000000000000000000000000000000000000000000000000000081526004018080602001828103825260208152602001807f4f776e61626c653a2063616c6c6572206973206e6f7420746865206f776e657281525060200191505060405180910390fd5b806004819055507fbb128cd9921d003aff00ed910fe24b1655b2bf1f4a2090cc3523f61bdc172316816040518082815260200191505060405180910390a150565b610c3761162d565b73ffffffffffffffffffffffffffffffffffffffff1660008054906101000a900473ffffffffffffffffffffffffffffffffffffffff1673ffffffffffffffffffffffffffffffffffffffff1614610cf7576040517f08c379a00000000000000000000000000000000000000000000000000000000081526004018080602001828103825260208152602001807f4f776e61626c653a2063616c6c6572206973206e6f7420746865206f776e657281525060200191505060405180910390fd5b600073ffffffffffffffffffffffffffffffffffffffff1660008054906101000a900473ffffffffffffffffffffffffffffffffffffffff1673ffffffffffffffffffffffffffffffffffffffff167f8be0079c531659141344cd1fd0a4f28419497f9722a3daafe3b4186f6b6457e060405160405180910390a360008060006101000a81548173ffffffffffffffffffffffffffffffffffffffff021916908373ffffffffffffffffffffffffffffffffffffffff160217905550565b600360009054906101000a900473ffffffffffffffffffffffffffffffffffffffff1673ffffffffffffffffffffffffffffffffffffffff163373ffffffffffffffffffffffffffffffffffffffff1614610e78576040517f08c379a00000000000000000000000000000000000000000000000000000000081526004018080602001828103825260178152602001807f7265676973747261746549444f3a2062616420726f6c6500000000000000000081525060200191505060405180910390fd5b6000600860008c73ffffffffffffffffffffffffffffffffffffffff1673ffffffffffffffffffffffffffffffffffffffff1681526020019081526020016000209050898160000181905550888160010160006101000a81548173ffffffffffffffffffffffffffffffffffffffff021916908373ffffffffffffffffffffffffffffffffffffffff160217905550878160030160006101000a81548173ffffffffffffffffffffffffffffffffffffffff021916908373ffffffffffffffffffffffffffffffffffffffff1602179055508681600401819055508581600501819055508481600601819055508381600701819055508281600801819055508181600901819055507fe9e7e0cb5e8252ec5c06ed6ebd6935b69c39a77bf5042ee458980341c4bddf518b8b8b8b8b8b8b8b8b8b604051808b73ffffffffffffffffffffffffffffffffffffffff1681526020018a81526020018973ffffffffffffffffffffffffffffffffffffffff1681526020018873ffffffffffffffffffffffffffffffffffffffff1681526020018781526020018681526020018581526020018481526020018381526020018281526020019a505050505050505050505060405180910390a15050505050505050505050565b60008060009054906101000a900473ffffffffffffffffffffffffffffffffffffffff16905090565b61107f61162d565b73ffffffffffffffffffffffffffffffffffffffff1660008054906101000a900473ffffffffffffffffffffffffffffffffffffffff1673ffffffffffffffffffffffffffffffffffffffff161461113f576040517f08c379a00000000000000000000000000000000000000000000000000000000081526004018080602001828103825260208152602001807f4f776e61626c653a2063616c6c6572206973206e6f7420746865206f776e657281525060200191505060405180910390fd5b80821115611198576040517f08c379a00000000000000000000000000000000000000000000000000000000081526004018080602001828103825260268152602001806116756026913960400191505060405180910390fd5b81600581905550806006819055507fb62d69c6ddf4f4bd443dca17ea7405d8018efb872e82e77bb8ef13b5be2f2e9c8282604051808381526020018281526020019250505060405180910390a15050565b6111f161162d565b73ffffffffffffffffffffffffffffffffffffffff1660008054906101000a900473ffffffffffffffffffffffffffffffffffffffff1673ffffffffffffffffffffffffffffffffffffffff16146112b1576040517f08c379a00000000000000000000000000000000000000000000000000000000081526004018080602001828103825260208152602001807f4f776e61626c653a2063616c6c6572206973206e6f7420746865206f776e657281525060200191505060405180910390fd5b80600260006101000a81548173ffffffffffffffffffffffffffffffffffffffff021916908373ffffffffffffffffffffffffffffffffffffffff1602179055507f29acee77dafcfa0143d74a7ea236018f3a6e1fa71e27fc59bbfbc6b8ca8edccd81604051808273ffffffffffffffffffffffffffffffffffffffff16815260200191505060405180910390a150565b60075481565b60086020528060005260406000206000915090508060000154908060010160009054906101000a900473ffffffffffffffffffffffffffffffffffffffff16908060020160009054906101000a900473ffffffffffffffffffffffffffffffffffffffff16908060030160009054906101000a900473ffffffffffffffffffffffffffffffffffffffff1690806004015490806005015490806006015490806007015490806008015490806009015490508a565b600260009054906101000a900473ffffffffffffffffffffffffffffffffffffffff1681565b61142a61162d565b73ffffffffffffffffffffffffffffffffffffffff1660008054906101000a900473ffffffffffffffffffffffffffffffffffffffff1673ffffffffffffffffffffffffffffffffffffffff16146114ea576040517f08c379a00000000000000000000000000000000000000000000000000000000081526004018080602001828103825260208152602001807f4f776e61626c653a2063616c6c6572206973206e6f7420746865206f776e657281525060200191505060405180910390fd5b600073ffffffffffffffffffffffffffffffffffffffff168173ffffffffffffffffffffffffffffffffffffffff161415611570576040517f08c379a000000000000000000000000000000000000000000000000000000000815260040180806020018281038252602681526020018061164f6026913960400191505060405180910390fd5b8073ffffffffffffffffffffffffffffffffffffffff1660008054906101000a900473ffffffffffffffffffffffffffffffffffffffff1673ffffffffffffffffffffffffffffffffffffffff167f8be0079c531659141344cd1fd0a4f28419497f9722a3daafe3b4186f6b6457e060405160405180910390a3806000806101000a81548173ffffffffffffffffffffffffffffffffffffffff021916908373ffffffffffffffffffffffffffffffffffffffff16021790555050565b600033905090565b600080823b905060008163ffffffff161191505091905056fe4f776e61626c653a206e6577206f776e657220697320746865207a65726f20616464726573734275726e2070657263656e74206d757374206265206c657373207468616e2064697669646572a264697066735822122051d1a506724cd39b7c92aeeef2a50a77f468d25992cd6cd58b333e3f0ec0ee4364736f6c634300060c0033",
  "immutableReferences": {},
  "source": "pragma solidity 0.6.12;\r\n\r\nimport \"@openzeppelin/contracts/access/Ownable.sol\";\r\nimport \"@openzeppelin/contracts/math/SafeMath.sol\";\r\nimport \"@openzeppelin/contracts/token/ERC20/SafeERC20.sol\";\r\nimport \"@openzeppelin/contracts/token/ERC20/ERC20Burnable.sol\";\r\n// import \"./IDOPool.sol\";\r\nimport \"./interfaces/IidoMaster.sol\";\r\n// import \"./interfaces/IStakingPool.sol\";\r\n// import \"./interfaces/IUniswapV2Pair.sol\";\r\n// import \"./interfaces/IidoCreator.sol\";\r\n\r\ncontract IDOMaster is IidoMaster, Ownable{\r\n    using SafeMath for uint256;\r\n    using SafeERC20 for ERC20Burnable;\r\n    using SafeERC20 for ERC20;\r\n\r\n    ERC20Burnable public override feeToken;\r\n    address payable public override feeWallet;\r\n    address public creatorProxy;\r\n    uint256 public override feeAmount;\r\n    uint256 public override burnPercent;\r\n    uint256 public override divider;\r\n\r\n    uint256 public override feeFundsPercent = 0; /* Default Fee 0% */\r\n\r\n    // IStakingPool public disStakingPool;\r\n    // IStakingPool public lpDisStakingPool;\r\n    // IUniswapV2Pair public lpUniswapV2Pair;\r\n    // bool public disReserve0;\r\n\r\n    // TierInfo public vipTier;\r\n    // TierInfo public holdersTier;\r\n    // TierInfo public publicTier;\r\n\r\n    // struct TierInfo {\r\n    //     uint256 disAmount;     \r\n    //     uint256 percent; \r\n    // }\r\n\r\n    mapping(address => IDOInfo) public idoInfo;\r\n\r\n    struct IDOInfo {\r\n        uint256 tokenPrice;\r\n        address payableToken;\r\n        address payToken;\r\n        address rewardToken;\r\n        uint256 startTimestamp;\r\n        uint256 finishTimestamp;\r\n        uint256 startClaimTimestamp;\r\n        uint256 minEthPayment;\r\n        uint256 maxEthPayment;\r\n        uint256 maxDistributedTokenAmount;\r\n    }\r\n\r\n\r\n    event IDOCreated(address idoPool, \r\n        uint256 tokenPrice, \r\n        address payableToken,\r\n        address rewardToken,\r\n        uint256 startTimestamp,\r\n        uint256 finishTimestamp,\r\n        uint256 startClaimTimestamp,\r\n        uint256 minEthPayment,\r\n        uint256 maxEthPayment,\r\n        uint256 maxDistributedTokenAmount);\r\n\r\n    event CreatorUpdated(address idoCreator);\r\n    event TokenFeeUpdated(address newFeeToken);\r\n    event FeeAmountUpdated(uint256 newFeeAmount);\r\n    event BurnPercentUpdated(uint256 newBurnPercent, uint256 divider);\r\n    event FeeWalletUpdated(address newFeeWallet);\r\n\r\n    constructor(\r\n        ERC20Burnable _feeToken,\r\n        address payable _feeWallet,\r\n        uint256 _feeAmount,\r\n        uint256 _burnPercent\r\n    ) public {\r\n        feeToken = _feeToken;\r\n        feeAmount = _feeAmount;\r\n        feeWallet = _feeWallet;\r\n        burnPercent = _burnPercent;\r\n        divider = 100;\r\n    }\r\n\r\n    function setFeeToken(address _newFeeToken) external onlyOwner {\r\n        require(isContract(_newFeeToken), \"New address is not a token\");\r\n        feeToken = ERC20Burnable(_newFeeToken);\r\n\r\n        emit TokenFeeUpdated(_newFeeToken);\r\n    }\r\n\r\n    function setFeeAmount(uint256 _newFeeAmount) external onlyOwner {\r\n        feeAmount = _newFeeAmount;\r\n\r\n        emit FeeAmountUpdated(_newFeeAmount);\r\n    }\r\n\r\n    function setFeeWallet(address payable _newFeeWallet) external onlyOwner {\r\n        feeWallet = _newFeeWallet;\r\n\r\n        emit FeeWalletUpdated(_newFeeWallet);\r\n    }\r\n\r\n    function setBurnPercent(uint256 _newBurnPercent, uint256 _newDivider)\r\n        external\r\n        onlyOwner\r\n    {\r\n        require(_newBurnPercent <= _newDivider, \"Burn percent must be less than divider\");\r\n        burnPercent = _newBurnPercent;\r\n        divider = _newDivider;\r\n\r\n        emit BurnPercentUpdated(_newBurnPercent, _newDivider);\r\n    }\r\n\r\n\r\n    function setFeeFundsPercent(uint256 _feeFundsPercent)\r\n        external\r\n        onlyOwner\r\n    {\r\n        // require(_feeFundsPercent >= feePercentage, \"Fee Percentage has to be >= 1\");\r\n        require(_feeFundsPercent <= 99, \"Fee Percentage has to be < 100\");\r\n        feeFundsPercent = _feeFundsPercent;\r\n    }\r\n\r\n    // function setTierPools(IStakingPool _disStakingPool, IStakingPool _lpDisStakingPool, IUniswapV2Pair _lpUniswapV2Pair, bool _disReserve0) external onlyOwner {\r\n    //     disStakingPool = _disStakingPool;\r\n    //     lpDisStakingPool = _lpDisStakingPool;\r\n    //     lpUniswapV2Pair = _lpUniswapV2Pair;\r\n    //     disReserve0 = _disReserve0;\r\n\r\n    //      //check addresses\r\n    //     getFullDisBalance(msg.sender);\r\n    // }\r\n\r\n    // function setTier(uint256 _vipDisAmount, uint256 _vipPercent, uint256 _holdersDisAmount, uint256 _holdersPercent, uint256 _publicDisAmount, uint256 _publicPercent) external onlyOwner {\r\n    //     vipTier.disAmount = _vipDisAmount;\r\n    //     vipTier.percent = _vipPercent;\r\n\r\n    //     holdersTier.disAmount = _holdersDisAmount;\r\n    //     holdersTier.percent = _holdersPercent;\r\n\r\n    //     publicTier.disAmount = _publicDisAmount;\r\n    //     publicTier.percent = _publicPercent;\r\n    // }\r\n\r\n\r\n    function setCreatorProxy(address _creator) external onlyOwner {\r\n        require(isContract(_creator), \"Error address\");\r\n        creatorProxy = _creator;\r\n        emit CreatorUpdated(creatorProxy);\r\n    }\r\n\r\n    function registrateIDO(\r\n        address _poolAddress,\r\n        uint256 _tokenPrice,\r\n        address _payableToken,\r\n        address _rewardToken,\r\n        uint256 _startTimestamp,\r\n        uint256 _finishTimestamp,\r\n        uint256 _startClaimTimestamp,\r\n        uint256 _minEthPayment,\r\n        uint256 _maxEthPayment,\r\n        uint256 _maxDistributedTokenAmount\r\n    ) external override {\r\n\r\n    require(msg.sender ==  creatorProxy, \"registrateIDO: bad role\");\r\n\r\n    IDOInfo storage info = idoInfo[_poolAddress];\r\n    info.tokenPrice = _tokenPrice;\r\n    info.payableToken = _payableToken;\r\n    info.rewardToken = _rewardToken;\r\n    info.startTimestamp = _startTimestamp;\r\n    info.finishTimestamp = _finishTimestamp;\r\n    info.startClaimTimestamp = _startClaimTimestamp;\r\n    info.minEthPayment = _minEthPayment;\r\n    info.maxEthPayment = _maxEthPayment;\r\n    info.maxDistributedTokenAmount = _maxDistributedTokenAmount;\r\n\r\n    emit IDOCreated(_poolAddress,\r\n            _tokenPrice,\r\n            _payableToken,\r\n            _rewardToken,\r\n            _startTimestamp,\r\n            _finishTimestamp,\r\n            _startClaimTimestamp,\r\n            _minEthPayment,\r\n            _maxEthPayment,\r\n            _maxDistributedTokenAmount);\r\n    }\r\n\r\n    function isContract(address _addr) private view returns (bool) {\r\n        uint32 size;\r\n        assembly {\r\n            size := extcodesize(_addr)\r\n        }\r\n        return (size > 0);\r\n    }\r\n\r\n    //  function getMaxEthPayment(address user, uint256 maxEthPayment)\r\n    //     public\r\n    //     view\r\n    //     override\r\n    //     returns (uint256)\r\n    // {\r\n    //    uint256 _disBalance =  getFullDisBalance(user);\r\n    //     if(_disBalance>=vipTier.disAmount){\r\n    //        return maxEthPayment.mul(vipTier.percent).div(100);\r\n    //     }\r\n    //     if(_disBalance>=holdersTier.disAmount){\r\n    //        return maxEthPayment.mul(holdersTier.percent).div(100);\r\n    //     }\r\n    //     if(_disBalance>=publicTier.disAmount){\r\n    //        return maxEthPayment.mul(publicTier.percent).div(100);\r\n    //     }\r\n    //     return 0;\r\n    // }\r\n\r\n    // function getFullDisBalance(address user)\r\n    //     public\r\n    //     view     \r\n    //     override   \r\n    //     returns (uint256)\r\n    // {\r\n    //     uint256 _disBalance = feeToken.balanceOf(user);\r\n    //     if(address(disStakingPool) != address(0)){\r\n    //         (uint256 _stakedAmount, ) = disStakingPool.getUserInfo(user);\r\n    //         _disBalance += _stakedAmount;\r\n    //     }\r\n    //     if(address(lpDisStakingPool) != address(0)){\r\n    //             (uint256 _lpBalance, ) = lpDisStakingPool.getUserInfo(user);\r\n    //             if(_lpBalance > 0) {\r\n    //                 (uint256 _reserve0, uint256 _reserve1, ) = lpUniswapV2Pair.getReserves();\r\n    //                 uint256 totalSupply = lpUniswapV2Pair.totalSupply();\r\n    //                 //_reserve0 is dis\r\n    //                 if(disReserve0){\r\n    //                     _disBalance += _lpBalance.mul(_reserve0).div(totalSupply);\r\n    //                 }\r\n    //                 else{\r\n    //                     _disBalance += _lpBalance.mul(_reserve1).div(totalSupply); \r\n    //                 }\r\n    //             }\r\n    //     }\r\n    //     return _disBalance;\r\n    // }\r\n}",
  "sourcePath": "D:/Projects/TosDisFinance/StakeMaster/contracts/IDOMaster.sol",
  "compiler": {
    "name": "solc",
    "version": "0.6.12+commit.27d51765.Emscripten.clang"
  },
  "schemaVersion": "3.4.0",
  "updatedAt": "2021-06-02T11:07:10.533Z",
  "devdoc": {
    "kind": "dev",
    "methods": {
      "owner()": {
        "details": "Returns the address of the current owner."
      },
      "renounceOwnership()": {
        "details": "Leaves the contract without owner. It will not be possible to call `onlyOwner` functions anymore. Can only be called by the current owner. NOTE: Renouncing ownership will leave the contract without an owner, thereby removing any functionality that is only available to the owner."
      },
      "transferOwnership(address)": {
        "details": "Transfers ownership of the contract to a new account (`newOwner`). Can only be called by the current owner."
      }
    },
    "version": 1
  },
  "userdoc": {
    "kind": "user",
    "methods": {},
    "version": 1
  }
}