{
  "contractName": "IDOPool",
  "abi": [
    {
      "inputs": [
        {
          "internalType": "contract IidoMaster",
          "name": "_idoMaster",
          "type": "address"
        },
        {
          "internalType": "uint256",
          "name": "_feeFundsPercent",
          "type": "uint256"
        },
        {
          "internalType": "uint256",
          "name": "_tokenPrice",
          "type": "uint256"
        },
        {
          "internalType": "contract ERC20",
          "name": "_rewardToken",
          "type": "address"
        },
        {
          "internalType": "uint256",
          "name": "_startTimestamp",
          "type": "uint256"
        },
        {
          "internalType": "uint256",
          "name": "_finishTimestamp",
          "type": "uint256"
        },
        {
          "internalType": "uint256",
          "name": "_startClaimTimestamp",
          "type": "uint256"
        },
        {
          "internalType": "uint256",
          "name": "_minEthPayment",
          "type": "uint256"
        },
        {
          "internalType": "uint256",
          "name": "_maxEthPayment",
          "type": "uint256"
        },
        {
          "internalType": "uint256",
          "name": "_maxDistributedTokenAmount",
          "type": "uint256"
        },
        {
          "internalType": "bool",
          "name": "_hasWhitelisting",
          "type": "bool"
        },
        {
          "internalType": "bool",
          "name": "_enableTierSystem",
          "type": "bool"
        },
        {
          "internalType": "contract ITierSystem",
          "name": "_tierSystem",
          "type": "address"
        }
      ],
      "stateMutability": "nonpayable",
      "type": "constructor"
    },
    {
      "anonymous": false,
      "inputs": [
        {
          "indexed": true,
          "internalType": "address[]",
          "name": "accounts",
          "type": "address[]"
        }
      ],
      "name": "AddedToWhitelist",
      "type": "event"
    },
    {
      "anonymous": false,
      "inputs": [
        {
          "indexed": false,
          "internalType": "bool",
          "name": "newValue",
          "type": "bool"
        }
      ],
      "name": "EnableTierSystemUpdated",
      "type": "event"
    },
    {
      "anonymous": false,
      "inputs": [
        {
          "indexed": false,
          "internalType": "uint256",
          "name": "amount",
          "type": "uint256"
        }
      ],
      "name": "FundsFeeWithdrawn",
      "type": "event"
    },
    {
      "anonymous": false,
      "inputs": [
        {
          "indexed": false,
          "internalType": "uint256",
          "name": "amount",
          "type": "uint256"
        }
      ],
      "name": "FundsWithdrawn",
      "type": "event"
    },
    {
      "anonymous": false,
      "inputs": [
        {
          "indexed": false,
          "internalType": "bool",
          "name": "newValue",
          "type": "bool"
        }
      ],
      "name": "HasWhitelistingUpdated",
      "type": "event"
    },
    {
      "anonymous": false,
      "inputs": [
        {
          "indexed": false,
          "internalType": "uint256",
          "name": "amount",
          "type": "uint256"
        }
      ],
      "name": "NotSoldWithdrawn",
      "type": "event"
    },
    {
      "anonymous": false,
      "inputs": [
        {
          "indexed": true,
          "internalType": "address",
          "name": "previousOwner",
          "type": "address"
        },
        {
          "indexed": true,
          "internalType": "address",
          "name": "newOwner",
          "type": "address"
        }
      ],
      "name": "OwnershipTransferred",
      "type": "event"
    },
    {
      "anonymous": false,
      "inputs": [],
      "name": "Pause",
      "type": "event"
    },
    {
      "anonymous": false,
      "inputs": [
        {
          "indexed": true,
          "internalType": "address",
          "name": "account",
          "type": "address"
        }
      ],
      "name": "RemovedFromWhitelist",
      "type": "event"
    },
    {
      "anonymous": false,
      "inputs": [
        {
          "indexed": true,
          "internalType": "address",
          "name": "holder",
          "type": "address"
        },
        {
          "indexed": false,
          "internalType": "uint256",
          "name": "ethAmount",
          "type": "uint256"
        },
        {
          "indexed": false,
          "internalType": "uint256",
          "name": "tokenAmount",
          "type": "uint256"
        }
      ],
      "name": "TokensDebt",
      "type": "event"
    },
    {
      "anonymous": false,
      "inputs": [
        {
          "indexed": true,
          "internalType": "address",
          "name": "holder",
          "type": "address"
        },
        {
          "indexed": false,
          "internalType": "uint256",
          "name": "amount",
          "type": "uint256"
        }
      ],
      "name": "TokensWithdrawn",
      "type": "event"
    },
    {
      "anonymous": false,
      "inputs": [],
      "name": "Unpause",
      "type": "event"
    },
    {
      "anonymous": false,
      "inputs": [
        {
          "indexed": true,
          "internalType": "address",
          "name": "holder",
          "type": "address"
        },
        {
          "indexed": false,
          "internalType": "uint256",
          "name": "amount",
          "type": "uint256"
        }
      ],
      "name": "VestingCreated",
      "type": "event"
    },
    {
      "anonymous": false,
      "inputs": [
        {
          "indexed": false,
          "internalType": "uint256",
          "name": "amount",
          "type": "uint256"
        }
      ],
      "name": "VestingReleased",
      "type": "event"
    },
    {
      "anonymous": false,
      "inputs": [
        {
          "indexed": false,
          "internalType": "uint256",
          "name": "_vestingPercent",
          "type": "uint256"
        },
        {
          "indexed": false,
          "internalType": "uint256",
          "name": "_vestingStart",
          "type": "uint256"
        },
        {
          "indexed": false,
          "internalType": "uint256",
          "name": "_vestingInterval",
          "type": "uint256"
        },
        {
          "indexed": false,
          "internalType": "uint256",
          "name": "_vestingDuration",
          "type": "uint256"
        }
      ],
      "name": "VestingUpdated",
      "type": "event"
    },
    {
      "inputs": [
        {
          "internalType": "address[]",
          "name": "_addresses",
          "type": "address[]"
        }
      ],
      "name": "add",
      "outputs": [],
      "stateMutability": "nonpayable",
      "type": "function"
    },
    {
      "inputs": [],
      "name": "decimals",
      "outputs": [
        {
          "internalType": "uint256",
          "name": "",
          "type": "uint256"
        }
      ],
      "stateMutability": "view",
      "type": "function"
    },
    {
      "inputs": [],
      "name": "distributedTokens",
      "outputs": [
        {
          "internalType": "uint256",
          "name": "",
          "type": "uint256"
        }
      ],
      "stateMutability": "view",
      "type": "function"
    },
    {
      "inputs": [],
      "name": "enableTierSystem",
      "outputs": [
        {
          "internalType": "bool",
          "name": "",
          "type": "bool"
        }
      ],
      "stateMutability": "view",
      "type": "function"
    },
    {
      "inputs": [],
      "name": "feeFundsPercent",
      "outputs": [
        {
          "internalType": "uint256",
          "name": "",
          "type": "uint256"
        }
      ],
      "stateMutability": "view",
      "type": "function"
    },
    {
      "inputs": [],
      "name": "finishTimestamp",
      "outputs": [
        {
          "internalType": "uint256",
          "name": "",
          "type": "uint256"
        }
      ],
      "stateMutability": "view",
      "type": "function"
    },
    {
      "inputs": [],
      "name": "hasWhitelisting",
      "outputs": [
        {
          "internalType": "bool",
          "name": "",
          "type": "bool"
        }
      ],
      "stateMutability": "view",
      "type": "function"
    },
    {
      "inputs": [],
      "name": "idoMaster",
      "outputs": [
        {
          "internalType": "contract IidoMaster",
          "name": "",
          "type": "address"
        }
      ],
      "stateMutability": "view",
      "type": "function"
    },
    {
      "inputs": [
        {
          "internalType": "address",
          "name": "_address",
          "type": "address"
        }
      ],
      "name": "isWhitelisted",
      "outputs": [
        {
          "internalType": "bool",
          "name": "",
          "type": "bool"
        }
      ],
      "stateMutability": "view",
      "type": "function"
    },
    {
      "inputs": [],
      "name": "maxDistributedTokenAmount",
      "outputs": [
        {
          "internalType": "uint256",
          "name": "",
          "type": "uint256"
        }
      ],
      "stateMutability": "view",
      "type": "function"
    },
    {
      "inputs": [],
      "name": "maxEthPayment",
      "outputs": [
        {
          "internalType": "uint256",
          "name": "",
          "type": "uint256"
        }
      ],
      "stateMutability": "view",
      "type": "function"
    },
    {
      "inputs": [],
      "name": "minEthPayment",
      "outputs": [
        {
          "internalType": "uint256",
          "name": "",
          "type": "uint256"
        }
      ],
      "stateMutability": "view",
      "type": "function"
    },
    {
      "inputs": [],
      "name": "owner",
      "outputs": [
        {
          "internalType": "address",
          "name": "",
          "type": "address"
        }
      ],
      "stateMutability": "view",
      "type": "function"
    },
    {
      "inputs": [],
      "name": "pause",
      "outputs": [],
      "stateMutability": "nonpayable",
      "type": "function"
    },
    {
      "inputs": [],
      "name": "paused",
      "outputs": [
        {
          "internalType": "bool",
          "name": "",
          "type": "bool"
        }
      ],
      "stateMutability": "view",
      "type": "function"
    },
    {
      "inputs": [
        {
          "internalType": "address",
          "name": "_address",
          "type": "address"
        }
      ],
      "name": "remove",
      "outputs": [],
      "stateMutability": "nonpayable",
      "type": "function"
    },
    {
      "inputs": [],
      "name": "renounceOwnership",
      "outputs": [],
      "stateMutability": "nonpayable",
      "type": "function"
    },
    {
      "inputs": [],
      "name": "rewardToken",
      "outputs": [
        {
          "internalType": "contract ERC20",
          "name": "",
          "type": "address"
        }
      ],
      "stateMutability": "view",
      "type": "function"
    },
    {
      "inputs": [],
      "name": "startClaimTimestamp",
      "outputs": [
        {
          "internalType": "uint256",
          "name": "",
          "type": "uint256"
        }
      ],
      "stateMutability": "view",
      "type": "function"
    },
    {
      "inputs": [],
      "name": "startTimestamp",
      "outputs": [
        {
          "internalType": "uint256",
          "name": "",
          "type": "uint256"
        }
      ],
      "stateMutability": "view",
      "type": "function"
    },
    {
      "inputs": [],
      "name": "tierSystem",
      "outputs": [
        {
          "internalType": "contract ITierSystem",
          "name": "",
          "type": "address"
        }
      ],
      "stateMutability": "view",
      "type": "function"
    },
    {
      "inputs": [],
      "name": "tokenPrice",
      "outputs": [
        {
          "internalType": "uint256",
          "name": "",
          "type": "uint256"
        }
      ],
      "stateMutability": "view",
      "type": "function"
    },
    {
      "inputs": [],
      "name": "tokensForDistribution",
      "outputs": [
        {
          "internalType": "uint256",
          "name": "",
          "type": "uint256"
        }
      ],
      "stateMutability": "view",
      "type": "function"
    },
    {
      "inputs": [
        {
          "internalType": "address",
          "name": "newOwner",
          "type": "address"
        }
      ],
      "name": "transferOwnership",
      "outputs": [],
      "stateMutability": "nonpayable",
      "type": "function"
    },
    {
      "inputs": [],
      "name": "unpause",
      "outputs": [],
      "stateMutability": "nonpayable",
      "type": "function"
    },
    {
      "inputs": [
        {
          "internalType": "address",
          "name": "",
          "type": "address"
        }
      ],
      "name": "userInfo",
      "outputs": [
        {
          "internalType": "uint256",
          "name": "debt",
          "type": "uint256"
        },
        {
          "internalType": "uint256",
          "name": "total",
          "type": "uint256"
        },
        {
          "internalType": "uint256",
          "name": "totalInvestedETH",
          "type": "uint256"
        }
      ],
      "stateMutability": "view",
      "type": "function"
    },
    {
      "inputs": [],
      "name": "vestingDuration",
      "outputs": [
        {
          "internalType": "uint256",
          "name": "",
          "type": "uint256"
        }
      ],
      "stateMutability": "view",
      "type": "function"
    },
    {
      "inputs": [],
      "name": "vestingInterval",
      "outputs": [
        {
          "internalType": "uint256",
          "name": "",
          "type": "uint256"
        }
      ],
      "stateMutability": "view",
      "type": "function"
    },
    {
      "inputs": [],
      "name": "vestingPercent",
      "outputs": [
        {
          "internalType": "uint256",
          "name": "",
          "type": "uint256"
        }
      ],
      "stateMutability": "view",
      "type": "function"
    },
    {
      "inputs": [],
      "name": "vestingStart",
      "outputs": [
        {
          "internalType": "uint256",
          "name": "",
          "type": "uint256"
        }
      ],
      "stateMutability": "view",
      "type": "function"
    },
    {
      "inputs": [
        {
          "internalType": "address",
          "name": "",
          "type": "address"
        }
      ],
      "name": "whitelist",
      "outputs": [
        {
          "internalType": "bool",
          "name": "",
          "type": "bool"
        }
      ],
      "stateMutability": "view",
      "type": "function"
    },
    {
      "inputs": [
        {
          "internalType": "uint256",
          "name": "_vestingPercent",
          "type": "uint256"
        },
        {
          "internalType": "uint256",
          "name": "_vestingStart",
          "type": "uint256"
        },
        {
          "internalType": "uint256",
          "name": "_vestingInterval",
          "type": "uint256"
        },
        {
          "internalType": "uint256",
          "name": "_vestingDuration",
          "type": "uint256"
        }
      ],
      "name": "setVesting",
      "outputs": [],
      "stateMutability": "nonpayable",
      "type": "function"
    },
    {
      "inputs": [],
      "name": "pay",
      "outputs": [],
      "stateMutability": "payable",
      "type": "function"
    },
    {
      "inputs": [
        {
          "internalType": "address[]",
          "name": "_addresses",
          "type": "address[]"
        }
      ],
      "name": "claimFor",
      "outputs": [],
      "stateMutability": "nonpayable",
      "type": "function"
    },
    {
      "inputs": [],
      "name": "claim",
      "outputs": [],
      "stateMutability": "nonpayable",
      "type": "function"
    },
    {
      "inputs": [
        {
          "internalType": "bool",
          "name": "value",
          "type": "bool"
        }
      ],
      "name": "setHasWhitelisting",
      "outputs": [],
      "stateMutability": "nonpayable",
      "type": "function"
    },
    {
      "inputs": [
        {
          "internalType": "bool",
          "name": "value",
          "type": "bool"
        }
      ],
      "name": "setEnableTierSystem",
      "outputs": [],
      "stateMutability": "nonpayable",
      "type": "function"
    },
    {
      "inputs": [
        {
          "internalType": "contract ITierSystem",
          "name": "_tierSystem",
          "type": "address"
        }
      ],
      "name": "setTierSystem",
      "outputs": [],
      "stateMutability": "nonpayable",
      "type": "function"
    },
    {
      "inputs": [],
      "name": "withdrawFunds",
      "outputs": [],
      "stateMutability": "nonpayable",
      "type": "function"
    },
    {
      "inputs": [],
      "name": "withdrawNotSoldTokens",
      "outputs": [],
      "stateMutability": "nonpayable",
      "type": "function"
    },
    {
      "inputs": [
        {
          "internalType": "address",
          "name": "beneficiary",
          "type": "address"
        }
      ],
      "name": "getVesting",
      "outputs": [
        {
          "internalType": "uint256",
          "name": "",
          "type": "uint256"
        },
        {
          "internalType": "uint256",
          "name": "",
          "type": "uint256"
        }
      ],
      "stateMutability": "view",
      "type": "function"
    },
    {
      "inputs": [
        {
          "internalType": "address",
          "name": "beneficiary",
          "type": "address"
        }
      ],
      "name": "release",
      "outputs": [],
      "stateMutability": "nonpayable",
      "type": "function"
    },
    {
      "inputs": [
        {
          "internalType": "address",
          "name": "beneficiary",
          "type": "address"
        }
      ],
      "name": "releasableAmount",
      "outputs": [
        {
          "internalType": "uint256",
          "name": "",
          "type": "uint256"
        }
      ],
      "stateMutability": "view",
      "type": "function"
    },
    {
      "inputs": [
        {
          "internalType": "address",
          "name": "beneficiary",
          "type": "address"
        }
      ],
      "name": "vestedAmount",
      "outputs": [
        {
          "internalType": "uint256",
          "name": "",
          "type": "uint256"
        }
      ],
      "stateMutability": "view",
      "type": "function"
    }
  ],
  "bytecode": "0x608060405260008060146101000a81548160ff0219169083151502179055506000600260006101000a81548160ff0219169083151502179055503480156200004657600080fd5b50604051620042a9380380620042a983398181016040526101a08110156200006d57600080fd5b8101908080519060200190929190805190602001909291908051906020019092919080519060200190929190805190602001909291908051906020019092919080519060200190929190805190602001909291908051906020019092919080519060200190929190805190602001909291908051906020019092919080519060200190929190505050826000620001096200048d60201b60201c565b9050806000806101000a81548173ffffffffffffffffffffffffffffffffffffffff021916908373ffffffffffffffffffffffffffffffffffffffff1602179055508073ffffffffffffffffffffffffffffffffffffffff16600073ffffffffffffffffffffffffffffffffffffffff167f8be0079c531659141344cd1fd0a4f28419497f9722a3daafe3b4186f6b6457e060405160405180910390a35080600260006101000a81548160ff0219169083151502179055505060016003819055508c601060006101000a81548173ffffffffffffffffffffffffffffffffffffffff021916908373ffffffffffffffffffffffffffffffffffffffff1602179055508b6011819055508a60048190555089600560006101000a81548173ffffffffffffffffffffffffffffffffffffffff021916908373ffffffffffffffffffffffffffffffffffffffff160217905550600560009054906101000a900473ffffffffffffffffffffffffffffffffffffffff1673ffffffffffffffffffffffffffffffffffffffff1663313ce5676040518163ffffffff1660e01b815260040160206040518083038186803b158015620002c357600080fd5b505afa158015620002d8573d6000803e3d6000fd5b505050506040513d6020811015620002ef57600080fd5b810190808051906020019092919050505060ff166006819055508789106200037f576040517f08c379a000000000000000000000000000000000000000000000000000000000815260040180806020018281038252601e8152602001807f5374617274206d757374206265206c657373207468616e2066696e697368000081525060200191505060405180910390fd5b428811620003f5576040517f08c379a000000000000000000000000000000000000000000000000000000000815260040180806020018281038252601c8152602001807f46696e697368206d757374206265206d6f7265207468616e206e6f770000000081525060200191505060405180910390fd5b88600781905550876008819055508660098190555085600a8190555084600b8190555083600c8190555081601260006101000a81548160ff02191690831515021790555080600f60006101000a81548173ffffffffffffffffffffffffffffffffffffffff021916908373ffffffffffffffffffffffffffffffffffffffff1602179055505050505050505050505050505062000495565b600033905090565b613e0480620004a56000396000f3fe6080604052600436106102675760003560e01c80635c975abb11610144578063bdb58e03116100b6578063d1e5587e1161007a578063d1e5587e14610bd4578063e0ee43a214610bff578063e6fd48bc14610c2a578063f2fde38b14610c55578063f7c618c114610ca6578063f8caa7e514610ce757610267565b8063bdb58e0314610a20578063c4c1c94f14610a61578063c6a0e27d14610b26578063c8d771af14610b3d578063cc49ede714610b6857610267565b80638456cb59116101085780638456cb59146108205780638da5cb5b146108375780639b19251a14610878578063a4ad0166146108df578063b38aab9d14610930578063b8e50cab146109f557610267565b80635c975abb146107495780636644cc2b146107765780636eaaabd5146107a1578063715018a6146107de5780637ff9b596146107f557610267565b8063313ce567116101dd57806343d7d321116101a157806343d7d321146106495780634b1a4c0c146106745780634e71d92d1461069f578063519a1319146106b6578063586360ce146106f35780635b857a1b1461071e57610267565b8063313ce56714610510578063384711cc1461053b5780633aeb6c71146105a05780633af32abf146105cb5780633f4ba83a1461063257610267565b80631959a0021161022f5780631959a002146103a75780631b9265b81461041a57806324600fc314610424578063254800d41461043b57806329092d0e146104665780632ce71832146104b757610267565b8063065aa5451461026c57806307662345146102995780631514617e146102c65780631726cbc8146102f15780631916558714610356575b600080fd5b34801561027857600080fd5b50610281610d28565b60405180821515815260200191505060405180910390f35b3480156102a557600080fd5b506102ae610d3b565b60405180821515815260200191505060405180910390f35b3480156102d257600080fd5b506102db610d4e565b6040518082815260200191505060405180910390f35b3480156102fd57600080fd5b506103406004803603602081101561031457600080fd5b81019080803573ffffffffffffffffffffffffffffffffffffffff169060200190929190505050610d54565b6040518082815260200191505060405180910390f35b34801561036257600080fd5b506103a56004803603602081101561037957600080fd5b81019080803573ffffffffffffffffffffffffffffffffffffffff169060200190929190505050610dba565b005b3480156103b357600080fd5b506103f6600480360360208110156103ca57600080fd5b81019080803573ffffffffffffffffffffffffffffffffffffffff169060200190929190505050610fd0565b60405180848152602001838152602001828152602001935050505060405180910390f35b610422610ffa565b005b34801561043057600080fd5b50610439611645565b005b34801561044757600080fd5b50610450611975565b6040518082815260200191505060405180910390f35b34801561047257600080fd5b506104b56004803603602081101561048957600080fd5b81019080803573ffffffffffffffffffffffffffffffffffffffff16906020019092919050505061197b565b005b3480156104c357600080fd5b5061050e600480360360808110156104da57600080fd5b8101908080359060200190929190803590602001909291908035906020019092919080359060200190929190505050611b34565b005b34801561051c57600080fd5b50610525611e3c565b6040518082815260200191505060405180910390f35b34801561054757600080fd5b5061058a6004803603602081101561055e57600080fd5b81019080803573ffffffffffffffffffffffffffffffffffffffff169060200190929190505050611e42565b6040518082815260200191505060405180910390f35b3480156105ac57600080fd5b506105b5611f85565b6040518082815260200191505060405180910390f35b3480156105d757600080fd5b5061061a600480360360208110156105ee57600080fd5b81019080803573ffffffffffffffffffffffffffffffffffffffff169060200190929190505050611f8b565b60405180821515815260200191505060405180910390f35b34801561063e57600080fd5b50610647611fe1565b005b34801561065557600080fd5b5061065e612173565b6040518082815260200191505060405180910390f35b34801561068057600080fd5b50610689612179565b6040518082815260200191505060405180910390f35b3480156106ab57600080fd5b506106b461217f565b005b3480156106c257600080fd5b506106f1600480360360208110156106d957600080fd5b8101908080351515906020019092919050505061220d565b005b3480156106ff57600080fd5b5061070861233a565b6040518082815260200191505060405180910390f35b34801561072a57600080fd5b50610733612340565b6040518082815260200191505060405180910390f35b34801561075557600080fd5b5061075e612346565b60405180821515815260200191505060405180910390f35b34801561078257600080fd5b5061078b612359565b6040518082815260200191505060405180910390f35b3480156107ad57600080fd5b506107dc600480360360208110156107c457600080fd5b8101908080351515906020019092919050505061235f565b005b3480156107ea57600080fd5b506107f361248c565b005b34801561080157600080fd5b5061080a612612565b6040518082815260200191505060405180910390f35b34801561082c57600080fd5b50610835612618565b005b34801561084357600080fd5b5061084c6127ac565b604051808273ffffffffffffffffffffffffffffffffffffffff16815260200191505060405180910390f35b34801561088457600080fd5b506108c76004803603602081101561089b57600080fd5b81019080803573ffffffffffffffffffffffffffffffffffffffff1690602001909291905050506127d5565b60405180821515815260200191505060405180910390f35b3480156108eb57600080fd5b5061092e6004803603602081101561090257600080fd5b81019080803573ffffffffffffffffffffffffffffffffffffffff1690602001909291905050506127f5565b005b34801561093c57600080fd5b506109f36004803603602081101561095357600080fd5b810190808035906020019064010000000081111561097057600080fd5b82018360208201111561098257600080fd5b803590602001918460208302840111640100000000831117156109a457600080fd5b919080806020026020016040519081016040528093929190818152602001838360200280828437600081840152601f19601f820116905080830192505050505050509192919290505050612901565b005b348015610a0157600080fd5b50610a0a6129bd565b6040518082815260200191505060405180910390f35b348015610a2c57600080fd5b50610a356129c3565b604051808273ffffffffffffffffffffffffffffffffffffffff16815260200191505060405180910390f35b348015610a6d57600080fd5b50610b2460048036036020811015610a8457600080fd5b8101908080359060200190640100000000811115610aa157600080fd5b820183602082011115610ab357600080fd5b80359060200191846020830284011164010000000083111715610ad557600080fd5b919080806020026020016040519081016040528093929190818152602001838360200280828437600081840152601f19601f8201169050808301925050505050505091929192905050506129e9565b005b348015610b3257600080fd5b50610b3b612ba7565b005b348015610b4957600080fd5b50610b52612ee6565b6040518082815260200191505060405180910390f35b348015610b7457600080fd5b50610bb760048036036020811015610b8b57600080fd5b81019080803573ffffffffffffffffffffffffffffffffffffffff169060200190929190505050612eec565b604051808381526020018281526020019250505060405180910390f35b348015610be057600080fd5b50610be9612f6b565b6040518082815260200191505060405180910390f35b348015610c0b57600080fd5b50610c14612f71565b6040518082815260200191505060405180910390f35b348015610c3657600080fd5b50610c3f612f77565b6040518082815260200191505060405180910390f35b348015610c6157600080fd5b50610ca460048036036020811015610c7857600080fd5b81019080803573ffffffffffffffffffffffffffffffffffffffff169060200190929190505050612f7d565b005b348015610cb257600080fd5b50610cbb613188565b604051808273ffffffffffffffffffffffffffffffffffffffff16815260200191505060405180910390f35b348015610cf357600080fd5b50610cfc6131ae565b604051808273ffffffffffffffffffffffffffffffffffffffff16815260200191505060405180910390f35b601260009054906101000a900460ff1681565b600260009054906101000a900460ff1681565b60175481565b6000610db3601860008473ffffffffffffffffffffffffffffffffffffffff1673ffffffffffffffffffffffffffffffffffffffff16815260200190815260200160002060010154610da584611e42565b6131d490919063ffffffff16565b9050919050565b60026003541415610e33576040517f08c379a000000000000000000000000000000000000000000000000000000000815260040180806020018281038252601f8152602001807f5265656e7472616e637947756172643a207265656e7472616e742063616c6c0081525060200191505060405180910390fd5b60026003819055506000610e4682610d54565b905060008111610ebe576040517f08c379a00000000000000000000000000000000000000000000000000000000081526004018080602001828103825260128152602001807f4e6f7468696e6720746f2072656c65617365000000000000000000000000000081525060200191505060405180910390fd5b6000601860008473ffffffffffffffffffffffffffffffffffffffff1673ffffffffffffffffffffffffffffffffffffffff1681526020019081526020016000209050610f1882826001015461321e90919063ffffffff16565b8160010181905550610f378282600001546131d490919063ffffffff16565b8160000181905550610f8c8383600560009054906101000a900473ffffffffffffffffffffffffffffffffffffffff1673ffffffffffffffffffffffffffffffffffffffff166132a69092919063ffffffff16565b7f87281fabebb3053dede10cd89db97c95421a1fb9385cd5d0bb6cf8db8dd11ae7826040518082815260200191505060405180910390a15050600160038190555050565b60136020528060005260406000206000915090508060000154908060010154908060020154905083565b60026003541415611073576040517f08c379a000000000000000000000000000000000000000000000000000000000815260040180806020018281038252601f8152602001807f5265656e7472616e637947756172643a207265656e7472616e742063616c6c0081525060200191505060405180910390fd5b6002600381905550600260009054906101000a900460ff16156110a35761109933611f8b565b6110a257600080fd5b5b600060149054906101000a900460ff1615611126576040517f08c379a00000000000000000000000000000000000000000000000000000000081526004018080602001828103825260128152602001807f48617320746f20626520756e706175736564000000000000000000000000000081525060200191505060405180910390fd5b600a5434101561119e576040517f08c379a00000000000000000000000000000000000000000000000000000000081526004018080602001828103825260148152602001807f4c657373207468656e206d696e20616d6f756e7400000000000000000000000081525060200191505060405180910390fd5b600754421015611216576040517f08c379a000000000000000000000000000000000000000000000000000000000815260040180806020018281038252600b8152602001807f4e6f74207374617274656400000000000000000000000000000000000000000081525060200191505060405180910390fd5b600854421061128d576040517f08c379a00000000000000000000000000000000000000000000000000000000081526004018080602001828103825260058152602001807f456e64656400000000000000000000000000000000000000000000000000000081525060200191505060405180910390fd5b600061129834613348565b9050600c546112b282600d5461321e90919063ffffffff16565b1115611326576040517f08c379a000000000000000000000000000000000000000000000000000000000815260040180806020018281038252600a8152602001807f4f76657266696c6c65640000000000000000000000000000000000000000000081525060200191505060405180910390fd5b6000601360003373ffffffffffffffffffffffffffffffffffffffff1673ffffffffffffffffffffffffffffffffffffffff1681526020019081526020016000209050601260009054906101000a900460ff16156114dc57600f60009054906101000a900473ffffffffffffffffffffffffffffffffffffffff1673ffffffffffffffffffffffffffffffffffffffff166390d8260f33600b546040518363ffffffff1660e01b8152600401808373ffffffffffffffffffffffffffffffffffffffff1681526020018281526020019250505060206040518083038186803b15801561141157600080fd5b505afa158015611425573d6000803e3d6000fd5b505050506040513d602081101561143b57600080fd5b810190808051906020019092919050505061146334836002015461321e90919063ffffffff16565b11156114d7576040517f08c379a00000000000000000000000000000000000000000000000000000000081526004018080602001828103825260148152602001807f4d6f7265207468656e206d617820616d6f756e7400000000000000000000000081525060200191505060405180910390fd5b61156b565b600b546114f634836002015461321e90919063ffffffff16565b111561156a576040517f08c379a00000000000000000000000000000000000000000000000000000000081526004018080602001828103825260148152602001807f4d6f7265207468656e206d617820616d6f756e7400000000000000000000000081525060200191505060405180910390fd5b5b61158082600d5461321e90919063ffffffff16565b600d8190555061159d34826002015461321e90919063ffffffff16565b81600201819055506115bc82826001015461321e90919063ffffffff16565b81600101819055506115db82826000015461321e90919063ffffffff16565b81600001819055503373ffffffffffffffffffffffffffffffffffffffff167fb55d4ca2fc644ca3f8cdc9c907826e24acd68d2b2d4d73f48b8f2378dbaedf5d3484604051808381526020018281526020019250505060405180910390a250506001600381905550565b61164d61337d565b73ffffffffffffffffffffffffffffffffffffffff1660008054906101000a900473ffffffffffffffffffffffffffffffffffffffff1673ffffffffffffffffffffffffffffffffffffffff161461170d576040517f08c379a00000000000000000000000000000000000000000000000000000000081526004018080602001828103825260208152602001807f4f776e61626c653a2063616c6c6572206973206e6f7420746865206f776e657281525060200191505060405180910390fd5b60026003541415611786576040517f08c379a000000000000000000000000000000000000000000000000000000000815260040180806020018281038252601f8152602001807f5265656e7472616e637947756172643a207265656e7472616e742063616c6c0081525060200191505060405180910390fd5b6002600381905550600060115411156118e75760006117c360646117b56011544761338590919063ffffffff16565b61340b90919063ffffffff16565b9050601060009054906101000a900473ffffffffffffffffffffffffffffffffffffffff1673ffffffffffffffffffffffffffffffffffffffff1663f25f4b566040518163ffffffff1660e01b815260040160206040518083038186803b15801561182d57600080fd5b505afa158015611841573d6000803e3d6000fd5b505050506040513d602081101561185757600080fd5b810190808051906020019092919050505073ffffffffffffffffffffffffffffffffffffffff166108fc829081150290604051600060405180830381858888f193505050501580156118ad573d6000803e3d6000fd5b507ff907e46c2c93b7a34a4dbaff501b7c2931c081cec48af83b6c04effcbdbe012c816040518082815260200191505060405180910390a1505b60004790503373ffffffffffffffffffffffffffffffffffffffff166108fc829081150290604051600060405180830381858888f19350505050158015611932573d6000803e3d6000fd5b507f4a37b25aab49761ecf63117fe82b98d750917451133cf797507bc9fb5b96044a816040518082815260200191505060405180910390a1506001600381905550565b60155481565b61198361337d565b73ffffffffffffffffffffffffffffffffffffffff1660008054906101000a900473ffffffffffffffffffffffffffffffffffffffff1673ffffffffffffffffffffffffffffffffffffffff1614611a43576040517f08c379a00000000000000000000000000000000000000000000000000000000081526004018080602001828103825260208152602001807f4f776e61626c653a2063616c6c6572206973206e6f7420746865206f776e657281525060200191505060405180910390fd5b600160008273ffffffffffffffffffffffffffffffffffffffff1673ffffffffffffffffffffffffffffffffffffffff16815260200190815260200160002060009054906101000a900460ff1615611b31576000600160008373ffffffffffffffffffffffffffffffffffffffff1673ffffffffffffffffffffffffffffffffffffffff16815260200190815260200160002060006101000a81548160ff0219169083151502179055508073ffffffffffffffffffffffffffffffffffffffff167fcdd2e9b91a56913d370075169cefa1602ba36be5301664f752192bb1709df75760405160405180910390a25b50565b611b3c61337d565b73ffffffffffffffffffffffffffffffffffffffff1660008054906101000a900473ffffffffffffffffffffffffffffffffffffffff1673ffffffffffffffffffffffffffffffffffffffff1614611bfc576040517f08c379a00000000000000000000000000000000000000000000000000000000081526004018080602001828103825260208152602001807f4f776e61626c653a2063616c6c6572206973206e6f7420746865206f776e657281525060200191505060405180910390fd5b6007544210611c73576040517f08c379a000000000000000000000000000000000000000000000000000000000815260040180806020018281038252600f8152602001807f416c72656164792073746172746564000000000000000000000000000000000081525060200191505060405180910390fd5b6064841115611cea576040517f08c379a000000000000000000000000000000000000000000000000000000000815260040180806020018281038252601e8152602001807f56657374696e672070657263656e74206d757374206265203c3d20313030000081525060200191505060405180910390fd5b6000841115611dc35760008211611d69576040517f08c379a000000000000000000000000000000000000000000000000000000000815260040180806020018281038252601f8152602001807f696e74657276616c206d7573742062652067726561746572207468616e20300081525060200191505060405180910390fd5b81811015611dc2576040517f08c379a0000000000000000000000000000000000000000000000000000000008152600401808060200182810382526027815260200180613d5d6027913960400191505060405180910390fd5b5b836014819055508260158190555081601681905550806017819055507fe5a61c66c681285927bfe4081737907047293e1a7bae913f41dc7960de5efc996014546015546016546017546040518085815260200184815260200183815260200182815260200194505050505060405180910390a150505050565b60065481565b6000601554421015611e575760009050611f80565b611e5f613cf6565b601860008473ffffffffffffffffffffffffffffffffffffffff1673ffffffffffffffffffffffffffffffffffffffff1681526020019081526020016000206040518060400160405290816000820154815260200160018201548152505090506000816000015190506000611ee183602001518361321e90919063ffffffff16565b9050611efa60175460155461321e90919063ffffffff16565b4210611f0b57809350505050611f80565b6000611f36601654611f28601554426131d490919063ffffffff16565b61340b90919063ffffffff16565b90506000611f5160165460175461340b90919063ffffffff16565b9050611f7881611f6a848661338590919063ffffffff16565b61340b90919063ffffffff16565b955050505050505b919050565b60145481565b6000600160008373ffffffffffffffffffffffffffffffffffffffff1673ffffffffffffffffffffffffffffffffffffffff16815260200190815260200160002060009054906101000a900460ff169050919050565b611fe961337d565b73ffffffffffffffffffffffffffffffffffffffff1660008054906101000a900473ffffffffffffffffffffffffffffffffffffffff1673ffffffffffffffffffffffffffffffffffffffff16146120a9576040517f08c379a00000000000000000000000000000000000000000000000000000000081526004018080602001828103825260208152602001807f4f776e61626c653a2063616c6c6572206973206e6f7420746865206f776e657281525060200191505060405180910390fd5b600060149054906101000a900460ff1661212b576040517f08c379a00000000000000000000000000000000000000000000000000000000081526004018080602001828103825260108152602001807f48617320746f206265207061757365640000000000000000000000000000000081525060200191505060405180910390fd5b60008060146101000a81548160ff0219169083151502179055507f7805862f689e2f13df9f062ff482ad3ad112aca9e0847911ed832e158c525b3360405160405180910390a1565b60085481565b600d5481565b600060149054906101000a900460ff1615612202576040517f08c379a00000000000000000000000000000000000000000000000000000000081526004018080602001828103825260128152602001807f48617320746f20626520756e706175736564000000000000000000000000000081525060200191505060405180910390fd5b61220b33613455565b565b61221561337d565b73ffffffffffffffffffffffffffffffffffffffff1660008054906101000a900473ffffffffffffffffffffffffffffffffffffffff1673ffffffffffffffffffffffffffffffffffffffff16146122d5576040517f08c379a00000000000000000000000000000000000000000000000000000000081526004018080602001828103825260208152602001807f4f776e61626c653a2063616c6c6572206973206e6f7420746865206f776e657281525060200191505060405180910390fd5b80601260006101000a81548160ff0219169083151502179055507f5b3d36c746703d7a5e70e83f8d648f2f4363d2f954492ec5cf7c29f2ce61323d601260009054906101000a900460ff1660405180821515815260200191505060405180910390a150565b600e5481565b600b5481565b600060149054906101000a900460ff1681565b600a5481565b61236761337d565b73ffffffffffffffffffffffffffffffffffffffff1660008054906101000a900473ffffffffffffffffffffffffffffffffffffffff1673ffffffffffffffffffffffffffffffffffffffff1614612427576040517f08c379a00000000000000000000000000000000000000000000000000000000081526004018080602001828103825260208152602001807f4f776e61626c653a2063616c6c6572206973206e6f7420746865206f776e657281525060200191505060405180910390fd5b80600260006101000a81548160ff0219169083151502179055507f81a1b67ab393231a9f3a2ce8c84cc6c46c76cc94cf733e155af6fb539873fa39600260009054906101000a900460ff1660405180821515815260200191505060405180910390a150565b61249461337d565b73ffffffffffffffffffffffffffffffffffffffff1660008054906101000a900473ffffffffffffffffffffffffffffffffffffffff1673ffffffffffffffffffffffffffffffffffffffff1614612554576040517f08c379a00000000000000000000000000000000000000000000000000000000081526004018080602001828103825260208152602001807f4f776e61626c653a2063616c6c6572206973206e6f7420746865206f776e657281525060200191505060405180910390fd5b600073ffffffffffffffffffffffffffffffffffffffff1660008054906101000a900473ffffffffffffffffffffffffffffffffffffffff1673ffffffffffffffffffffffffffffffffffffffff167f8be0079c531659141344cd1fd0a4f28419497f9722a3daafe3b4186f6b6457e060405160405180910390a360008060006101000a81548173ffffffffffffffffffffffffffffffffffffffff021916908373ffffffffffffffffffffffffffffffffffffffff160217905550565b60045481565b61262061337d565b73ffffffffffffffffffffffffffffffffffffffff1660008054906101000a900473ffffffffffffffffffffffffffffffffffffffff1673ffffffffffffffffffffffffffffffffffffffff16146126e0576040517f08c379a00000000000000000000000000000000000000000000000000000000081526004018080602001828103825260208152602001807f4f776e61626c653a2063616c6c6572206973206e6f7420746865206f776e657281525060200191505060405180910390fd5b600060149054906101000a900460ff1615612763576040517f08c379a00000000000000000000000000000000000000000000000000000000081526004018080602001828103825260128152602001807f48617320746f20626520756e706175736564000000000000000000000000000081525060200191505060405180910390fd5b6001600060146101000a81548160ff0219169083151502179055507f6985a02210a168e66602d3235cb6db0e70f92b3ba4d376a33c0f3d9434bff62560405160405180910390a1565b60008060009054906101000a900473ffffffffffffffffffffffffffffffffffffffff16905090565b60016020528060005260406000206000915054906101000a900460ff1681565b6127fd61337d565b73ffffffffffffffffffffffffffffffffffffffff1660008054906101000a900473ffffffffffffffffffffffffffffffffffffffff1673ffffffffffffffffffffffffffffffffffffffff16146128bd576040517f08c379a00000000000000000000000000000000000000000000000000000000081526004018080602001828103825260208152602001807f4f776e61626c653a2063616c6c6572206973206e6f7420746865206f776e657281525060200191505060405180910390fd5b80600f60006101000a81548173ffffffffffffffffffffffffffffffffffffffff021916908373ffffffffffffffffffffffffffffffffffffffff16021790555050565b600060149054906101000a900460ff1615612984576040517f08c379a00000000000000000000000000000000000000000000000000000000081526004018080602001828103825260128152602001807f48617320746f20626520756e706175736564000000000000000000000000000081525060200191505060405180910390fd5b60005b81518110156129b9576129ac82828151811061299f57fe5b6020026020010151613455565b8080600101915050612987565b5050565b60165481565b601060009054906101000a900473ffffffffffffffffffffffffffffffffffffffff1681565b6129f161337d565b73ffffffffffffffffffffffffffffffffffffffff1660008054906101000a900473ffffffffffffffffffffffffffffffffffffffff1673ffffffffffffffffffffffffffffffffffffffff1614612ab1576040517f08c379a00000000000000000000000000000000000000000000000000000000081526004018080602001828103825260208152602001807f4f776e61626c653a2063616c6c6572206973206e6f7420746865206f776e657281525060200191505060405180910390fd5b60005b8151811015612b34576001806000848481518110612ace57fe5b602002602001015173ffffffffffffffffffffffffffffffffffffffff1673ffffffffffffffffffffffffffffffffffffffff16815260200190815260200160002060006101000a81548160ff0219169083151502179055508080600101915050612ab4565b508060405180828051906020019060200280838360005b83811015612b66578082015181840152602081019050612b4b565b5050505090500191505060405180910390207fe3c5086a518f78e8aa61952bb9c28a9a0f0022707e537ea961faa918e0d89f6f60405160405180910390a250565b612baf61337d565b73ffffffffffffffffffffffffffffffffffffffff1660008054906101000a900473ffffffffffffffffffffffffffffffffffffffff1673ffffffffffffffffffffffffffffffffffffffff1614612c6f576040517f08c379a00000000000000000000000000000000000000000000000000000000081526004018080602001828103825260208152602001807f4f776e61626c653a2063616c6c6572206973206e6f7420746865206f776e657281525060200191505060405180910390fd5b60026003541415612ce8576040517f08c379a000000000000000000000000000000000000000000000000000000000815260040180806020018281038252601f8152602001807f5265656e7472616e637947756172643a207265656e7472616e742063616c6c0081525060200191505060405180910390fd5b60026003819055506008544211612d67576040517f08c379a00000000000000000000000000000000000000000000000000000000081526004018080602001828103825260178152602001807f416c6c6f772061667465722066696e6973682074696d6500000000000000000081525060200191505060405180910390fd5b6000612e55600d54612e47600e54600560009054906101000a900473ffffffffffffffffffffffffffffffffffffffff1673ffffffffffffffffffffffffffffffffffffffff166370a08231306040518263ffffffff1660e01b8152600401808273ffffffffffffffffffffffffffffffffffffffff16815260200191505060206040518083038186803b158015612dfe57600080fd5b505afa158015612e12573d6000803e3d6000fd5b505050506040513d6020811015612e2857600080fd5b810190808051906020019092919050505061321e90919063ffffffff16565b6131d490919063ffffffff16565b9050612ea43382600560009054906101000a900473ffffffffffffffffffffffffffffffffffffffff1673ffffffffffffffffffffffffffffffffffffffff166132a69092919063ffffffff16565b7fbce7c33bc3bf1bb5e55b3b1db71bb682916756e28abd95200251299059cf0fed816040518082815260200191505060405180910390a1506001600381905550565b60115481565b600080612ef7613cf6565b601860008573ffffffffffffffffffffffffffffffffffffffff1673ffffffffffffffffffffffffffffffffffffffff168152602001908152602001600020604051806040016040529081600082015481526020016001820154815250509050806000015181602001519250925050915091565b60095481565b600c5481565b60075481565b612f8561337d565b73ffffffffffffffffffffffffffffffffffffffff1660008054906101000a900473ffffffffffffffffffffffffffffffffffffffff1673ffffffffffffffffffffffffffffffffffffffff1614613045576040517f08c379a00000000000000000000000000000000000000000000000000000000081526004018080602001828103825260208152602001807f4f776e61626c653a2063616c6c6572206973206e6f7420746865206f776e657281525060200191505060405180910390fd5b600073ffffffffffffffffffffffffffffffffffffffff168173ffffffffffffffffffffffffffffffffffffffff1614156130cb576040517f08c379a0000000000000000000000000000000000000000000000000000000008152600401808060200182810382526026815260200180613d116026913960400191505060405180910390fd5b8073ffffffffffffffffffffffffffffffffffffffff1660008054906101000a900473ffffffffffffffffffffffffffffffffffffffff1673ffffffffffffffffffffffffffffffffffffffff167f8be0079c531659141344cd1fd0a4f28419497f9722a3daafe3b4186f6b6457e060405160405180910390a3806000806101000a81548173ffffffffffffffffffffffffffffffffffffffff021916908373ffffffffffffffffffffffffffffffffffffffff16021790555050565b600560009054906101000a900473ffffffffffffffffffffffffffffffffffffffff1681565b600f60009054906101000a900473ffffffffffffffffffffffffffffffffffffffff1681565b600061321683836040518060400160405280601e81526020017f536166654d6174683a207375627472616374696f6e206f766572666c6f7700008152506136c8565b905092915050565b60008082840190508381101561329c576040517f08c379a000000000000000000000000000000000000000000000000000000000815260040180806020018281038252601b8152602001807f536166654d6174683a206164646974696f6e206f766572666c6f77000000000081525060200191505060405180910390fd5b8091505092915050565b6133438363a9059cbb60e01b8484604051602401808373ffffffffffffffffffffffffffffffffffffffff16815260200182815260200192505050604051602081830303815290604052907bffffffffffffffffffffffffffffffffffffffffffffffffffffffff19166020820180517bffffffffffffffffffffffffffffffffffffffffffffffffffffffff8381831617835250505050613788565b505050565b6000613376600454613368600654600a0a8561338590919063ffffffff16565b61340b90919063ffffffff16565b9050919050565b600033905090565b6000808314156133985760009050613405565b60008284029050828482816133a957fe5b0414613400576040517f08c379a0000000000000000000000000000000000000000000000000000000008152600401808060200182810382526021815260200180613d846021913960400191505060405180910390fd5b809150505b92915050565b600061344d83836040518060400160405280601a81526020017f536166654d6174683a206469766973696f6e206279207a65726f000000000000815250613877565b905092915050565b600260035414156134ce576040517f08c379a000000000000000000000000000000000000000000000000000000000815260040180806020018281038252601f8152602001807f5265656e7472616e637947756172643a207265656e7472616e742063616c6c0081525060200191505060405180910390fd5b6002600381905550600954421161354d576040517f08c379a00000000000000000000000000000000000000000000000000000000081526004018080602001828103825260188152602001807f446973747269627574696f6e206e6f742073746172746564000000000000000081525060200191505060405180910390fd5b6000601360008373ffffffffffffffffffffffffffffffffffffffff1673ffffffffffffffffffffffffffffffffffffffff168152602001908152602001600020905060008160000154905060008111156136bb57600082600001819055506135c181600e5461321e90919063ffffffff16565b600e819055506000601454111561361f5760006135fc60646135ee6014548561338590919063ffffffff16565b61340b90919063ffffffff16565b9050613608848261393d565b61361b81836131d490919063ffffffff16565b9150505b61366c8382600560009054906101000a900473ffffffffffffffffffffffffffffffffffffffff1673ffffffffffffffffffffffffffffffffffffffff166132a69092919063ffffffff16565b8273ffffffffffffffffffffffffffffffffffffffff167f6352c5382c4a4578e712449ca65e83cdb392d045dfcf1cad9615189db2da244b826040518082815260200191505060405180910390a25b5050600160038190555050565b6000838311158290613775576040517f08c379a00000000000000000000000000000000000000000000000000000000081526004018080602001828103825283818151815260200191508051906020019080838360005b8381101561373a57808201518184015260208101905061371f565b50505050905090810190601f1680156137675780820380516001836020036101000a031916815260200191505b509250505060405180910390fd5b5060008385039050809150509392505050565b60606137ea826040518060400160405280602081526020017f5361666545524332303a206c6f772d6c6576656c2063616c6c206661696c65648152508573ffffffffffffffffffffffffffffffffffffffff16613a569092919063ffffffff16565b90506000815111156138725780806020019051602081101561380b57600080fd5b8101908080519060200190929190505050613871576040517f08c379a000000000000000000000000000000000000000000000000000000000815260040180806020018281038252602a815260200180613da5602a913960400191505060405180910390fd5b5b505050565b60008083118290613923576040517f08c379a00000000000000000000000000000000000000000000000000000000081526004018080602001828103825283818151815260200191508051906020019080838360005b838110156138e85780820151818401526020810190506138cd565b50505050905090810190601f1680156139155780820380516001836020036101000a031916815260200191505b509250505060405180910390fd5b50600083858161392f57fe5b049050809150509392505050565b6000601860008473ffffffffffffffffffffffffffffffffffffffff1673ffffffffffffffffffffffffffffffffffffffff168152602001908152602001600020905060008160000154146139fa576040517f08c379a00000000000000000000000000000000000000000000000000000000081526004018080602001828103825260178152602001807f56657374696e6720616c7265616479206372656174656400000000000000000081525060200191505060405180910390fd5b8181600001819055508273ffffffffffffffffffffffffffffffffffffffff167f2f5488c5b0350655053f3d00e1693b26a49ecd0242b2c0df881ccda054490d30836040518082815260200191505060405180910390a2505050565b6060613a658484600085613a6e565b90509392505050565b606082471015613ac9576040517f08c379a0000000000000000000000000000000000000000000000000000000008152600401808060200182810382526026815260200180613d376026913960400191505060405180910390fd5b613ad285613c17565b613b44576040517f08c379a000000000000000000000000000000000000000000000000000000000815260040180806020018281038252601d8152602001807f416464726573733a2063616c6c20746f206e6f6e2d636f6e747261637400000081525060200191505060405180910390fd5b600060608673ffffffffffffffffffffffffffffffffffffffff1685876040518082805190602001908083835b60208310613b945780518252602082019150602081019050602083039250613b71565b6001836020036101000a03801982511681845116808217855250505050505090500191505060006040518083038185875af1925050503d8060008114613bf6576040519150601f19603f3d011682016040523d82523d6000602084013e613bfb565b606091505b5091509150613c0b828286613c2a565b92505050949350505050565b600080823b905060008111915050919050565b60608315613c3a57829050613cef565b600083511115613c4d5782518084602001fd5b816040517f08c379a00000000000000000000000000000000000000000000000000000000081526004018080602001828103825283818151815260200191508051906020019080838360005b83811015613cb4578082015181840152602081019050613c99565b50505050905090810190601f168015613ce15780820380516001836020036101000a031916815260200191505b509250505060405180910390fd5b9392505050565b60405180604001604052806000815260200160008152509056fe4f776e61626c653a206e6577206f776e657220697320746865207a65726f2061646472657373416464726573733a20696e73756666696369656e742062616c616e636520666f722063616c6c696e74657276616c2063616e6e6f7420626520626967676572207468616e206475726174696f6e536166654d6174683a206d756c7469706c69636174696f6e206f766572666c6f775361666545524332303a204552433230206f7065726174696f6e20646964206e6f742073756363656564a2646970667358221220fa5efa98cb2c460599a19b25c713f753fd415d6b6233e4ff3ab2277ba05406b364736f6c634300060c0033",
  "immutableReferences": {},
  "source": "pragma solidity 0.6.12;\r\n\r\nimport \"@openzeppelin/contracts/access/Ownable.sol\";\r\nimport \"@openzeppelin/contracts/utils/ReentrancyGuard.sol\";\r\nimport \"@openzeppelin/contracts/math/SafeMath.sol\";\r\nimport \"@openzeppelin/contracts/token/ERC20/SafeERC20.sol\";\r\nimport \"@openzeppelin/contracts/token/ERC20/ERC20.sol\";\r\nimport \"./Pausable.sol\";\r\nimport \"./Whitelist.sol\";\r\nimport \"./interfaces/IidoMaster.sol\";\r\nimport \"./interfaces/ITierSystem.sol\";\r\n\r\n contract IDOPool is Ownable, Pausable, Whitelist, ReentrancyGuard  {\r\n    using SafeMath for uint256;\r\n    using SafeERC20 for ERC20;\r\n\r\n    uint256 public tokenPrice;\r\n    ERC20 public rewardToken;\r\n    uint256 public decimals;\r\n    uint256 public startTimestamp;\r\n    uint256 public finishTimestamp;\r\n    uint256 public startClaimTimestamp;\r\n    uint256 public minEthPayment;\r\n    uint256 public maxEthPayment;\r\n    uint256 public maxDistributedTokenAmount;\r\n    uint256 public tokensForDistribution;\r\n    uint256 public distributedTokens;\r\n\r\n\r\n    ITierSystem  public  tierSystem;\r\n    IidoMaster  public  idoMaster;\r\n    uint256 public feeFundsPercent;\r\n    bool public enableTierSystem;\r\n\r\n    struct UserInfo {\r\n        uint debt;\r\n        uint total;\r\n        uint totalInvestedETH;\r\n    }\r\n\r\n    mapping(address => UserInfo) public userInfo;\r\n\r\n    event TokensDebt(\r\n        address indexed holder,\r\n        uint256 ethAmount,\r\n        uint256 tokenAmount\r\n    );\r\n    \r\n    event TokensWithdrawn(address indexed holder, uint256 amount);\r\n    event HasWhitelistingUpdated(bool newValue);\r\n    event EnableTierSystemUpdated(bool newValue);\r\n    event FundsWithdrawn(uint256 amount);\r\n    event FundsFeeWithdrawn(uint256 amount);\r\n    event NotSoldWithdrawn(uint256 amount);\r\n\r\n    uint256 public vestingPercent;\r\n    uint256 public vestingStart;\r\n    uint256 public vestingInterval;\r\n    uint256 public vestingDuration;\r\n\r\n    event VestingUpdated(uint256 _vestingPercent,\r\n                    uint256 _vestingStart,\r\n                    uint256 _vestingInterval,\r\n                    uint256 _vestingDuration);\r\n    event VestingCreated(address indexed holder, uint256 amount);\r\n    event VestingReleased(uint256 amount);\r\n\r\n    struct Vesting {\r\n        uint256 balance;\r\n        uint256 released;\r\n    }\r\n\r\n    mapping (address => Vesting) private _vestings;\r\n\r\n    constructor(\r\n        IidoMaster _idoMaster,\r\n        uint256 _feeFundsPercent, \r\n        uint256 _tokenPrice,\r\n        ERC20 _rewardToken,\r\n        uint256 _startTimestamp,\r\n        uint256 _finishTimestamp,\r\n        uint256 _startClaimTimestamp,\r\n        uint256 _minEthPayment,\r\n        uint256 _maxEthPayment,\r\n        uint256 _maxDistributedTokenAmount,\r\n        bool _hasWhitelisting,\r\n        bool _enableTierSystem,\r\n        ITierSystem _tierSystem\r\n        \r\n    ) public Whitelist(_hasWhitelisting) {\r\n        idoMaster = _idoMaster;\r\n        feeFundsPercent = _feeFundsPercent;\r\n        tokenPrice = _tokenPrice;\r\n        rewardToken = _rewardToken;\r\n        decimals = rewardToken.decimals();\r\n\r\n        require( _startTimestamp < _finishTimestamp,  \"Start must be less than finish\");\r\n        require( _finishTimestamp > now, \"Finish must be more than now\");\r\n        \r\n        startTimestamp = _startTimestamp;\r\n        finishTimestamp = _finishTimestamp;\r\n        startClaimTimestamp = _startClaimTimestamp;\r\n        minEthPayment = _minEthPayment;\r\n        maxEthPayment = _maxEthPayment;\r\n        maxDistributedTokenAmount = _maxDistributedTokenAmount;\r\n        enableTierSystem = _enableTierSystem;\r\n        tierSystem = _tierSystem;\r\n    }\r\n\r\n\r\n  function setVesting(uint256 _vestingPercent,\r\n                    uint256 _vestingStart,\r\n                    uint256 _vestingInterval,\r\n                    uint256 _vestingDuration) external onlyOwner {\r\n\r\n        require(now < startTimestamp, \"Already started\");\r\n\r\n        require(_vestingPercent <= 100, \"Vesting percent must be <= 100\");\r\n        if(_vestingPercent > 0)\r\n        {\r\n            require(_vestingInterval > 0 , \"interval must be greater than 0\");\r\n            require(_vestingDuration >= _vestingInterval, \"interval cannot be bigger than duration\");\r\n        }\r\n\r\n        vestingPercent = _vestingPercent;\r\n        vestingStart = _vestingStart;\r\n        vestingInterval = _vestingInterval;\r\n        vestingDuration = _vestingDuration;\r\n\r\n        emit VestingUpdated(vestingPercent,\r\n                            vestingStart,\r\n                            vestingInterval,\r\n                            vestingDuration);\r\n    }\r\n\r\n\r\n    function pay() payable external nonReentrant onlyWhitelisted whenNotPaused{\r\n        require(msg.value >= minEthPayment, \"Less then min amount\");\r\n        require(now >= startTimestamp, \"Not started\");\r\n        require(now < finishTimestamp, \"Ended\");\r\n        \r\n        uint256 tokenAmount = getTokenAmount(msg.value);\r\n        require(tokensForDistribution.add(tokenAmount) <= maxDistributedTokenAmount, \"Overfilled\");\r\n\r\n        UserInfo storage user = userInfo[msg.sender];\r\n\r\n        if(enableTierSystem){\r\n            require(user.totalInvestedETH.add(msg.value) <= tierSystem.getMaxEthPayment(msg.sender, maxEthPayment), \"More then max amount\");\r\n        }\r\n        else{\r\n            require(user.totalInvestedETH.add(msg.value) <= maxEthPayment, \"More then max amount\");\r\n        }\r\n\r\n        tokensForDistribution = tokensForDistribution.add(tokenAmount);\r\n        user.totalInvestedETH = user.totalInvestedETH.add(msg.value);\r\n        user.total = user.total.add(tokenAmount);\r\n        user.debt = user.debt.add(tokenAmount);\r\n        \r\n        emit TokensDebt(msg.sender, msg.value, tokenAmount);\r\n    }\r\n\r\n    function getTokenAmount(uint256 ethAmount)\r\n        internal\r\n        view\r\n        returns (uint256)\r\n    {\r\n        return ethAmount.mul(10**decimals).div(tokenPrice);\r\n    }\r\n\r\n\r\n    /// @dev Allows to claim tokens for the specific user.\r\n    /// @param _addresses Token receivers.\r\n    function claimFor(address[] memory _addresses) external whenNotPaused{\r\n         for (uint i = 0; i < _addresses.length; i++) {\r\n            proccessClaim(_addresses[i]);\r\n        }\r\n    }\r\n\r\n    /// @dev Allows to claim tokens for themselves.\r\n    function claim() external whenNotPaused{\r\n        proccessClaim(msg.sender);\r\n    }\r\n\r\n    /// @dev Proccess the claim.\r\n    /// @param _receiver Token receiver.\r\n    function proccessClaim(\r\n        address _receiver\r\n    ) internal nonReentrant{\r\n        require(now > startClaimTimestamp, \"Distribution not started\");\r\n        UserInfo storage user = userInfo[_receiver];\r\n        uint256 _amount = user.debt;\r\n        if (_amount > 0) {\r\n            user.debt = 0;            \r\n            distributedTokens = distributedTokens.add(_amount);\r\n\r\n            if(vestingPercent > 0)\r\n            {   \r\n                uint256 vestingAmount = _amount.mul(vestingPercent).div(100);\r\n                createVesting(_receiver, vestingAmount);\r\n                _amount = _amount.sub(vestingAmount);\r\n            }\r\n\r\n            rewardToken.safeTransfer(_receiver, _amount);\r\n            emit TokensWithdrawn(_receiver,_amount);\r\n        }\r\n    }\r\n\r\n    function setHasWhitelisting(bool value) external onlyOwner{\r\n        hasWhitelisting = value;\r\n        emit HasWhitelistingUpdated(hasWhitelisting);\r\n    } \r\n\r\n    function setEnableTierSystem(bool value) external onlyOwner{\r\n        enableTierSystem = value;\r\n        emit EnableTierSystemUpdated(enableTierSystem);\r\n    } \r\n\r\n    function setTierSystem(ITierSystem _tierSystem) external onlyOwner {    \r\n        tierSystem = _tierSystem;\r\n    }\r\n\r\n    function withdrawFunds() external onlyOwner nonReentrant{\r\n        if(feeFundsPercent>0){\r\n            uint256 feeAmount = address(this).balance.mul(feeFundsPercent).div(100);\r\n            idoMaster.feeWallet().transfer(feeAmount); /* Fee Address */\r\n            emit FundsFeeWithdrawn(feeAmount);\r\n        }\r\n        uint256 amount = address(this).balance;\r\n        msg.sender.transfer(amount);\r\n        emit FundsWithdrawn(amount);\r\n    } \r\n     \r\n\r\n    function withdrawNotSoldTokens() external onlyOwner nonReentrant{\r\n        require(now > finishTimestamp, \"Allow after finish time\");\r\n        uint256 amount = rewardToken.balanceOf(address(this)).add(distributedTokens).sub(tokensForDistribution);\r\n        rewardToken.safeTransfer(msg.sender, amount);\r\n        emit NotSoldWithdrawn(amount);\r\n    }\r\n\r\n    function getVesting(address beneficiary) public view returns (uint256, uint256) {\r\n        Vesting memory v = _vestings[beneficiary];\r\n        return (v.balance, v.released);\r\n    }\r\n\r\n    function createVesting(\r\n        address beneficiary,\r\n        uint256 amount\r\n    ) private {\r\n        Vesting storage vest = _vestings[beneficiary];\r\n        require(vest.balance == 0, \"Vesting already created\");\r\n\r\n        vest.balance = amount;\r\n        //TODO: default is 0\r\n        // vest.released = uint256(0);\r\n\r\n        emit VestingCreated(beneficiary, amount);\r\n    }\r\n\r\n     function release(address beneficiary) external nonReentrant {\r\n        uint256 unreleased = releasableAmount(beneficiary);\r\n        require(unreleased > 0, \"Nothing to release\");\r\n\r\n        Vesting storage vest = _vestings[beneficiary];\r\n\r\n        vest.released = vest.released.add(unreleased);\r\n        vest.balance = vest.balance.sub(unreleased);\r\n\r\n        rewardToken.safeTransfer(beneficiary, unreleased);\r\n        emit VestingReleased(unreleased);\r\n    }\r\n\r\n    function releasableAmount(address beneficiary) public view returns (uint256) {\r\n        return vestedAmount(beneficiary).sub(_vestings[beneficiary].released);\r\n    }\r\n\r\n    function vestedAmount(address beneficiary) public view returns (uint256) {\r\n        if (block.timestamp < vestingStart) {\r\n            return 0;\r\n        }\r\n\r\n        Vesting memory vest = _vestings[beneficiary];\r\n        uint256 currentBalance = vest.balance;\r\n        uint256 totalBalance = currentBalance.add(vest.released);\r\n\r\n        if (block.timestamp >= vestingStart.add(vestingDuration)) {\r\n            return totalBalance;\r\n        } else {\r\n            uint256 numberOfInvervals = block.timestamp.sub(vestingStart).div(vestingInterval);\r\n            uint256 totalIntervals = vestingDuration.div(vestingInterval);\r\n            return totalBalance.mul(numberOfInvervals).div(totalIntervals);\r\n        }\r\n    }\r\n\r\n}\r\n",
  "sourcePath": "D:\\Projects\\TosDisFinance\\StakeMaster\\contracts\\IDOPool.sol",
  "compiler": {
    "name": "solc",
    "version": "0.6.12+commit.27d51765.Emscripten.clang"
  },
  "schemaVersion": "3.4.0",
  "updatedAt": "2021-06-02T11:07:10.545Z",
  "devdoc": {
    "kind": "dev",
    "methods": {
      "claim()": {
        "details": "Allows to claim tokens for themselves."
      },
      "claimFor(address[])": {
        "details": "Allows to claim tokens for the specific user.",
        "params": {
          "_addresses": "Token receivers."
        }
      },
      "owner()": {
        "details": "Returns the address of the current owner."
      },
      "pause()": {
        "details": "called by the owner to pause, triggers stopped state"
      },
      "renounceOwnership()": {
        "details": "Leaves the contract without owner. It will not be possible to call `onlyOwner` functions anymore. Can only be called by the current owner. NOTE: Renouncing ownership will leave the contract without an owner, thereby removing any functionality that is only available to the owner."
      },
      "transferOwnership(address)": {
        "details": "Transfers ownership of the contract to a new account (`newOwner`). Can only be called by the current owner."
      },
      "unpause()": {
        "details": "called by the owner to unpause, returns to normal state"
      }
    },
    "version": 1
  },
  "userdoc": {
    "kind": "user",
    "methods": {},
    "version": 1
  }
}