{
  "contractName": "StakingPool",
  "abi": [
    {
      "inputs": [
        {
          "internalType": "address",
          "name": "_stakingToken",
          "type": "address"
        },
        {
          "internalType": "address",
          "name": "_poolToken",
          "type": "address"
        },
        {
          "internalType": "uint256",
          "name": "_startBlock",
          "type": "uint256"
        },
        {
          "internalType": "uint256",
          "name": "_finishBlock",
          "type": "uint256"
        },
        {
          "internalType": "uint256",
          "name": "_poolTokenAmount",
          "type": "uint256"
        }
      ],
      "stateMutability": "nonpayable",
      "type": "constructor"
    },
    {
      "anonymous": false,
      "inputs": [
        {
          "indexed": true,
          "internalType": "address",
          "name": "user",
          "type": "address"
        },
        {
          "indexed": false,
          "internalType": "uint256",
          "name": "amount",
          "type": "uint256"
        }
      ],
      "name": "EmergencyWithdraw",
      "type": "event"
    },
    {
      "anonymous": false,
      "inputs": [
        {
          "indexed": false,
          "internalType": "uint256",
          "name": "_newFinishBlock",
          "type": "uint256"
        }
      ],
      "name": "FinishBlockUpdated",
      "type": "event"
    },
    {
      "anonymous": false,
      "inputs": [
        {
          "indexed": true,
          "internalType": "address",
          "name": "previousOwner",
          "type": "address"
        },
        {
          "indexed": true,
          "internalType": "address",
          "name": "newOwner",
          "type": "address"
        }
      ],
      "name": "OwnershipTransferred",
      "type": "event"
    },
    {
      "anonymous": false,
      "inputs": [
        {
          "indexed": false,
          "internalType": "uint256",
          "name": "amount",
          "type": "uint256"
        }
      ],
      "name": "PoolReplenished",
      "type": "event"
    },
    {
      "anonymous": false,
      "inputs": [
        {
          "indexed": false,
          "internalType": "address",
          "name": "stakeholder",
          "type": "address"
        },
        {
          "indexed": false,
          "internalType": "uint256",
          "name": "amount",
          "type": "uint256"
        },
        {
          "indexed": false,
          "internalType": "uint256",
          "name": "reward",
          "type": "uint256"
        }
      ],
      "name": "StakeWithdrawn",
      "type": "event"
    },
    {
      "anonymous": false,
      "inputs": [
        {
          "indexed": false,
          "internalType": "address",
          "name": "stakeholder",
          "type": "address"
        },
        {
          "indexed": false,
          "internalType": "uint256",
          "name": "amount",
          "type": "uint256"
        },
        {
          "indexed": false,
          "internalType": "uint256",
          "name": "sharesAchived",
          "type": "uint256"
        }
      ],
      "name": "TokensStaked",
      "type": "event"
    },
    {
      "inputs": [],
      "name": "accTokensPerShare",
      "outputs": [
        {
          "internalType": "uint256",
          "name": "",
          "type": "uint256"
        }
      ],
      "stateMutability": "view",
      "type": "function",
      "constant": true
    },
    {
      "inputs": [],
      "name": "finishBlock",
      "outputs": [
        {
          "internalType": "uint256",
          "name": "",
          "type": "uint256"
        }
      ],
      "stateMutability": "view",
      "type": "function",
      "constant": true
    },
    {
      "inputs": [],
      "name": "lastRewardBlock",
      "outputs": [
        {
          "internalType": "uint256",
          "name": "",
          "type": "uint256"
        }
      ],
      "stateMutability": "view",
      "type": "function",
      "constant": true
    },
    {
      "inputs": [],
      "name": "owner",
      "outputs": [
        {
          "internalType": "address",
          "name": "",
          "type": "address"
        }
      ],
      "stateMutability": "view",
      "type": "function",
      "constant": true
    },
    {
      "inputs": [],
      "name": "renounceOwnership",
      "outputs": [],
      "stateMutability": "nonpayable",
      "type": "function"
    },
    {
      "inputs": [
        {
          "internalType": "address",
          "name": "",
          "type": "address"
        }
      ],
      "name": "rewardDebts",
      "outputs": [
        {
          "internalType": "uint256",
          "name": "",
          "type": "uint256"
        }
      ],
      "stateMutability": "view",
      "type": "function",
      "constant": true
    },
    {
      "inputs": [],
      "name": "rewardPerBlock",
      "outputs": [
        {
          "internalType": "uint256",
          "name": "",
          "type": "uint256"
        }
      ],
      "stateMutability": "view",
      "type": "function",
      "constant": true
    },
    {
      "inputs": [],
      "name": "rewardToken",
      "outputs": [
        {
          "internalType": "contract IERC20",
          "name": "",
          "type": "address"
        }
      ],
      "stateMutability": "view",
      "type": "function",
      "constant": true
    },
    {
      "inputs": [
        {
          "internalType": "address",
          "name": "",
          "type": "address"
        }
      ],
      "name": "stakes",
      "outputs": [
        {
          "internalType": "uint256",
          "name": "",
          "type": "uint256"
        }
      ],
      "stateMutability": "view",
      "type": "function",
      "constant": true
    },
    {
      "inputs": [],
      "name": "stakingToken",
      "outputs": [
        {
          "internalType": "contract IERC20",
          "name": "",
          "type": "address"
        }
      ],
      "stateMutability": "view",
      "type": "function",
      "constant": true
    },
    {
      "inputs": [],
      "name": "startBlock",
      "outputs": [
        {
          "internalType": "uint256",
          "name": "",
          "type": "uint256"
        }
      ],
      "stateMutability": "view",
      "type": "function",
      "constant": true
    },
    {
      "inputs": [],
      "name": "totalShares",
      "outputs": [
        {
          "internalType": "uint256",
          "name": "",
          "type": "uint256"
        }
      ],
      "stateMutability": "view",
      "type": "function",
      "constant": true
    },
    {
      "inputs": [
        {
          "internalType": "address",
          "name": "newOwner",
          "type": "address"
        }
      ],
      "name": "transferOwnership",
      "outputs": [],
      "stateMutability": "nonpayable",
      "type": "function"
    },
    {
      "inputs": [
        {
          "internalType": "address",
          "name": "_user",
          "type": "address"
        }
      ],
      "name": "pendingReward",
      "outputs": [
        {
          "internalType": "uint256",
          "name": "",
          "type": "uint256"
        }
      ],
      "stateMutability": "view",
      "type": "function",
      "constant": true
    },
    {
      "inputs": [],
      "name": "updatePool",
      "outputs": [],
      "stateMutability": "nonpayable",
      "type": "function"
    },
    {
      "inputs": [
        {
          "internalType": "uint256",
          "name": "_amountToStake",
          "type": "uint256"
        }
      ],
      "name": "stakeTokens",
      "outputs": [],
      "stateMutability": "nonpayable",
      "type": "function"
    },
    {
      "inputs": [
        {
          "internalType": "uint256",
          "name": "_stakeAmount",
          "type": "uint256"
        }
      ],
      "name": "withdrawStake",
      "outputs": [],
      "stateMutability": "nonpayable",
      "type": "function"
    },
    {
      "inputs": [],
      "name": "emergencyWithdraw",
      "outputs": [],
      "stateMutability": "nonpayable",
      "type": "function"
    },
    {
      "inputs": [
        {
          "internalType": "uint256",
          "name": "_amount",
          "type": "uint256"
        }
      ],
      "name": "emergencyRewardWithdraw",
      "outputs": [],
      "stateMutability": "nonpayable",
      "type": "function"
    },
    {
      "inputs": [
        {
          "internalType": "uint256",
          "name": "_newFinishBlock",
          "type": "uint256"
        }
      ],
      "name": "setFinishBlock",
      "outputs": [],
      "stateMutability": "nonpayable",
      "type": "function"
    },
    {
      "inputs": [
        {
          "internalType": "uint256",
          "name": "_topUpAmount",
          "type": "uint256"
        }
      ],
      "name": "topUpStakingPool",
      "outputs": [],
      "stateMutability": "nonpayable",
      "type": "function"
    }
  ],
  "bytecode": "0x60806040523480156200001157600080fd5b5060405162002acb38038062002acb833981810160405260a08110156200003757600080fd5b810190808051906020019092919080519060200190929190805190602001909291908051906020019092919080519060200190929190505050600062000082620002b860201b60201c565b9050806000806101000a81548173ffffffffffffffffffffffffffffffffffffffff021916908373ffffffffffffffffffffffffffffffffffffffff1602179055508073ffffffffffffffffffffffffffffffffffffffff16600073ffffffffffffffffffffffffffffffffffffffff167f8be0079c531659141344cd1fd0a4f28419497f9722a3daafe3b4186f6b6457e060405160405180910390a3506001808190555084600260006101000a81548173ffffffffffffffffffffffffffffffffffffffff021916908373ffffffffffffffffffffffffffffffffffffffff16021790555083600360006101000a81548173ffffffffffffffffffffffffffffffffffffffff021916908373ffffffffffffffffffffffffffffffffffffffff16021790555081831062000203576040517f08c379a000000000000000000000000000000000000000000000000000000000815260040180806020018281038252602a81526020018062002a75602a913960400191505060405180910390fd5b4382116200025d576040517f08c379a000000000000000000000000000000000000000000000000000000000815260040180806020018281038252602c81526020018062002a9f602c913960400191505060405180910390fd5b8260048190555060045460058190555081600681905550620002a7620002928484620002c060201b62001ae51790919060201c565b826200031260201b62001b2f1790919060201c565b6008819055505050505050620004f3565b600033905090565b60006200030a83836040518060400160405280601e81526020017f536166654d6174683a207375627472616374696f6e206f766572666c6f7700008152506200036460201b60201c565b905092915050565b60006200035c83836040518060400160405280601a81526020017f536166654d6174683a206469766973696f6e206279207a65726f0000000000008152506200042860201b60201c565b905092915050565b600083831115829062000415576040517f08c379a00000000000000000000000000000000000000000000000000000000081526004018080602001828103825283818151815260200191508051906020019080838360005b83811015620003d9578082015181840152602081019050620003bc565b50505050905090810190601f168015620004075780820380516001836020036101000a031916815260200191505b509250505060405180910390fd5b5060008385039050809150509392505050565b60008083118290620004d8576040517f08c379a00000000000000000000000000000000000000000000000000000000081526004018080602001828103825283818151815260200191508051906020019080838360005b838110156200049c5780820151818401526020810190506200047f565b50505050905090810190601f168015620004ca5780820380516001836020036101000a031916815260200191505b509250505060405180910390fd5b506000838581620004e557fe5b049050809150509392505050565b61257280620005036000396000f3fe608060405234801561001057600080fd5b50600436106101375760003560e01c806372f702f3116100b8578063a9f8d1811161007c578063a9f8d181146103da578063db2e21bc146103f8578063e3161ddd14610402578063f2fde38b1461040c578063f40f0f5214610450578063f7c618c1146104a857610137565b806372f702f3146102f857806372fce0631461032c5780637547c7a31461035a5780638ae39cac146103885780638da5cb5b146103a657610137565b80633a98ef39116100ff5780633a98ef391461026657806348cd4cb1146102845780634ed474d7146102a257806357ab6cdb146102c0578063715018a6146102ee57610137565b80630ea040d01461013c57806316934fc41461019457806325d5971f146101ec5780632f3c9a4f1461021a5780633279beab14610238575b600080fd5b61017e6004803603602081101561015257600080fd5b81019080803573ffffffffffffffffffffffffffffffffffffffff1690602001909291905050506104dc565b6040518082815260200191505060405180910390f35b6101d6600480360360208110156101aa57600080fd5b81019080803573ffffffffffffffffffffffffffffffffffffffff1690602001909291905050506104f4565b6040518082815260200191505060405180910390f35b6102186004803603602081101561020257600080fd5b810190808035906020019092919050505061050c565b005b610222610858565b6040518082815260200191505060405180910390f35b6102646004803603602081101561024e57600080fd5b810190808035906020019092919050505061085e565b005b61026e610aaf565b6040518082815260200191505060405180910390f35b61028c610ab5565b6040518082815260200191505060405180910390f35b6102aa610abb565b6040518082815260200191505060405180910390f35b6102ec600480360360208110156102d657600080fd5b8101908080359060200190929190505050610ac1565b005b6102f6610d04565b005b610300610e8a565b604051808273ffffffffffffffffffffffffffffffffffffffff16815260200191505060405180910390f35b6103586004803603602081101561034257600080fd5b8101908080359060200190929190505050610eb0565b005b6103866004803603602081101561037057600080fd5b8101908080359060200190929190505050611105565b005b61039061135e565b6040518082815260200191505060405180910390f35b6103ae611364565b604051808273ffffffffffffffffffffffffffffffffffffffff16815260200191505060405180910390f35b6103e261138d565b6040518082815260200191505060405180910390f35b610400611393565b005b61040a611538565b005b61044e6004803603602081101561042257600080fd5b81019080803573ffffffffffffffffffffffffffffffffffffffff16906020019092919050505061169e565b005b6104926004803603602081101561046657600080fd5b81019080803573ffffffffffffffffffffffffffffffffffffffff1690602001909291905050506118a9565b6040518082815260200191505060405180910390f35b6104b0611abf565b604051808273ffffffffffffffffffffffffffffffffffffffff16815260200191505060405180910390f35b600b6020528060005260406000206000915090505481565b600a6020528060005260406000206000915090505481565b60026001541415610585576040517f08c379a000000000000000000000000000000000000000000000000000000000815260040180806020018281038252601f8152602001807f5265656e7472616e637947756172643a207265656e7472616e742063616c6c0081525060200191505060405180910390fd5b600260018190555080600a60003373ffffffffffffffffffffffffffffffffffffffff1673ffffffffffffffffffffffffffffffffffffffff168152602001908152602001600020541015610642576040517f08c379a00000000000000000000000000000000000000000000000000000000081526004018080602001828103825260128152602001807f77697468647261773a206e6f7420676f6f64000000000000000000000000000081525060200191505060405180910390fd5b61064a611538565b6000610654611b79565b90506000821115610742576106b182600a60003373ffffffffffffffffffffffffffffffffffffffff1673ffffffffffffffffffffffffffffffffffffffff16815260200190815260200160002054611ae590919063ffffffff16565b600a60003373ffffffffffffffffffffffffffffffffffffffff1673ffffffffffffffffffffffffffffffffffffffff168152602001908152602001600020819055506107413383600260009054906101000a900473ffffffffffffffffffffffffffffffffffffffff1673ffffffffffffffffffffffffffffffffffffffff16611c989092919063ffffffff16565b5b6107ad64e8d4a5100061079f600954600a60003373ffffffffffffffffffffffffffffffffffffffff1673ffffffffffffffffffffffffffffffffffffffff16815260200190815260200160002054611d3a90919063ffffffff16565b611b2f90919063ffffffff16565b600b60003373ffffffffffffffffffffffffffffffffffffffff1673ffffffffffffffffffffffffffffffffffffffff168152602001908152602001600020819055507f933735aa8de6d7547d0126171b2f31b9c34dd00f3ecd4be85a0ba047db4fafef338383604051808473ffffffffffffffffffffffffffffffffffffffff168152602001838152602001828152602001935050505060405180910390a1506001808190555050565b60095481565b610866611dc0565b73ffffffffffffffffffffffffffffffffffffffff1660008054906101000a900473ffffffffffffffffffffffffffffffffffffffff1673ffffffffffffffffffffffffffffffffffffffff1614610926576040517f08c379a00000000000000000000000000000000000000000000000000000000081526004018080602001828103825260208152602001807f4f776e61626c653a2063616c6c6572206973206e6f7420746865206f776e657281525060200191505060405180910390fd5b600360009054906101000a900473ffffffffffffffffffffffffffffffffffffffff1673ffffffffffffffffffffffffffffffffffffffff166370a08231306040518263ffffffff1660e01b8152600401808273ffffffffffffffffffffffffffffffffffffffff16815260200191505060206040518083038186803b1580156109af57600080fd5b505afa1580156109c3573d6000803e3d6000fd5b505050506040513d60208110156109d957600080fd5b8101908080519060200190929190505050811115610a5f576040517f08c379a00000000000000000000000000000000000000000000000000000000081526004018080602001828103825260108152602001807f6e6f7420656e6f75676820746f6b656e0000000000000000000000000000000081525060200191505060405180910390fd5b610aac3382600360009054906101000a900473ffffffffffffffffffffffffffffffffffffffff1673ffffffffffffffffffffffffffffffffffffffff16611c989092919063ffffffff16565b50565b60075481565b60045481565b60065481565b610ac9611dc0565b73ffffffffffffffffffffffffffffffffffffffff1660008054906101000a900473ffffffffffffffffffffffffffffffffffffffff1673ffffffffffffffffffffffffffffffffffffffff1614610b89576040517f08c379a00000000000000000000000000000000000000000000000000000000081526004018080602001828103825260208152602001807f4f776e61626c653a2063616c6c6572206973206e6f7420746865206f776e657281525060200191505060405180910390fd5b610bd8333083600360009054906101000a900473ffffffffffffffffffffffffffffffffffffffff1673ffffffffffffffffffffffffffffffffffffffff16611dc8909392919063ffffffff16565b610cc4610bf2600554600654611ae590919063ffffffff16565b600360009054906101000a900473ffffffffffffffffffffffffffffffffffffffff1673ffffffffffffffffffffffffffffffffffffffff166370a08231306040518263ffffffff1660e01b8152600401808273ffffffffffffffffffffffffffffffffffffffff16815260200191505060206040518083038186803b158015610c7b57600080fd5b505afa158015610c8f573d6000803e3d6000fd5b505050506040513d6020811015610ca557600080fd5b8101908080519060200190929190505050611b2f90919063ffffffff16565b6008819055507fed75cd44c6895cb1c6ca1e0e6c7cdbad566f26831cbde55fc36e622a83467d1c816040518082815260200191505060405180910390a150565b610d0c611dc0565b73ffffffffffffffffffffffffffffffffffffffff1660008054906101000a900473ffffffffffffffffffffffffffffffffffffffff1673ffffffffffffffffffffffffffffffffffffffff1614610dcc576040517f08c379a00000000000000000000000000000000000000000000000000000000081526004018080602001828103825260208152602001807f4f776e61626c653a2063616c6c6572206973206e6f7420746865206f776e657281525060200191505060405180910390fd5b600073ffffffffffffffffffffffffffffffffffffffff1660008054906101000a900473ffffffffffffffffffffffffffffffffffffffff1673ffffffffffffffffffffffffffffffffffffffff167f8be0079c531659141344cd1fd0a4f28419497f9722a3daafe3b4186f6b6457e060405160405180910390a360008060006101000a81548173ffffffffffffffffffffffffffffffffffffffff021916908373ffffffffffffffffffffffffffffffffffffffff160217905550565b600260009054906101000a900473ffffffffffffffffffffffffffffffffffffffff1681565b610eb8611dc0565b73ffffffffffffffffffffffffffffffffffffffff1660008054906101000a900473ffffffffffffffffffffffffffffffffffffffff1673ffffffffffffffffffffffffffffffffffffffff1614610f78576040517f08c379a00000000000000000000000000000000000000000000000000000000081526004018080602001828103825260208152602001807f4f776e61626c653a2063616c6c6572206973206e6f7420746865206f776e657281525060200191505060405180910390fd5b6006548111610fd2576040517f08c379a000000000000000000000000000000000000000000000000000000000815260040180806020018281038252602a8152602001806124e9602a913960400191505060405180910390fd5b806006819055506110c5610ff3600554600654611ae590919063ffffffff16565b600360009054906101000a900473ffffffffffffffffffffffffffffffffffffffff1673ffffffffffffffffffffffffffffffffffffffff166370a08231306040518263ffffffff1660e01b8152600401808273ffffffffffffffffffffffffffffffffffffffff16815260200191505060206040518083038186803b15801561107c57600080fd5b505afa158015611090573d6000803e3d6000fd5b505050506040513d60208110156110a657600080fd5b8101908080519060200190929190505050611b2f90919063ffffffff16565b6008819055507f657a479db79e01457970a35d6018e9f4a01ec5e349ece8f24d30e72ba6aaa1b5816040518082815260200191505060405180910390a150565b61110d611538565b600080600a60003373ffffffffffffffffffffffffffffffffffffffff1673ffffffffffffffffffffffffffffffffffffffff1681526020019081526020016000205411156111615761115e611b79565b90505b600082111561124f576111b9333084600260009054906101000a900473ffffffffffffffffffffffffffffffffffffffff1673ffffffffffffffffffffffffffffffffffffffff16611dc8909392919063ffffffff16565b61120b82600a60003373ffffffffffffffffffffffffffffffffffffffff1673ffffffffffffffffffffffffffffffffffffffff16815260200190815260200160002054611e8990919063ffffffff16565b600a60003373ffffffffffffffffffffffffffffffffffffffff1673ffffffffffffffffffffffffffffffffffffffff168152602001908152602001600020819055505b6112ba64e8d4a510006112ac600954600a60003373ffffffffffffffffffffffffffffffffffffffff1673ffffffffffffffffffffffffffffffffffffffff16815260200190815260200160002054611d3a90919063ffffffff16565b611b2f90919063ffffffff16565b600b60003373ffffffffffffffffffffffffffffffffffffffff1673ffffffffffffffffffffffffffffffffffffffff168152602001908152602001600020819055507fdd2a19c3bdd089cbe77c04f5655f83de0504d6140d12c8667646f55d0557c4dc338383604051808473ffffffffffffffffffffffffffffffffffffffff168152602001838152602001828152602001935050505060405180910390a15050565b60085481565b60008060009054906101000a900473ffffffffffffffffffffffffffffffffffffffff16905090565b60055481565b61141f33600a60003373ffffffffffffffffffffffffffffffffffffffff1673ffffffffffffffffffffffffffffffffffffffff16815260200190815260200160002054600260009054906101000a900473ffffffffffffffffffffffffffffffffffffffff1673ffffffffffffffffffffffffffffffffffffffff16611c989092919063ffffffff16565b3373ffffffffffffffffffffffffffffffffffffffff167f5fafa99d0643513820be26656b45130b01e1c03062e1266bf36f88cbd3bd9695600a60003373ffffffffffffffffffffffffffffffffffffffff1673ffffffffffffffffffffffffffffffffffffffff168152602001908152602001600020546040518082815260200191505060405180910390a26000600a60003373ffffffffffffffffffffffffffffffffffffffff1673ffffffffffffffffffffffffffffffffffffffff168152602001908152602001600020819055506000600b60003373ffffffffffffffffffffffffffffffffffffffff1673ffffffffffffffffffffffffffffffffffffffff16815260200190815260200160002081905550565b60055443116115465761169c565b6000600260009054906101000a900473ffffffffffffffffffffffffffffffffffffffff1673ffffffffffffffffffffffffffffffffffffffff166370a08231306040518263ffffffff1660e01b8152600401808273ffffffffffffffffffffffffffffffffffffffff16815260200191505060206040518083038186803b1580156115d157600080fd5b505afa1580156115e5573d6000803e3d6000fd5b505050506040513d60208110156115fb57600080fd5b81019080805190602001909291905050509050600081141561162457436005819055505061169c565b600061163260055443611f11565b9050600061164b60085483611d3a90919063ffffffff16565b905061168b61167a8461166c64e8d4a5100085611d3a90919063ffffffff16565b611b2f90919063ffffffff16565b600954611e8990919063ffffffff16565b600981905550436005819055505050505b565b6116a6611dc0565b73ffffffffffffffffffffffffffffffffffffffff1660008054906101000a900473ffffffffffffffffffffffffffffffffffffffff1673ffffffffffffffffffffffffffffffffffffffff1614611766576040517f08c379a00000000000000000000000000000000000000000000000000000000081526004018080602001828103825260208152602001807f4f776e61626c653a2063616c6c6572206973206e6f7420746865206f776e657281525060200191505060405180910390fd5b600073ffffffffffffffffffffffffffffffffffffffff168173ffffffffffffffffffffffffffffffffffffffff1614156117ec576040517f08c379a000000000000000000000000000000000000000000000000000000000815260040180806020018281038252602681526020018061247c6026913960400191505060405180910390fd5b8073ffffffffffffffffffffffffffffffffffffffff1660008054906101000a900473ffffffffffffffffffffffffffffffffffffffff1673ffffffffffffffffffffffffffffffffffffffff167f8be0079c531659141344cd1fd0a4f28419497f9722a3daafe3b4186f6b6457e060405160405180910390a3806000806101000a81548173ffffffffffffffffffffffffffffffffffffffff021916908373ffffffffffffffffffffffffffffffffffffffff16021790555050565b600080600260009054906101000a900473ffffffffffffffffffffffffffffffffffffffff1673ffffffffffffffffffffffffffffffffffffffff166370a08231306040518263ffffffff1660e01b8152600401808273ffffffffffffffffffffffffffffffffffffffff16815260200191505060206040518083038186803b15801561193557600080fd5b505afa158015611949573d6000803e3d6000fd5b505050506040513d602081101561195f57600080fd5b81019080805190602001909291905050509050600060095490506005544311801561198b575060008214155b156119fc57600061199e60055443611f11565b905060006119b760085483611d3a90919063ffffffff16565b90506119f76119e6856119d864e8d4a5100085611d3a90919063ffffffff16565b611b2f90919063ffffffff16565b600954611e8990919063ffffffff16565b925050505b611ab6600b60008673ffffffffffffffffffffffffffffffffffffffff1673ffffffffffffffffffffffffffffffffffffffff16815260200190815260200160002054611aa864e8d4a51000611a9a85600a60008b73ffffffffffffffffffffffffffffffffffffffff1673ffffffffffffffffffffffffffffffffffffffff16815260200190815260200160002054611d3a90919063ffffffff16565b611b2f90919063ffffffff16565b611ae590919063ffffffff16565b92505050919050565b600360009054906101000a900473ffffffffffffffffffffffffffffffffffffffff1681565b6000611b2783836040518060400160405280601e81526020017f536166654d6174683a207375627472616374696f6e206f766572666c6f770000815250611f66565b905092915050565b6000611b7183836040518060400160405280601a81526020017f536166654d6174683a206469766973696f6e206279207a65726f000000000000815250612026565b905092915050565b600080611c38600b60003373ffffffffffffffffffffffffffffffffffffffff1673ffffffffffffffffffffffffffffffffffffffff16815260200190815260200160002054611c2a64e8d4a51000611c1c600954600a60003373ffffffffffffffffffffffffffffffffffffffff1673ffffffffffffffffffffffffffffffffffffffff16815260200190815260200160002054611d3a90919063ffffffff16565b611b2f90919063ffffffff16565b611ae590919063ffffffff16565b90506000811115611c9157611c903382600360009054906101000a900473ffffffffffffffffffffffffffffffffffffffff1673ffffffffffffffffffffffffffffffffffffffff16611c989092919063ffffffff16565b5b8091505090565b611d358363a9059cbb60e01b8484604051602401808373ffffffffffffffffffffffffffffffffffffffff16815260200182815260200192505050604051602081830303815290604052907bffffffffffffffffffffffffffffffffffffffffffffffffffffffff19166020820180517bffffffffffffffffffffffffffffffffffffffffffffffffffffffff83818316178352505050506120ec565b505050565b600080831415611d4d5760009050611dba565b6000828402905082848281611d5e57fe5b0414611db5576040517f08c379a00000000000000000000000000000000000000000000000000000000081526004018080602001828103825260218152602001806124c86021913960400191505060405180910390fd5b809150505b92915050565b600033905090565b611e83846323b872dd60e01b858585604051602401808473ffffffffffffffffffffffffffffffffffffffff1681526020018373ffffffffffffffffffffffffffffffffffffffff1681526020018281526020019350505050604051602081830303815290604052907bffffffffffffffffffffffffffffffffffffffffffffffffffffffff19166020820180517bffffffffffffffffffffffffffffffffffffffffffffffffffffffff83818316178352505050506120ec565b50505050565b600080828401905083811015611f07576040517f08c379a000000000000000000000000000000000000000000000000000000000815260040180806020018281038252601b8152602001807f536166654d6174683a206164646974696f6e206f766572666c6f77000000000081525060200191505060405180910390fd5b8091505092915050565b60006006548211611f3657611f2f8383611ae590919063ffffffff16565b9050611f60565b6006548310611f485760009050611f60565b611f5d83600654611ae590919063ffffffff16565b90505b92915050565b6000838311158290612013576040517f08c379a00000000000000000000000000000000000000000000000000000000081526004018080602001828103825283818151815260200191508051906020019080838360005b83811015611fd8578082015181840152602081019050611fbd565b50505050905090810190601f1680156120055780820380516001836020036101000a031916815260200191505b509250505060405180910390fd5b5060008385039050809150509392505050565b600080831182906120d2576040517f08c379a00000000000000000000000000000000000000000000000000000000081526004018080602001828103825283818151815260200191508051906020019080838360005b8381101561209757808201518184015260208101905061207c565b50505050905090810190601f1680156120c45780820380516001836020036101000a031916815260200191505b509250505060405180910390fd5b5060008385816120de57fe5b049050809150509392505050565b606061214e826040518060400160405280602081526020017f5361666545524332303a206c6f772d6c6576656c2063616c6c206661696c65648152508573ffffffffffffffffffffffffffffffffffffffff166121db9092919063ffffffff16565b90506000815111156121d65780806020019051602081101561216f57600080fd5b81019080805190602001909291905050506121d5576040517f08c379a000000000000000000000000000000000000000000000000000000000815260040180806020018281038252602a815260200180612513602a913960400191505060405180910390fd5b5b505050565b60606121ea84846000856121f3565b90509392505050565b60608247101561224e576040517f08c379a00000000000000000000000000000000000000000000000000000000081526004018080602001828103825260268152602001806124a26026913960400191505060405180910390fd5b6122578561239c565b6122c9576040517f08c379a000000000000000000000000000000000000000000000000000000000815260040180806020018281038252601d8152602001807f416464726573733a2063616c6c20746f206e6f6e2d636f6e747261637400000081525060200191505060405180910390fd5b600060608673ffffffffffffffffffffffffffffffffffffffff1685876040518082805190602001908083835b6020831061231957805182526020820191506020810190506020830392506122f6565b6001836020036101000a03801982511681845116808217855250505050505090500191505060006040518083038185875af1925050503d806000811461237b576040519150601f19603f3d011682016040523d82523d6000602084013e612380565b606091505b50915091506123908282866123af565b92505050949350505050565b600080823b905060008111915050919050565b606083156123bf57829050612474565b6000835111156123d25782518084602001fd5b816040517f08c379a00000000000000000000000000000000000000000000000000000000081526004018080602001828103825283818151815260200191508051906020019080838360005b8381101561243957808201518184015260208101905061241e565b50505050905090810190601f1680156124665780820380516001836020036101000a031916815260200191505b509250505060405180910390fd5b939250505056fe4f776e61626c653a206e6577206f776e657220697320746865207a65726f2061646472657373416464726573733a20696e73756666696369656e742062616c616e636520666f722063616c6c536166654d6174683a206d756c7469706c69636174696f6e206f766572666c6f774e65772066696e69736820626c6f636b206d757374206265206d6f7265207468656e2063757272656e745361666545524332303a204552433230206f7065726174696f6e20646964206e6f742073756363656564a264697066735822122081c5eed86f1d36567c718448e3e5e7595f3b7e8e0da03e8745352226b43bf25764736f6c634300060c0033737461727420626c6f636b206d757374206265206c657373207468616e2066696e69736820626c6f636b66696e69736820626c6f636b206d757374206265206d6f7265207468616e2063757272656e7420626c6f636b",
  "immutableReferences": {},
  "source": "pragma solidity 0.6.12;\n\nimport \"@openzeppelin/contracts/access/Ownable.sol\";\nimport \"@openzeppelin/contracts/utils/ReentrancyGuard.sol\";\nimport \"@openzeppelin/contracts/math/SafeMath.sol\";\nimport \"@openzeppelin/contracts/token/ERC20/SafeERC20.sol\";\nimport \"@openzeppelin/contracts/token/ERC20/IERC20.sol\";\n\ncontract StakingPool is Ownable, ReentrancyGuard {\n    using SafeMath for uint256;\n    using SafeERC20 for IERC20;\n\n    IERC20 public stakingToken;\n    IERC20 public rewardToken;\n    uint256 public startBlock;\n    uint256 public lastRewardBlock;\n    uint256 public finishBlock;\n    uint256 public totalShares;\n    uint256 public rewardPerBlock;\n    uint256 public accTokensPerShare; // Accumulated tokens per share\n\n    mapping(address => uint256) public stakes;\n    mapping(address => uint256) public rewardDebts;\n\n    event FinishBlockUpdated(uint256 _newFinishBlock);\n    event PoolReplenished(uint256 amount);\n    event TokensStaked(\n        address stakeholder,\n        uint256 amount,\n        uint256 sharesAchived\n    );\n    event StakeWithdrawn(address stakeholder, uint256 amount, uint256 reward);\n    event EmergencyWithdraw(address indexed user, uint256 amount);\n\n    constructor(\n        address _stakingToken,\n        address _poolToken,\n        uint256 _startBlock,\n        uint256 _finishBlock,\n        uint256 _poolTokenAmount\n    ) public {\n        stakingToken = IERC20(_stakingToken);\n        rewardToken = IERC20(_poolToken);\n        require(\n            _startBlock < _finishBlock,\n            \"start block must be less than finish block\"\n        );\n        require(\n            _finishBlock > block.number,\n            \"finish block must be more than current block\"\n        );\n        startBlock = _startBlock;\n        lastRewardBlock = startBlock;\n        finishBlock = _finishBlock;\n        rewardPerBlock = _poolTokenAmount.div(_finishBlock.sub(_startBlock));\n    }\n\n    function getMultiplier(uint256 _from, uint256 _to)\n        internal\n        view\n        returns (uint256)\n    {\n        if (_to <= finishBlock) {\n            return _to.sub(_from);\n        } else if (_from >= finishBlock) {\n            return 0;\n        } else {\n            return finishBlock.sub(_from);\n        }\n    }\n\n    // View function to see pending Reward on frontend.\n    function pendingReward(address _user) external view returns (uint256) {\n        uint256 lpSupply = stakingToken.balanceOf(address(this));\n        uint256 tempAccTokensPerShare = accTokensPerShare;\n        if (block.number > lastRewardBlock && lpSupply != 0) {\n            uint256 multiplier = getMultiplier(lastRewardBlock, block.number);\n            uint256 reward = multiplier.mul(rewardPerBlock);\n            tempAccTokensPerShare = accTokensPerShare.add(\n                reward.mul(1e12).div(lpSupply)\n            );\n        }\n        return\n            stakes[_user].mul(tempAccTokensPerShare).div(1e12).sub(\n                rewardDebts[_user]\n            );\n    }\n\n    // Update reward variables of the given pool to be up-to-date.\n    function updatePool() public {\n        if (block.number <= lastRewardBlock) {\n            return;\n        }\n        uint256 stakingSupply = stakingToken.balanceOf(address(this));\n        if (stakingSupply == 0) {\n            lastRewardBlock = block.number;\n            return;\n        }\n\n        uint256 multiplier = getMultiplier(lastRewardBlock, block.number);\n        uint256 reward = multiplier.mul(rewardPerBlock);\n        accTokensPerShare = accTokensPerShare.add(\n            reward.mul(1e12).div(stakingSupply)\n        );\n        lastRewardBlock = block.number;\n    }\n\n    function stakeTokens(uint256 _amountToStake) public {\n        updatePool();\n        uint256 pending = 0;\n        if (stakes[msg.sender] > 0) {\n            pending = calculatePending();\n        }\n\n        if (_amountToStake > 0) {\n            stakingToken.safeTransferFrom(\n                address(msg.sender),\n                address(this),\n                _amountToStake\n            );\n            stakes[msg.sender] = stakes[msg.sender].add(_amountToStake);\n        }\n\n        rewardDebts[msg.sender] = stakes[msg.sender].mul(accTokensPerShare).div(\n            1e12\n        );\n\n        emit TokensStaked(msg.sender, _amountToStake, pending);\n    }\n\n    // Leave the pool. Claim back your tokens.\n    // Unclocks the staked + gained tokens and burns pool shares\n    function withdrawStake(uint256 _stakeAmount) public nonReentrant {\n        require(stakes[msg.sender] >= _stakeAmount, \"withdraw: not good\");\n        updatePool();\n        uint256 pending = calculatePending();\n\n        if (_stakeAmount > 0) {\n            stakes[msg.sender] = stakes[msg.sender].sub(_stakeAmount);\n            stakingToken.safeTransfer(address(msg.sender), _stakeAmount);\n        }\n\n        rewardDebts[msg.sender] = stakes[msg.sender].mul(accTokensPerShare).div(\n            1e12\n        );\n\n        emit StakeWithdrawn(msg.sender, _stakeAmount, pending);\n    }\n\n    function calculatePending() private returns (uint256) {\n        uint256 pending =\n            stakes[msg.sender].mul(accTokensPerShare).div(1e12).sub(\n                rewardDebts[msg.sender]\n            );\n\n        if (pending > 0) {\n            rewardToken.safeTransfer(address(msg.sender), pending);\n        }\n\n        return pending;\n    }\n\n    // Withdraw without caring about rewards. EMERGENCY ONLY.\n    function emergencyWithdraw() public {\n        stakingToken.safeTransfer(address(msg.sender), stakes[msg.sender]);\n        emit EmergencyWithdraw(msg.sender, stakes[msg.sender]);\n\n        stakes[msg.sender] = 0;\n        rewardDebts[msg.sender] = 0;\n    }\n\n    // Withdraw reward. EMERGENCY ONLY.\n    function emergencyRewardWithdraw(uint256 _amount) public onlyOwner {\n        require(\n            _amount <= rewardToken.balanceOf(address(this)),\n            \"not enough token\"\n        );\n        rewardToken.safeTransfer(address(msg.sender), _amount);\n    }\n\n    function setFinishBlock(uint256 _newFinishBlock) external onlyOwner {\n        require(\n            _newFinishBlock > finishBlock,\n            \"New finish block must be more then current\"\n        );\n        finishBlock = _newFinishBlock;\n        rewardPerBlock = rewardToken.balanceOf(address(this)).div(\n            finishBlock.sub(lastRewardBlock)\n        );\n\n        emit FinishBlockUpdated(_newFinishBlock);\n    }\n\n    function topUpStakingPool(uint256 _topUpAmount) external onlyOwner {\n        rewardToken.safeTransferFrom(msg.sender, address(this), _topUpAmount);\n        rewardPerBlock = rewardToken.balanceOf(address(this)).div(\n            finishBlock.sub(lastRewardBlock)\n        );\n\n        emit PoolReplenished(_topUpAmount);\n    }\n}\n",
  "sourcePath": "/Users/kstasi/Documents/side/StakeMaster 2/contracts/StakingPool.sol",
  "compiler": {
    "name": "solc",
    "version": "0.6.12+commit.27d51765.Emscripten.clang"
  },
  "schemaVersion": "3.2.3",
  "updatedAt": "2020-12-26T16:03:12.473Z",
  "networkType": "ethereum",
  "devdoc": {
    "kind": "dev",
    "methods": {
      "owner()": {
        "details": "Returns the address of the current owner."
      },
      "renounceOwnership()": {
        "details": "Leaves the contract without owner. It will not be possible to call `onlyOwner` functions anymore. Can only be called by the current owner. NOTE: Renouncing ownership will leave the contract without an owner, thereby removing any functionality that is only available to the owner."
      },
      "transferOwnership(address)": {
        "details": "Transfers ownership of the contract to a new account (`newOwner`). Can only be called by the current owner."
      }
    },
    "version": 1
  },
  "userdoc": {
    "kind": "user",
    "methods": {},
    "version": 1
  }
}