{
  "contractName": "StakingPool",
  "abi": [
    {
      "inputs": [
        {
          "internalType": "contract IERC20",
          "name": "_stakingToken",
          "type": "address"
        },
        {
          "internalType": "contract IERC20",
          "name": "_poolToken",
          "type": "address"
        },
        {
          "internalType": "uint256",
          "name": "_startTime",
          "type": "uint256"
        },
        {
          "internalType": "uint256",
          "name": "_finishTime",
          "type": "uint256"
        },
        {
          "internalType": "uint256",
          "name": "_poolTokenAmount",
          "type": "uint256"
        }
      ],
      "stateMutability": "nonpayable",
      "type": "constructor"
    },
    {
      "anonymous": false,
      "inputs": [
        {
          "indexed": true,
          "internalType": "address",
          "name": "user",
          "type": "address"
        },
        {
          "indexed": false,
          "internalType": "uint256",
          "name": "amount",
          "type": "uint256"
        }
      ],
      "name": "EmergencyWithdraw",
      "type": "event"
    },
    {
      "anonymous": false,
      "inputs": [
        {
          "indexed": true,
          "internalType": "address",
          "name": "previousOwner",
          "type": "address"
        },
        {
          "indexed": true,
          "internalType": "address",
          "name": "newOwner",
          "type": "address"
        }
      ],
      "name": "OwnershipTransferred",
      "type": "event"
    },
    {
      "anonymous": false,
      "inputs": [
        {
          "indexed": false,
          "internalType": "uint256",
          "name": "amount",
          "type": "uint256"
        }
      ],
      "name": "PoolReplenished",
      "type": "event"
    },
    {
      "anonymous": false,
      "inputs": [
        {
          "indexed": true,
          "internalType": "address",
          "name": "user",
          "type": "address"
        },
        {
          "indexed": false,
          "internalType": "uint256",
          "name": "amount",
          "type": "uint256"
        },
        {
          "indexed": false,
          "internalType": "uint256",
          "name": "reward",
          "type": "uint256"
        }
      ],
      "name": "StakeWithdrawn",
      "type": "event"
    },
    {
      "anonymous": false,
      "inputs": [
        {
          "indexed": true,
          "internalType": "address",
          "name": "user",
          "type": "address"
        },
        {
          "indexed": false,
          "internalType": "uint256",
          "name": "amount",
          "type": "uint256"
        },
        {
          "indexed": false,
          "internalType": "uint256",
          "name": "reward",
          "type": "uint256"
        },
        {
          "indexed": false,
          "internalType": "bool",
          "name": "reinvest",
          "type": "bool"
        }
      ],
      "name": "TokensStaked",
      "type": "event"
    },
    {
      "anonymous": false,
      "inputs": [
        {
          "indexed": false,
          "internalType": "uint256",
          "name": "addedTokenAmount",
          "type": "uint256"
        },
        {
          "indexed": false,
          "internalType": "uint256",
          "name": "newFinishTime",
          "type": "uint256"
        }
      ],
      "name": "UpdateFinishTime",
      "type": "event"
    },
    {
      "anonymous": false,
      "inputs": [
        {
          "indexed": true,
          "internalType": "address",
          "name": "user",
          "type": "address"
        },
        {
          "indexed": false,
          "internalType": "uint256",
          "name": "amount",
          "type": "uint256"
        }
      ],
      "name": "WithdrawPoolRemainder",
      "type": "event"
    },
    {
      "inputs": [],
      "name": "accTokensPerShare",
      "outputs": [
        {
          "internalType": "uint256",
          "name": "",
          "type": "uint256"
        }
      ],
      "stateMutability": "view",
      "type": "function"
    },
    {
      "inputs": [],
      "name": "allPaidReward",
      "outputs": [
        {
          "internalType": "uint256",
          "name": "",
          "type": "uint256"
        }
      ],
      "stateMutability": "view",
      "type": "function"
    },
    {
      "inputs": [],
      "name": "allRewardDebt",
      "outputs": [
        {
          "internalType": "uint256",
          "name": "",
          "type": "uint256"
        }
      ],
      "stateMutability": "view",
      "type": "function"
    },
    {
      "inputs": [],
      "name": "allStakedAmount",
      "outputs": [
        {
          "internalType": "uint256",
          "name": "",
          "type": "uint256"
        }
      ],
      "stateMutability": "view",
      "type": "function"
    },
    {
      "inputs": [],
      "name": "allowReinvest",
      "outputs": [
        {
          "internalType": "bool",
          "name": "",
          "type": "bool"
        }
      ],
      "stateMutability": "view",
      "type": "function"
    },
    {
      "inputs": [],
      "name": "finishTime",
      "outputs": [
        {
          "internalType": "uint256",
          "name": "",
          "type": "uint256"
        }
      ],
      "stateMutability": "view",
      "type": "function"
    },
    {
      "inputs": [],
      "name": "lastRewardTime",
      "outputs": [
        {
          "internalType": "uint256",
          "name": "",
          "type": "uint256"
        }
      ],
      "stateMutability": "view",
      "type": "function"
    },
    {
      "inputs": [],
      "name": "owner",
      "outputs": [
        {
          "internalType": "address",
          "name": "",
          "type": "address"
        }
      ],
      "stateMutability": "view",
      "type": "function"
    },
    {
      "inputs": [],
      "name": "participants",
      "outputs": [
        {
          "internalType": "uint256",
          "name": "",
          "type": "uint256"
        }
      ],
      "stateMutability": "view",
      "type": "function"
    },
    {
      "inputs": [],
      "name": "poolTokenAmount",
      "outputs": [
        {
          "internalType": "uint256",
          "name": "",
          "type": "uint256"
        }
      ],
      "stateMutability": "view",
      "type": "function"
    },
    {
      "inputs": [],
      "name": "renounceOwnership",
      "outputs": [],
      "stateMutability": "nonpayable",
      "type": "function"
    },
    {
      "inputs": [],
      "name": "rewardPerSec",
      "outputs": [
        {
          "internalType": "uint256",
          "name": "",
          "type": "uint256"
        }
      ],
      "stateMutability": "view",
      "type": "function"
    },
    {
      "inputs": [],
      "name": "rewardToken",
      "outputs": [
        {
          "internalType": "contract IERC20",
          "name": "",
          "type": "address"
        }
      ],
      "stateMutability": "view",
      "type": "function"
    },
    {
      "inputs": [],
      "name": "stakingToken",
      "outputs": [
        {
          "internalType": "contract IERC20",
          "name": "",
          "type": "address"
        }
      ],
      "stateMutability": "view",
      "type": "function"
    },
    {
      "inputs": [],
      "name": "startTime",
      "outputs": [
        {
          "internalType": "uint256",
          "name": "",
          "type": "uint256"
        }
      ],
      "stateMutability": "view",
      "type": "function"
    },
    {
      "inputs": [
        {
          "internalType": "address",
          "name": "newOwner",
          "type": "address"
        }
      ],
      "name": "transferOwnership",
      "outputs": [],
      "stateMutability": "nonpayable",
      "type": "function"
    },
    {
      "inputs": [
        {
          "internalType": "address",
          "name": "",
          "type": "address"
        }
      ],
      "name": "userInfo",
      "outputs": [
        {
          "internalType": "uint256",
          "name": "amount",
          "type": "uint256"
        },
        {
          "internalType": "uint256",
          "name": "rewardDebt",
          "type": "uint256"
        },
        {
          "internalType": "bool",
          "name": "registrated",
          "type": "bool"
        }
      ],
      "stateMutability": "view",
      "type": "function"
    },
    {
      "inputs": [
        {
          "internalType": "address",
          "name": "user",
          "type": "address"
        }
      ],
      "name": "getUserInfo",
      "outputs": [
        {
          "internalType": "uint256",
          "name": "",
          "type": "uint256"
        },
        {
          "internalType": "uint256",
          "name": "",
          "type": "uint256"
        }
      ],
      "stateMutability": "view",
      "type": "function"
    },
    {
      "inputs": [
        {
          "internalType": "address",
          "name": "_user",
          "type": "address"
        }
      ],
      "name": "pendingReward",
      "outputs": [
        {
          "internalType": "uint256",
          "name": "",
          "type": "uint256"
        }
      ],
      "stateMutability": "view",
      "type": "function"
    },
    {
      "inputs": [],
      "name": "updatePool",
      "outputs": [],
      "stateMutability": "nonpayable",
      "type": "function"
    },
    {
      "inputs": [],
      "name": "reinvestTokens",
      "outputs": [],
      "stateMutability": "nonpayable",
      "type": "function"
    },
    {
      "inputs": [
        {
          "internalType": "uint256",
          "name": "_amountToStake",
          "type": "uint256"
        }
      ],
      "name": "stakeTokens",
      "outputs": [],
      "stateMutability": "nonpayable",
      "type": "function"
    },
    {
      "inputs": [
        {
          "internalType": "uint256",
          "name": "_amount",
          "type": "uint256"
        }
      ],
      "name": "withdrawStake",
      "outputs": [],
      "stateMutability": "nonpayable",
      "type": "function"
    },
    {
      "inputs": [],
      "name": "emergencyWithdraw",
      "outputs": [],
      "stateMutability": "nonpayable",
      "type": "function"
    },
    {
      "inputs": [],
      "name": "withdrawPoolRemainder",
      "outputs": [],
      "stateMutability": "nonpayable",
      "type": "function"
    },
    {
      "inputs": [
        {
          "internalType": "uint256",
          "name": "_addTokenAmount",
          "type": "uint256"
        }
      ],
      "name": "extendDuration",
      "outputs": [],
      "stateMutability": "nonpayable",
      "type": "function"
    }
  ],
  "bytecode": "0x60806040523480156200001157600080fd5b5060405162002ce938038062002ce9833981810160405260a08110156200003757600080fd5b8101908080519060200190929190805190602001909291908051906020019092919080519060200190929190805190602001909291905050506000620000826200038360201b60201c565b9050806000806101000a81548173ffffffffffffffffffffffffffffffffffffffff021916908373ffffffffffffffffffffffffffffffffffffffff1602179055508073ffffffffffffffffffffffffffffffffffffffff16600073ffffffffffffffffffffffffffffffffffffffff167f8be0079c531659141344cd1fd0a4f28419497f9722a3daafe3b4186f6b6457e060405160405180910390a3506001808190555084600260016101000a81548173ffffffffffffffffffffffffffffffffffffffff021916908373ffffffffffffffffffffffffffffffffffffffff16021790555083600360006101000a81548173ffffffffffffffffffffffffffffffffffffffff021916908373ffffffffffffffffffffffffffffffffffffffff1602179055508183106200021f576040517f08c379a000000000000000000000000000000000000000000000000000000000815260040180806020018281038252601e8152602001807f5374617274206d757374206265206c657373207468616e2066696e697368000081525060200191505060405180910390fd5b42831162000295576040517f08c379a000000000000000000000000000000000000000000000000000000000815260040180806020018281038252601b8152602001807f5374617274206d757374206265206d6f7265207468616e206e6f77000000000081525060200191505060405180910390fd5b826004819055506004546005819055508160068190555080600a81905550620002e6620002d184846200038b60201b620018231790919060201c565b82620003dd60201b6200186d1790919060201c565b600b81905550600360009054906101000a900473ffffffffffffffffffffffffffffffffffffffff1673ffffffffffffffffffffffffffffffffffffffff16600260019054906101000a900473ffffffffffffffffffffffffffffffffffffffff1673ffffffffffffffffffffffffffffffffffffffff1614600260006101000a81548160ff0219169083151502179055505050505050620005be565b600033905090565b6000620003d583836040518060400160405280601e81526020017f536166654d6174683a207375627472616374696f6e206f766572666c6f7700008152506200042f60201b60201c565b905092915050565b60006200042783836040518060400160405280601a81526020017f536166654d6174683a206469766973696f6e206279207a65726f000000000000815250620004f360201b60201c565b905092915050565b6000838311158290620004e0576040517f08c379a00000000000000000000000000000000000000000000000000000000081526004018080602001828103825283818151815260200191508051906020019080838360005b83811015620004a457808201518184015260208101905062000487565b50505050905090810190601f168015620004d25780820380516001836020036101000a031916815260200191505b509250505060405180910390fd5b5060008385039050809150509392505050565b60008083118290620005a3576040517f08c379a00000000000000000000000000000000000000000000000000000000081526004018080602001828103825283818151815260200191508051906020019080838360005b83811015620005675780820151818401526020810190506200054a565b50505050905090810190601f168015620005955780820380516001836020036101000a031916815260200191505b509250505060405180910390fd5b506000838581620005b057fe5b049050809150509392505050565b61271b80620005ce6000396000f3fe608060405234801561001057600080fd5b506004361061018e5760003560e01c80638746656f116100de578063d501953d11610097578063e42578ce11610071578063e42578ce146104ac578063f2fde38b146104ca578063f40f0f521461050e578063f7c618c1146105665761018e565b8063d501953d1461047a578063db2e21bc14610498578063e3161ddd146104a25761018e565b80638746656f146103b25780638da5cb5b146103e05780639231cf7414610414578063951fbcc814610432578063c4b9b20014610450578063c5ebffb4146104705761018e565b80636386c1c71161014b57806372f702f31161012557806372f702f3146103285780637547c7a31461035c5780637647ca051461038a57806378e97925146103945761018e565b80636386c1c7146102a15780636c4470fb14610300578063715018a61461031e5761018e565b806314d3bf41146101935780631959a002146101b157806325d5971f146102195780632f3c9a4f146102475780634f41e95d146102655780635958611e14610283575b600080fd5b61019b61059a565b6040518082815260200191505060405180910390f35b6101f3600480360360208110156101c757600080fd5b81019080803573ffffffffffffffffffffffffffffffffffffffff1690602001909291905050506105a0565b604051808481526020018381526020018215158152602001935050505060405180910390f35b6102456004803603602081101561022f57600080fd5b81019080803590602001909291905050506105d7565b005b61024f6108d2565b6040518082815260200191505060405180910390f35b61026d6108d8565b6040518082815260200191505060405180910390f35b61028b6108de565b6040518082815260200191505060405180910390f35b6102e3600480360360208110156102b757600080fd5b81019080803573ffffffffffffffffffffffffffffffffffffffff1690602001909291905050506108e4565b604051808381526020018281526020019250505060405180910390f35b61030861097e565b6040518082815260200191505060405180910390f35b610326610984565b005b610330610b0a565b604051808273ffffffffffffffffffffffffffffffffffffffff16815260200191505060405180910390f35b6103886004803603602081101561037257600080fd5b8101908080359060200190929190505050610b30565b005b610392610bc6565b005b61039c610ec5565b6040518082815260200191505060405180910390f35b6103de600480360360208110156103c857600080fd5b8101908080359060200190929190505050610ecb565b005b6103e861116f565b604051808273ffffffffffffffffffffffffffffffffffffffff16815260200191505060405180910390f35b61041c611198565b6040518082815260200191505060405180910390f35b61043a61119e565b6040518082815260200191505060405180910390f35b6104586111a4565b60405180821515815260200191505060405180910390f35b6104786111b7565b005b61048261124d565b6040518082815260200191505060405180910390f35b6104a0611253565b005b6104aa611424565b005b6104b46114c7565b6040518082815260200191505060405180910390f35b61050c600480360360208110156104e057600080fd5b81019080803573ffffffffffffffffffffffffffffffffffffffff1690602001909291905050506114cd565b005b6105506004803603602081101561052457600080fd5b81019080803573ffffffffffffffffffffffffffffffffffffffff1690602001909291905050506116d8565b6040518082815260200191505060405180910390f35b61056e6117fd565b604051808273ffffffffffffffffffffffffffffffffffffffff16815260200191505060405180910390f35b60075481565b600e6020528060005260406000206000915090508060000154908060010154908060020160009054906101000a900460ff16905083565b60026001541415610650576040517f08c379a000000000000000000000000000000000000000000000000000000000815260040180806020018281038252601f8152602001807f5265656e7472616e637947756172643a207265656e7472616e742063616c6c0081525060200191505060405180910390fd5b60026001819055506000600e60003373ffffffffffffffffffffffffffffffffffffffff1673ffffffffffffffffffffffffffffffffffffffff16815260200190815260200160002090508181600001541015610715576040517f08c379a00000000000000000000000000000000000000000000000000000000081526004018080602001828103825260128152602001807f77697468647261773a206e6f7420676f6f64000000000000000000000000000081525060200191505060405180910390fd5b61071d611424565b60006107648260405180606001604052908160008201548152602001600182015481526020016002820160009054906101000a900460ff16151515158152505060006118b7565b905060008311156107dc5761078683836000015461182390919063ffffffff16565b82600001819055506107db3384600260019054906101000a900473ffffffffffffffffffffffffffffffffffffffff1673ffffffffffffffffffffffffffffffffffffffff166119879092919063ffffffff16565b5b6107f5826001015460095461182390919063ffffffff16565b60098190555061082e670de0b6b3a7640000610820600c548560000154611a2990919063ffffffff16565b61186d90919063ffffffff16565b826001018190555061084f8260010154600954611aaf90919063ffffffff16565b60098190555061086a8360075461182390919063ffffffff16565b6007819055503373ffffffffffffffffffffffffffffffffffffffff167f933735aa8de6d7547d0126171b2f31b9c34dd00f3ecd4be85a0ba047db4fafef8483604051808381526020018281526020019250505060405180910390a250506001808190555050565b600c5481565b600b5481565b60065481565b6000806108ef61262b565b600e60008573ffffffffffffffffffffffffffffffffffffffff1673ffffffffffffffffffffffffffffffffffffffff16815260200190815260200160002060405180606001604052908160008201548152602001600182015481526020016002820160009054906101000a900460ff1615151515815250509050806000015181602001519250925050915091565b600d5481565b61098c611b37565b73ffffffffffffffffffffffffffffffffffffffff1660008054906101000a900473ffffffffffffffffffffffffffffffffffffffff1673ffffffffffffffffffffffffffffffffffffffff1614610a4c576040517f08c379a00000000000000000000000000000000000000000000000000000000081526004018080602001828103825260208152602001807f4f776e61626c653a2063616c6c6572206973206e6f7420746865206f776e657281525060200191505060405180910390fd5b600073ffffffffffffffffffffffffffffffffffffffff1660008054906101000a900473ffffffffffffffffffffffffffffffffffffffff1673ffffffffffffffffffffffffffffffffffffffff167f8be0079c531659141344cd1fd0a4f28419497f9722a3daafe3b4186f6b6457e060405160405180910390a360008060006101000a81548173ffffffffffffffffffffffffffffffffffffffff021916908373ffffffffffffffffffffffffffffffffffffffff160217905550565b600260019054906101000a900473ffffffffffffffffffffffffffffffffffffffff1681565b60026001541415610ba9576040517f08c379a000000000000000000000000000000000000000000000000000000000815260040180806020018281038252601f8152602001807f5265656e7472616e637947756172643a207265656e7472616e742063616c6c0081525060200191505060405180910390fd5b6002600181905550610bbc816000611b3f565b6001808190555050565b610bce611b37565b73ffffffffffffffffffffffffffffffffffffffff1660008054906101000a900473ffffffffffffffffffffffffffffffffffffffff1673ffffffffffffffffffffffffffffffffffffffff1614610c8e576040517f08c379a00000000000000000000000000000000000000000000000000000000081526004018080602001828103825260208152602001807f4f776e61626c653a2063616c6c6572206973206e6f7420746865206f776e657281525060200191505060405180910390fd5b60026001541415610d07576040517f08c379a000000000000000000000000000000000000000000000000000000000815260040180806020018281038252601f8152602001807f5265656e7472616e637947756172643a207265656e7472616e742063616c6c0081525060200191505060405180910390fd5b60026001819055506006544211610d86576040517f08c379a00000000000000000000000000000000000000000000000000000000081526004018080602001828103825260128152602001807f416c6c6f772061667465722066696e697368000000000000000000000000000081525060200191505060405180910390fd5b610d8e611424565b6000610dd5600954610dc7670de0b6b3a7640000610db9600c54600754611a2990919063ffffffff16565b61186d90919063ffffffff16565b61182390919063ffffffff16565b90506000610e0282610df4600854600a5461182390919063ffffffff16565b61182390919063ffffffff16565b9050610e1981600854611aaf90919063ffffffff16565b600881905550610e6c3382600360009054906101000a900473ffffffffffffffffffffffffffffffffffffffff1673ffffffffffffffffffffffffffffffffffffffff166119879092919063ffffffff16565b3373ffffffffffffffffffffffffffffffffffffffff167f575274ea138cb54fdd6aded4d581d6cfb06d6cda7b8d9c519804512d1d61b5a4826040518082815260200191505060405180910390a2505060018081905550565b60045481565b610ed3611b37565b73ffffffffffffffffffffffffffffffffffffffff1660008054906101000a900473ffffffffffffffffffffffffffffffffffffffff1673ffffffffffffffffffffffffffffffffffffffff1614610f93576040517f08c379a00000000000000000000000000000000000000000000000000000000081526004018080602001828103825260208152602001807f4f776e61626c653a2063616c6c6572206973206e6f7420746865206f776e657281525060200191505060405180910390fd5b6002600154141561100c576040517f08c379a000000000000000000000000000000000000000000000000000000000815260040180806020018281038252601f8152602001807f5265656e7472616e637947756172643a207265656e7472616e742063616c6c0081525060200191505060405180910390fd5b6002600181905550600654421061108b576040517f08c379a00000000000000000000000000000000000000000000000000000000081526004018080602001828103825260118152602001807f506f6f6c207761732066696e697368656400000000000000000000000000000081525060200191505060405180910390fd5b6110da333083600360009054906101000a900473ffffffffffffffffffffffffffffffffffffffff1673ffffffffffffffffffffffffffffffffffffffff16611ff0909392919063ffffffff16565b6110ef81600a54611aaf90919063ffffffff16565b600a8190555061111e61110d600b548361186d90919063ffffffff16565b600654611aaf90919063ffffffff16565b6006819055507f127b91073863d59a24754139ce8786738818c7bfcf79fc24cadc1480bd32479181600654604051808381526020018281526020019250505060405180910390a16001808190555050565b60008060009054906101000a900473ffffffffffffffffffffffffffffffffffffffff16905090565b60055481565b60095481565b600260009054906101000a900460ff1681565b60026001541415611230576040517f08c379a000000000000000000000000000000000000000000000000000000000815260040180806020018281038252601f8152602001807f5265656e7472616e637947756172643a207265656e7472616e742063616c6c0081525060200191505060405180910390fd5b600260018190555061124460006001611b3f565b60018081905550565b600a5481565b600260015414156112cc576040517f08c379a000000000000000000000000000000000000000000000000000000000815260040180806020018281038252601f8152602001807f5265656e7472616e637947756172643a207265656e7472616e742063616c6c0081525060200191505060405180910390fd5b60026001819055506000600e60003373ffffffffffffffffffffffffffffffffffffffff1673ffffffffffffffffffffffffffffffffffffffff168152602001908152602001600020905060008160000154111561141a57611375338260000154600260019054906101000a900473ffffffffffffffffffffffffffffffffffffffff1673ffffffffffffffffffffffffffffffffffffffff166119879092919063ffffffff16565b3373ffffffffffffffffffffffffffffffffffffffff167f5fafa99d0643513820be26656b45130b01e1c03062e1266bf36f88cbd3bd969582600001546040518082815260200191505060405180910390a26113e0816000015460075461182390919063ffffffff16565b6007819055506113ff816001015460095461182390919063ffffffff16565b60098190555060008160000181905550600081600101819055505b5060018081905550565b6005544211611432576114c5565b6000600754141561144957426005819055506114c5565b6000611457600554426120b1565b90506000611470600b5483611a2990919063ffffffff16565b90506114b56114a4600754611496670de0b6b3a764000085611a2990919063ffffffff16565b61186d90919063ffffffff16565b600c54611aaf90919063ffffffff16565b600c819055504260058190555050505b565b60085481565b6114d5611b37565b73ffffffffffffffffffffffffffffffffffffffff1660008054906101000a900473ffffffffffffffffffffffffffffffffffffffff1673ffffffffffffffffffffffffffffffffffffffff1614611595576040517f08c379a00000000000000000000000000000000000000000000000000000000081526004018080602001828103825260208152602001807f4f776e61626c653a2063616c6c6572206973206e6f7420746865206f776e657281525060200191505060405180910390fd5b600073ffffffffffffffffffffffffffffffffffffffff168173ffffffffffffffffffffffffffffffffffffffff16141561161b576040517f08c379a000000000000000000000000000000000000000000000000000000000815260040180806020018281038252602681526020018061264f6026913960400191505060405180910390fd5b8073ffffffffffffffffffffffffffffffffffffffff1660008054906101000a900473ffffffffffffffffffffffffffffffffffffffff1673ffffffffffffffffffffffffffffffffffffffff167f8be0079c531659141344cd1fd0a4f28419497f9722a3daafe3b4186f6b6457e060405160405180910390a3806000806101000a81548173ffffffffffffffffffffffffffffffffffffffff021916908373ffffffffffffffffffffffffffffffffffffffff16021790555050565b600080600e60008473ffffffffffffffffffffffffffffffffffffffff1673ffffffffffffffffffffffffffffffffffffffff16815260200190815260200160002090506000600c549050600554421180156117375750600060075414155b156117ad57600061174a600554426120b1565b90506000611763600b5483611a2990919063ffffffff16565b90506117a8611797600754611789670de0b6b3a764000085611a2990919063ffffffff16565b61186d90919063ffffffff16565b600c54611aaf90919063ffffffff16565b925050505b6117f482600101546117e6670de0b6b3a76400006117d8858760000154611a2990919063ffffffff16565b61186d90919063ffffffff16565b61182390919063ffffffff16565b92505050919050565b600360009054906101000a900473ffffffffffffffffffffffffffffffffffffffff1681565b600061186583836040518060400160405280601e81526020017f536166654d6174683a207375627472616374696f6e206f766572666c6f770000815250612116565b905092915050565b60006118af83836040518060400160405280601a81526020017f536166654d6174683a206469766973696f6e206279207a65726f0000000000008152506121d6565b905092915050565b60008061190384602001516118f5670de0b6b3a76400006118e7600c548960000151611a2990919063ffffffff16565b61186d90919063ffffffff16565b61182390919063ffffffff16565b9050600081111561197d5782611961576119603382600360009054906101000a900473ffffffffffffffffffffffffffffffffffffffff1673ffffffffffffffffffffffffffffffffffffffff166119879092919063ffffffff16565b5b61197681600854611aaf90919063ffffffff16565b6008819055505b8091505092915050565b611a248363a9059cbb60e01b8484604051602401808373ffffffffffffffffffffffffffffffffffffffff16815260200182815260200192505050604051602081830303815290604052907bffffffffffffffffffffffffffffffffffffffffffffffffffffffff19166020820180517bffffffffffffffffffffffffffffffffffffffffffffffffffffffff838183161783525050505061229c565b505050565b600080831415611a3c5760009050611aa9565b6000828402905082848281611a4d57fe5b0414611aa4576040517f08c379a000000000000000000000000000000000000000000000000000000000815260040180806020018281038252602181526020018061269b6021913960400191505060405180910390fd5b809150505b92915050565b600080828401905083811015611b2d576040517f08c379a000000000000000000000000000000000000000000000000000000000815260040180806020018281038252601b8152602001807f536166654d6174683a206164646974696f6e206f766572666c6f77000000000081525060200191505060405180910390fd5b8091505092915050565b600033905090565b611b47611424565b600080600e60003373ffffffffffffffffffffffffffffffffffffffff1673ffffffffffffffffffffffffffffffffffffffff16815260200190815260200160002090508060020160009054906101000a900460ff16611bd05760018160020160006101000a81548160ff0219169083151502179055506001600d600082825401925050819055505b600081600001541115611ce757611c218160405180606001604052908160008201548152602001600182015481526020016002820160009054906101000a900460ff161515151581525050846118b7565b91508215611ce657600260009054906101000a900460ff16611cab576040517f08c379a00000000000000000000000000000000000000000000000000000000081526004018080602001828103825260118152602001807f5265696e766573742064697361626c656400000000000000000000000000000081525060200191505060405180910390fd5b611cc2828260000154611aaf90919063ffffffff16565b8160000181905550611cdf82600754611aaf90919063ffffffff16565b6007819055505b5b6000841115611f11576000600260019054906101000a900473ffffffffffffffffffffffffffffffffffffffff1673ffffffffffffffffffffffffffffffffffffffff166370a08231306040518263ffffffff1660e01b8152600401808273ffffffffffffffffffffffffffffffffffffffff16815260200191505060206040518083038186803b158015611d7b57600080fd5b505afa158015611d8f573d6000803e3d6000fd5b505050506040513d6020811015611da557600080fd5b81019080805190602001909291905050509050611e07333087600260019054906101000a900473ffffffffffffffffffffffffffffffffffffffff1673ffffffffffffffffffffffffffffffffffffffff16611ff0909392919063ffffffff16565b600081600260019054906101000a900473ffffffffffffffffffffffffffffffffffffffff1673ffffffffffffffffffffffffffffffffffffffff166370a08231306040518263ffffffff1660e01b8152600401808273ffffffffffffffffffffffffffffffffffffffff16815260200191505060206040518083038186803b158015611e9357600080fd5b505afa158015611ea7573d6000803e3d6000fd5b505050506040513d6020811015611ebd57600080fd5b8101908080519060200190929190505050039050809550611eeb868460000154611aaf90919063ffffffff16565b8360000181905550611f0886600754611aaf90919063ffffffff16565b60078190555050505b611f2a816001015460095461182390919063ffffffff16565b600981905550611f63670de0b6b3a7640000611f55600c548460000154611a2990919063ffffffff16565b61186d90919063ffffffff16565b8160010181905550611f848160010154600954611aaf90919063ffffffff16565b6009819055503373ffffffffffffffffffffffffffffffffffffffff167f6363655a3c7ace10eb7a32098436bd120788e6c01329bb863799624f11b575f3858486604051808481526020018381526020018215158152602001935050505060405180910390a250505050565b6120ab846323b872dd60e01b858585604051602401808473ffffffffffffffffffffffffffffffffffffffff1681526020018373ffffffffffffffffffffffffffffffffffffffff1681526020018281526020019350505050604051602081830303815290604052907bffffffffffffffffffffffffffffffffffffffffffffffffffffffff19166020820180517bffffffffffffffffffffffffffffffffffffffffffffffffffffffff838183161783525050505061229c565b50505050565b60008183106120c35760009050612110565b60065482116120e6576120df838361182390919063ffffffff16565b9050612110565b60065483106120f85760009050612110565b61210d8360065461182390919063ffffffff16565b90505b92915050565b60008383111582906121c3576040517f08c379a00000000000000000000000000000000000000000000000000000000081526004018080602001828103825283818151815260200191508051906020019080838360005b8381101561218857808201518184015260208101905061216d565b50505050905090810190601f1680156121b55780820380516001836020036101000a031916815260200191505b509250505060405180910390fd5b5060008385039050809150509392505050565b60008083118290612282576040517f08c379a00000000000000000000000000000000000000000000000000000000081526004018080602001828103825283818151815260200191508051906020019080838360005b8381101561224757808201518184015260208101905061222c565b50505050905090810190601f1680156122745780820380516001836020036101000a031916815260200191505b509250505060405180910390fd5b50600083858161228e57fe5b049050809150509392505050565b60606122fe826040518060400160405280602081526020017f5361666545524332303a206c6f772d6c6576656c2063616c6c206661696c65648152508573ffffffffffffffffffffffffffffffffffffffff1661238b9092919063ffffffff16565b90506000815111156123865780806020019051602081101561231f57600080fd5b8101908080519060200190929190505050612385576040517f08c379a000000000000000000000000000000000000000000000000000000000815260040180806020018281038252602a8152602001806126bc602a913960400191505060405180910390fd5b5b505050565b606061239a84846000856123a3565b90509392505050565b6060824710156123fe576040517f08c379a00000000000000000000000000000000000000000000000000000000081526004018080602001828103825260268152602001806126756026913960400191505060405180910390fd5b6124078561254c565b612479576040517f08c379a000000000000000000000000000000000000000000000000000000000815260040180806020018281038252601d8152602001807f416464726573733a2063616c6c20746f206e6f6e2d636f6e747261637400000081525060200191505060405180910390fd5b600060608673ffffffffffffffffffffffffffffffffffffffff1685876040518082805190602001908083835b602083106124c957805182526020820191506020810190506020830392506124a6565b6001836020036101000a03801982511681845116808217855250505050505090500191505060006040518083038185875af1925050503d806000811461252b576040519150601f19603f3d011682016040523d82523d6000602084013e612530565b606091505b509150915061254082828661255f565b92505050949350505050565b600080823b905060008111915050919050565b6060831561256f57829050612624565b6000835111156125825782518084602001fd5b816040517f08c379a00000000000000000000000000000000000000000000000000000000081526004018080602001828103825283818151815260200191508051906020019080838360005b838110156125e95780820151818401526020810190506125ce565b50505050905090810190601f1680156126165780820380516001836020036101000a031916815260200191505b509250505060405180910390fd5b9392505050565b60405180606001604052806000815260200160008152602001600015158152509056fe4f776e61626c653a206e6577206f776e657220697320746865207a65726f2061646472657373416464726573733a20696e73756666696369656e742062616c616e636520666f722063616c6c536166654d6174683a206d756c7469706c69636174696f6e206f766572666c6f775361666545524332303a204552433230206f7065726174696f6e20646964206e6f742073756363656564a2646970667358221220393fb06fdd0d09a381c4ff7482456121c7708d6ef4e2a2e941025f382f80764e64736f6c634300060c0033",
  "immutableReferences": {},
  "source": "pragma solidity 0.6.12;\r\n\r\nimport \"@openzeppelin/contracts/access/Ownable.sol\";\r\nimport \"@openzeppelin/contracts/utils/ReentrancyGuard.sol\";\r\nimport \"@openzeppelin/contracts/math/SafeMath.sol\";\r\nimport \"@openzeppelin/contracts/token/ERC20/SafeERC20.sol\";\r\nimport \"@openzeppelin/contracts/token/ERC20/IERC20.sol\";\r\n\r\ncontract StakingPool is Ownable, ReentrancyGuard {\r\n    using SafeMath for uint256;\r\n    using SafeERC20 for IERC20;\r\n\r\n    bool public allowReinvest;\r\n    IERC20 public stakingToken;\r\n    IERC20 public rewardToken;\r\n    uint256 public startTime;\r\n    uint256 public lastRewardTime;\r\n    uint256 public finishTime;\r\n    uint256 public allStakedAmount;\r\n    uint256 public allPaidReward;\r\n    uint256 public allRewardDebt;\r\n    uint256 public poolTokenAmount;\r\n    uint256 public rewardPerSec;\r\n    uint256 public accTokensPerShare; // Accumulated tokens per share\r\n    uint256 public participants; //Count of participants\r\n\r\n    // Info of each user.\r\n    struct UserInfo {\r\n        uint256 amount;     // How many tokens the user has staked.\r\n        uint256 rewardDebt; // Reward debt\r\n        bool registrated;\r\n    }\r\n\r\n    mapping (address => UserInfo) public userInfo;\r\n\r\n    event PoolReplenished(uint256 amount);\r\n    event TokensStaked(address indexed user, uint256 amount, uint256 reward, bool reinvest);\r\n    event StakeWithdrawn(address indexed user, uint256 amount, uint256 reward);\r\n    event EmergencyWithdraw(address indexed user, uint256 amount);\r\n\r\n    event WithdrawPoolRemainder(address indexed user, uint256 amount);\r\n    event UpdateFinishTime(uint256 addedTokenAmount, uint256 newFinishTime);\r\n\r\n    constructor(\r\n        IERC20 _stakingToken,\r\n        IERC20 _poolToken,\r\n        uint256 _startTime,\r\n        uint256 _finishTime,\r\n        uint256 _poolTokenAmount\r\n    ) public {\r\n        stakingToken = _stakingToken;\r\n        rewardToken = _poolToken;\r\n        require(_startTime < _finishTime, \"Start must be less than finish\");\r\n        require(_startTime > now, \"Start must be more than now\");\r\n\r\n        startTime = _startTime;\r\n        lastRewardTime = startTime;\r\n        finishTime = _finishTime;\r\n        poolTokenAmount = _poolTokenAmount;\r\n        rewardPerSec = _poolTokenAmount.div(_finishTime.sub(_startTime));\r\n\r\n        allowReinvest = address(stakingToken) == address(rewardToken);\r\n    }\r\n\r\n    function getUserInfo(address user)\r\n        external\r\n        view\r\n        returns (uint256, uint256)\r\n    {\r\n        UserInfo memory info = userInfo[user];\r\n        return (info.amount, info.rewardDebt);\r\n    }\r\n    \r\n    function getMultiplier(uint256 _from, uint256 _to)\r\n        internal\r\n        view\r\n        returns (uint256)\r\n    {\r\n        if (_from >= _to) {\r\n          return 0;\r\n        }\r\n        if (_to <= finishTime) {\r\n            return _to.sub(_from);\r\n        } else if (_from >= finishTime) {\r\n            return 0;\r\n        } else {\r\n            return finishTime.sub(_from);\r\n        }\r\n    }\r\n\r\n    // View function to see pending Reward on frontend.\r\n    function pendingReward(address _user) external view returns (uint256) {\r\n        UserInfo storage user = userInfo[_user];\r\n        uint256 tempAccTokensPerShare = accTokensPerShare;\r\n        if (now > lastRewardTime && allStakedAmount != 0) {\r\n            uint256 multiplier = getMultiplier(lastRewardTime, now);\r\n            uint256 reward = multiplier.mul(rewardPerSec);\r\n            tempAccTokensPerShare = accTokensPerShare.add(\r\n                reward.mul(1e18).div(allStakedAmount)\r\n            );\r\n        }\r\n        return user.amount.mul(tempAccTokensPerShare).div(1e18).sub(user.rewardDebt);\r\n    }\r\n\r\n    // Update reward variables of the given pool to be up-to-date.\r\n    function updatePool() public {\r\n        if (now <= lastRewardTime) {\r\n            return;\r\n        }\r\n        if (allStakedAmount == 0) {\r\n            lastRewardTime = now;\r\n            return;\r\n        }\r\n\r\n        uint256 multiplier = getMultiplier(lastRewardTime, now);\r\n        uint256 reward = multiplier.mul(rewardPerSec);\r\n        accTokensPerShare = accTokensPerShare.add(\r\n            reward.mul(1e18).div(allStakedAmount)\r\n        );\r\n        lastRewardTime = now;\r\n    }\r\n\r\n    function reinvestTokens() external nonReentrant{\r\n        innerStakeTokens(0, true);\r\n    }\r\n\r\n    function stakeTokens(uint256 _amountToStake) external nonReentrant{\r\n        innerStakeTokens(_amountToStake, false);\r\n    }\r\n\r\n    function innerStakeTokens(uint256 _amountToStake, bool reinvest) private{\r\n        updatePool();\r\n        uint256 pending = 0;\r\n        UserInfo storage user = userInfo[msg.sender];\r\n\r\n        if(!user.registrated){\r\n            user.registrated = true;\r\n            participants +=1;\r\n        }\r\n        if (user.amount > 0) {\r\n            pending = transferPendingReward(user, reinvest);\r\n            if(reinvest)\r\n            {\r\n                require(allowReinvest, \"Reinvest disabled\");\r\n                user.amount = user.amount.add(pending);\r\n                allStakedAmount = allStakedAmount.add(pending);\r\n            }\r\n        }\r\n        if (_amountToStake > 0) {\r\n            uint256 balanceBefore = stakingToken.balanceOf(address(this));\r\n            stakingToken.safeTransferFrom(msg.sender, address(this), _amountToStake);\r\n            uint256 received = stakingToken.balanceOf(address(this)) - balanceBefore;\r\n            _amountToStake = received;\r\n            user.amount = user.amount.add(_amountToStake);\r\n            allStakedAmount = allStakedAmount.add(_amountToStake);\r\n        }\r\n        \r\n        allRewardDebt = allRewardDebt.sub(user.rewardDebt);\r\n        user.rewardDebt = user.amount.mul(accTokensPerShare).div(1e18);\r\n        allRewardDebt = allRewardDebt.add(user.rewardDebt);\r\n        emit TokensStaked(msg.sender, _amountToStake, pending, reinvest);\r\n    }\r\n\r\n    // Leave the pool. Claim back your tokens.\r\n    // Unclocks the staked + gained tokens and burns pool shares\r\n    function withdrawStake(uint256 _amount) external nonReentrant {\r\n        UserInfo storage user = userInfo[msg.sender];\r\n        require(user.amount >= _amount, \"withdraw: not good\");\r\n        updatePool();\r\n        uint256 pending = transferPendingReward(user, false);\r\n\r\n        if (_amount > 0) {\r\n            user.amount = user.amount.sub(_amount);\r\n            stakingToken.safeTransfer(msg.sender, _amount);\r\n        }\r\n        allRewardDebt = allRewardDebt.sub(user.rewardDebt);\r\n        user.rewardDebt = user.amount.mul(accTokensPerShare).div(1e18);\r\n        allRewardDebt = allRewardDebt.add(user.rewardDebt);\r\n        allStakedAmount = allStakedAmount.sub(_amount);\r\n\r\n        emit StakeWithdrawn(msg.sender, _amount, pending);\r\n    }\r\n\r\n    function transferPendingReward(UserInfo memory user, bool reinvest) private returns (uint256) {\r\n        uint256 pending = user.amount.mul(accTokensPerShare).div(1e18).sub(user.rewardDebt);\r\n\r\n        if (pending > 0) {\r\n            if(!reinvest){\r\n                rewardToken.safeTransfer(msg.sender, pending);\r\n            }\r\n            allPaidReward = allPaidReward.add(pending);\r\n        }\r\n\r\n        return pending;\r\n    }\r\n\r\n    // Withdraw without caring about rewards. EMERGENCY ONLY.\r\n    function emergencyWithdraw() external nonReentrant{\r\n        UserInfo storage user = userInfo[msg.sender];\r\n        if(user.amount > 0) {\r\n            stakingToken.safeTransfer(msg.sender, user.amount);\r\n            emit EmergencyWithdraw(msg.sender, user.amount);\r\n\r\n            allStakedAmount = allStakedAmount.sub(user.amount);\r\n            allRewardDebt = allRewardDebt.sub(user.rewardDebt);\r\n            user.amount = 0;\r\n            user.rewardDebt = 0;\r\n        }\r\n    }\r\n\r\n\r\n    function withdrawPoolRemainder() external onlyOwner nonReentrant{\r\n        require(now > finishTime, \"Allow after finish\");\r\n        updatePool();\r\n        uint256 pending = allStakedAmount.mul(accTokensPerShare).div(1e18).sub(allRewardDebt);\r\n        uint256 returnAmount = poolTokenAmount.sub(allPaidReward).sub(pending);\r\n        allPaidReward = allPaidReward.add(returnAmount);\r\n\r\n        rewardToken.safeTransfer(msg.sender, returnAmount);\r\n        emit WithdrawPoolRemainder(msg.sender, returnAmount);\r\n    }\r\n\r\n    function extendDuration(uint256 _addTokenAmount) external onlyOwner nonReentrant{\r\n        require(now < finishTime, \"Pool was finished\");\r\n        rewardToken.safeTransferFrom(msg.sender, address(this), _addTokenAmount);     \r\n        poolTokenAmount = poolTokenAmount.add(_addTokenAmount);\r\n        finishTime = finishTime.add(_addTokenAmount.div(rewardPerSec));\r\n\r\n        emit UpdateFinishTime(_addTokenAmount, finishTime);\r\n    }\r\n}\r\n",
  "sourcePath": "D:\\Projects\\TosDisFinance\\StakeMaster\\contracts\\StakingPool.sol",
  "compiler": {
    "name": "solc",
    "version": "0.6.12+commit.27d51765.Emscripten.clang"
  },
  "schemaVersion": "3.4.0",
  "updatedAt": "2021-06-02T11:07:10.578Z",
  "devdoc": {
    "kind": "dev",
    "methods": {
      "owner()": {
        "details": "Returns the address of the current owner."
      },
      "renounceOwnership()": {
        "details": "Leaves the contract without owner. It will not be possible to call `onlyOwner` functions anymore. Can only be called by the current owner. NOTE: Renouncing ownership will leave the contract without an owner, thereby removing any functionality that is only available to the owner."
      },
      "transferOwnership(address)": {
        "details": "Transfers ownership of the contract to a new account (`newOwner`). Can only be called by the current owner."
      }
    },
    "version": 1
  },
  "userdoc": {
    "kind": "user",
    "methods": {},
    "version": 1
  }
}