{
  "contractName": "StakingPool",
  "abi": [
    {
      "inputs": [
        {
          "internalType": "contract IERC20",
          "name": "_stakingToken",
          "type": "address"
        },
        {
          "internalType": "contract IERC20",
          "name": "_poolToken",
          "type": "address"
        },
        {
          "internalType": "uint256",
          "name": "_startBlock",
          "type": "uint256"
        },
        {
          "internalType": "uint256",
          "name": "_finishBlock",
          "type": "uint256"
        },
        {
          "internalType": "uint256",
          "name": "_poolTokenAmount",
          "type": "uint256"
        }
      ],
      "stateMutability": "nonpayable",
      "type": "constructor"
    },
    {
      "anonymous": false,
      "inputs": [
        {
          "indexed": true,
          "internalType": "address",
          "name": "user",
          "type": "address"
        },
        {
          "indexed": false,
          "internalType": "uint256",
          "name": "amount",
          "type": "uint256"
        }
      ],
      "name": "EmergencyWithdraw",
      "type": "event"
    },
    {
      "anonymous": false,
      "inputs": [
        {
          "indexed": false,
          "internalType": "uint256",
          "name": "newFinishBlock",
          "type": "uint256"
        }
      ],
      "name": "FinishBlockUpdated",
      "type": "event"
    },
    {
      "anonymous": false,
      "inputs": [
        {
          "indexed": true,
          "internalType": "address",
          "name": "previousOwner",
          "type": "address"
        },
        {
          "indexed": true,
          "internalType": "address",
          "name": "newOwner",
          "type": "address"
        }
      ],
      "name": "OwnershipTransferred",
      "type": "event"
    },
    {
      "anonymous": false,
      "inputs": [
        {
          "indexed": false,
          "internalType": "uint256",
          "name": "amount",
          "type": "uint256"
        }
      ],
      "name": "PoolReplenished",
      "type": "event"
    },
    {
      "anonymous": false,
      "inputs": [
        {
          "indexed": true,
          "internalType": "address",
          "name": "user",
          "type": "address"
        },
        {
          "indexed": false,
          "internalType": "uint256",
          "name": "amount",
          "type": "uint256"
        },
        {
          "indexed": false,
          "internalType": "uint256",
          "name": "reward",
          "type": "uint256"
        }
      ],
      "name": "StakeWithdrawn",
      "type": "event"
    },
    {
      "anonymous": false,
      "inputs": [
        {
          "indexed": true,
          "internalType": "address",
          "name": "user",
          "type": "address"
        },
        {
          "indexed": false,
          "internalType": "uint256",
          "name": "amount",
          "type": "uint256"
        },
        {
          "indexed": false,
          "internalType": "uint256",
          "name": "reward",
          "type": "uint256"
        }
      ],
      "name": "TokensStaked",
      "type": "event"
    },
    {
      "anonymous": false,
      "inputs": [
        {
          "indexed": true,
          "internalType": "address",
          "name": "user",
          "type": "address"
        },
        {
          "indexed": false,
          "internalType": "uint256",
          "name": "amount",
          "type": "uint256"
        }
      ],
      "name": "WithdrawPoolRemainder",
      "type": "event"
    },
    {
      "inputs": [],
      "name": "accTokensPerShare",
      "outputs": [
        {
          "internalType": "uint256",
          "name": "",
          "type": "uint256"
        }
      ],
      "stateMutability": "view",
      "type": "function",
      "constant": true
    },
    {
      "inputs": [],
      "name": "allPaidReward",
      "outputs": [
        {
          "internalType": "uint256",
          "name": "",
          "type": "uint256"
        }
      ],
      "stateMutability": "view",
      "type": "function",
      "constant": true
    },
    {
      "inputs": [],
      "name": "allRewardDebt",
      "outputs": [
        {
          "internalType": "uint256",
          "name": "",
          "type": "uint256"
        }
      ],
      "stateMutability": "view",
      "type": "function",
      "constant": true
    },
    {
      "inputs": [],
      "name": "allStakedAmount",
      "outputs": [
        {
          "internalType": "uint256",
          "name": "",
          "type": "uint256"
        }
      ],
      "stateMutability": "view",
      "type": "function",
      "constant": true
    },
    {
      "inputs": [],
      "name": "finishBlock",
      "outputs": [
        {
          "internalType": "uint256",
          "name": "",
          "type": "uint256"
        }
      ],
      "stateMutability": "view",
      "type": "function",
      "constant": true
    },
    {
      "inputs": [],
      "name": "lastRewardBlock",
      "outputs": [
        {
          "internalType": "uint256",
          "name": "",
          "type": "uint256"
        }
      ],
      "stateMutability": "view",
      "type": "function",
      "constant": true
    },
    {
      "inputs": [],
      "name": "owner",
      "outputs": [
        {
          "internalType": "address",
          "name": "",
          "type": "address"
        }
      ],
      "stateMutability": "view",
      "type": "function",
      "constant": true
    },
    {
      "inputs": [],
      "name": "participants",
      "outputs": [
        {
          "internalType": "uint256",
          "name": "",
          "type": "uint256"
        }
      ],
      "stateMutability": "view",
      "type": "function",
      "constant": true
    },
    {
      "inputs": [],
      "name": "poolTokenAmount",
      "outputs": [
        {
          "internalType": "uint256",
          "name": "",
          "type": "uint256"
        }
      ],
      "stateMutability": "view",
      "type": "function",
      "constant": true
    },
    {
      "inputs": [],
      "name": "renounceOwnership",
      "outputs": [],
      "stateMutability": "nonpayable",
      "type": "function"
    },
    {
      "inputs": [],
      "name": "rewardPerBlock",
      "outputs": [
        {
          "internalType": "uint256",
          "name": "",
          "type": "uint256"
        }
      ],
      "stateMutability": "view",
      "type": "function",
      "constant": true
    },
    {
      "inputs": [],
      "name": "rewardToken",
      "outputs": [
        {
          "internalType": "contract IERC20",
          "name": "",
          "type": "address"
        }
      ],
      "stateMutability": "view",
      "type": "function",
      "constant": true
    },
    {
      "inputs": [],
      "name": "stakingToken",
      "outputs": [
        {
          "internalType": "contract IERC20",
          "name": "",
          "type": "address"
        }
      ],
      "stateMutability": "view",
      "type": "function",
      "constant": true
    },
    {
      "inputs": [],
      "name": "startBlock",
      "outputs": [
        {
          "internalType": "uint256",
          "name": "",
          "type": "uint256"
        }
      ],
      "stateMutability": "view",
      "type": "function",
      "constant": true
    },
    {
      "inputs": [
        {
          "internalType": "address",
          "name": "newOwner",
          "type": "address"
        }
      ],
      "name": "transferOwnership",
      "outputs": [],
      "stateMutability": "nonpayable",
      "type": "function"
    },
    {
      "inputs": [
        {
          "internalType": "address",
          "name": "",
          "type": "address"
        }
      ],
      "name": "userInfo",
      "outputs": [
        {
          "internalType": "uint256",
          "name": "amount",
          "type": "uint256"
        },
        {
          "internalType": "uint256",
          "name": "rewardDebt",
          "type": "uint256"
        }
      ],
      "stateMutability": "view",
      "type": "function",
      "constant": true
    },
    {
      "inputs": [
        {
          "internalType": "address",
          "name": "_user",
          "type": "address"
        }
      ],
      "name": "pendingReward",
      "outputs": [
        {
          "internalType": "uint256",
          "name": "",
          "type": "uint256"
        }
      ],
      "stateMutability": "view",
      "type": "function",
      "constant": true
    },
    {
      "inputs": [],
      "name": "updatePool",
      "outputs": [],
      "stateMutability": "nonpayable",
      "type": "function"
    },
    {
      "inputs": [
        {
          "internalType": "uint256",
          "name": "_amountToStake",
          "type": "uint256"
        }
      ],
      "name": "stakeTokens",
      "outputs": [],
      "stateMutability": "nonpayable",
      "type": "function"
    },
    {
      "inputs": [
        {
          "internalType": "uint256",
          "name": "_amount",
          "type": "uint256"
        }
      ],
      "name": "withdrawStake",
      "outputs": [],
      "stateMutability": "nonpayable",
      "type": "function"
    },
    {
      "inputs": [],
      "name": "emergencyWithdraw",
      "outputs": [],
      "stateMutability": "nonpayable",
      "type": "function"
    },
    {
      "inputs": [],
      "name": "withdrawPoolRemainder",
      "outputs": [],
      "stateMutability": "nonpayable",
      "type": "function"
    }
  ],
  "bytecode": "0x60806040523480156200001157600080fd5b506040516200248238038062002482833981810160405260a08110156200003757600080fd5b810190808051906020019092919080519060200190929190805190602001909291908051906020019092919080519060200190929190505050600062000082620002bf60201b60201c565b9050806000806101000a81548173ffffffffffffffffffffffffffffffffffffffff021916908373ffffffffffffffffffffffffffffffffffffffff1602179055508073ffffffffffffffffffffffffffffffffffffffff16600073ffffffffffffffffffffffffffffffffffffffff167f8be0079c531659141344cd1fd0a4f28419497f9722a3daafe3b4186f6b6457e060405160405180910390a3506001808190555084600260006101000a81548173ffffffffffffffffffffffffffffffffffffffff021916908373ffffffffffffffffffffffffffffffffffffffff16021790555083600360006101000a81548173ffffffffffffffffffffffffffffffffffffffff021916908373ffffffffffffffffffffffffffffffffffffffff16021790555081831062000203576040517f08c379a000000000000000000000000000000000000000000000000000000000815260040180806020018281038252602a8152602001806200242c602a913960400191505060405180910390fd5b4382116200025d576040517f08c379a000000000000000000000000000000000000000000000000000000000815260040180806020018281038252602c81526020018062002456602c913960400191505060405180910390fd5b826004819055506004546005819055508160068190555080600a81905550620002ae620002998484620002c760201b620015151790919060201c565b826200031960201b6200155f1790919060201c565b600b819055505050505050620004fa565b600033905090565b60006200031183836040518060400160405280601e81526020017f536166654d6174683a207375627472616374696f6e206f766572666c6f7700008152506200036b60201b60201c565b905092915050565b60006200036383836040518060400160405280601a81526020017f536166654d6174683a206469766973696f6e206279207a65726f0000000000008152506200042f60201b60201c565b905092915050565b60008383111582906200041c576040517f08c379a00000000000000000000000000000000000000000000000000000000081526004018080602001828103825283818151815260200191508051906020019080838360005b83811015620003e0578082015181840152602081019050620003c3565b50505050905090810190601f1680156200040e5780820380516001836020036101000a031916815260200191505b509250505060405180910390fd5b5060008385039050809150509392505050565b60008083118290620004df576040517f08c379a00000000000000000000000000000000000000000000000000000000081526004018080602001828103825283818151815260200191508051906020019080838360005b83811015620004a357808201518184015260208101905062000486565b50505050905090810190601f168015620004d15780820380516001836020036101000a031916815260200191505b509250505060405180910390fd5b506000838581620004ec57fe5b049050809150509392505050565b611f22806200050a6000396000f3fe608060405234801561001057600080fd5b50600436106101425760003560e01c80638ae39cac116100b8578063db2e21bc1161007c578063db2e21bc1461038c578063e3161ddd14610396578063e42578ce146103a0578063f2fde38b146103be578063f40f0f5214610402578063f7c618c11461045a57610142565b80638ae39cac146102e05780638da5cb5b146102fe578063951fbcc814610332578063a9f8d18114610350578063d501953d1461036e57610142565b80634ed474d71161010a5780634ed474d71461022e5780636c4470fb1461024c578063715018a61461026a57806372f702f3146102745780637547c7a3146102a85780637647ca05146102d657610142565b806314d3bf41146101475780631959a0021461016557806325d5971f146101c45780632f3c9a4f146101f257806348cd4cb114610210575b600080fd5b61014f61048e565b6040518082815260200191505060405180910390f35b6101a76004803603602081101561017b57600080fd5b81019080803573ffffffffffffffffffffffffffffffffffffffff169060200190929190505050610494565b604051808381526020018281526020019250505060405180910390f35b6101f0600480360360208110156101da57600080fd5b81019080803590602001909291905050506104b8565b005b6101fa6107b5565b6040518082815260200191505060405180910390f35b6102186107bb565b6040518082815260200191505060405180910390f35b6102366107c1565b6040518082815260200191505060405180910390f35b6102546107c7565b6040518082815260200191505060405180910390f35b6102726107cd565b005b61027c610953565b604051808273ffffffffffffffffffffffffffffffffffffffff16815260200191505060405180910390f35b6102d4600480360360208110156102be57600080fd5b8101908080359060200190929190505050610979565b005b6102de610c02565b005b6102e8610f01565b6040518082815260200191505060405180910390f35b610306610f07565b604051808273ffffffffffffffffffffffffffffffffffffffff16815260200191505060405180910390f35b61033a610f30565b6040518082815260200191505060405180910390f35b610358610f36565b6040518082815260200191505060405180910390f35b610376610f3c565b6040518082815260200191505060405180910390f35b610394610f42565b005b61039e611116565b005b6103a86111b9565b6040518082815260200191505060405180910390f35b610400600480360360208110156103d457600080fd5b81019080803573ffffffffffffffffffffffffffffffffffffffff1690602001909291905050506111bf565b005b6104446004803603602081101561041857600080fd5b81019080803573ffffffffffffffffffffffffffffffffffffffff1690602001909291905050506113ca565b6040518082815260200191505060405180910390f35b6104626114ef565b604051808273ffffffffffffffffffffffffffffffffffffffff16815260200191505060405180910390f35b60075481565b600e6020528060005260406000206000915090508060000154908060010154905082565b60026001541415610531576040517f08c379a000000000000000000000000000000000000000000000000000000000815260040180806020018281038252601f8152602001807f5265656e7472616e637947756172643a207265656e7472616e742063616c6c0081525060200191505060405180910390fd5b60026001819055506000600e60003373ffffffffffffffffffffffffffffffffffffffff1673ffffffffffffffffffffffffffffffffffffffff168152602001908152602001600020905081816000015410156105f6576040517f08c379a00000000000000000000000000000000000000000000000000000000081526004018080602001828103825260128152602001807f77697468647261773a206e6f7420676f6f64000000000000000000000000000081525060200191505060405180910390fd5b6105fe611116565b600061062882604051806040016040529081600082015481526020016001820154815250506115a9565b905060008311156106bf5761064a83836000015461151590919063ffffffff16565b826000018190555061069f3384600260009054906101000a900473ffffffffffffffffffffffffffffffffffffffff1673ffffffffffffffffffffffffffffffffffffffff166116729092919063ffffffff16565b6000826000015414156106be576001600d600082825403925050819055505b5b6106d8826001015460095461151590919063ffffffff16565b600981905550610711670de0b6b3a7640000610703600c54856000015461171490919063ffffffff16565b61155f90919063ffffffff16565b8260010181905550610732826001015460095461179a90919063ffffffff16565b60098190555061074d8360075461151590919063ffffffff16565b6007819055503373ffffffffffffffffffffffffffffffffffffffff167f933735aa8de6d7547d0126171b2f31b9c34dd00f3ecd4be85a0ba047db4fafef8483604051808381526020018281526020019250505060405180910390a250506001808190555050565b600c5481565b60045481565b60065481565b600d5481565b6107d5611822565b73ffffffffffffffffffffffffffffffffffffffff1660008054906101000a900473ffffffffffffffffffffffffffffffffffffffff1673ffffffffffffffffffffffffffffffffffffffff1614610895576040517f08c379a00000000000000000000000000000000000000000000000000000000081526004018080602001828103825260208152602001807f4f776e61626c653a2063616c6c6572206973206e6f7420746865206f776e657281525060200191505060405180910390fd5b600073ffffffffffffffffffffffffffffffffffffffff1660008054906101000a900473ffffffffffffffffffffffffffffffffffffffff1673ffffffffffffffffffffffffffffffffffffffff167f8be0079c531659141344cd1fd0a4f28419497f9722a3daafe3b4186f6b6457e060405160405180910390a360008060006101000a81548173ffffffffffffffffffffffffffffffffffffffff021916908373ffffffffffffffffffffffffffffffffffffffff160217905550565b600260009054906101000a900473ffffffffffffffffffffffffffffffffffffffff1681565b600260015414156109f2576040517f08c379a000000000000000000000000000000000000000000000000000000000815260040180806020018281038252601f8152602001807f5265656e7472616e637947756172643a207265656e7472616e742063616c6c0081525060200191505060405180910390fd5b6002600181905550610a02611116565b600080600e60003373ffffffffffffffffffffffffffffffffffffffff1673ffffffffffffffffffffffffffffffffffffffff1681526020019081526020016000209050600081600001541115610a8257610a7b81604051806040016040529081600082015481526020016001820154815250506115a9565b9150610a94565b6001600d600082825401925050819055505b6000831115610b2757610aec333085600260009054906101000a900473ffffffffffffffffffffffffffffffffffffffff1673ffffffffffffffffffffffffffffffffffffffff1661182a909392919063ffffffff16565b610b0383826000015461179a90919063ffffffff16565b8160000181905550610b208360075461179a90919063ffffffff16565b6007819055505b610b40816001015460095461151590919063ffffffff16565b600981905550610b79670de0b6b3a7640000610b6b600c54846000015461171490919063ffffffff16565b61155f90919063ffffffff16565b8160010181905550610b9a816001015460095461179a90919063ffffffff16565b6009819055503373ffffffffffffffffffffffffffffffffffffffff167fdd2a19c3bdd089cbe77c04f5655f83de0504d6140d12c8667646f55d0557c4dc8484604051808381526020018281526020019250505060405180910390a250506001808190555050565b610c0a611822565b73ffffffffffffffffffffffffffffffffffffffff1660008054906101000a900473ffffffffffffffffffffffffffffffffffffffff1673ffffffffffffffffffffffffffffffffffffffff1614610cca576040517f08c379a00000000000000000000000000000000000000000000000000000000081526004018080602001828103825260208152602001807f4f776e61626c653a2063616c6c6572206973206e6f7420746865206f776e657281525060200191505060405180910390fd5b60026001541415610d43576040517f08c379a000000000000000000000000000000000000000000000000000000000815260040180806020018281038252601f8152602001807f5265656e7472616e637947756172643a207265656e7472616e742063616c6c0081525060200191505060405180910390fd5b60026001819055506006544311610dc2576040517f08c379a00000000000000000000000000000000000000000000000000000000081526004018080602001828103825260128152602001807f416c6c6f772061667465722066696e697368000000000000000000000000000081525060200191505060405180910390fd5b610dca611116565b6000610e11600954610e03670de0b6b3a7640000610df5600c5460075461171490919063ffffffff16565b61155f90919063ffffffff16565b61151590919063ffffffff16565b90506000610e3e82610e30600854600a5461151590919063ffffffff16565b61151590919063ffffffff16565b9050610e558160085461179a90919063ffffffff16565b600881905550610ea83382600360009054906101000a900473ffffffffffffffffffffffffffffffffffffffff1673ffffffffffffffffffffffffffffffffffffffff166116729092919063ffffffff16565b3373ffffffffffffffffffffffffffffffffffffffff167f575274ea138cb54fdd6aded4d581d6cfb06d6cda7b8d9c519804512d1d61b5a4826040518082815260200191505060405180910390a2505060018081905550565b600b5481565b60008060009054906101000a900473ffffffffffffffffffffffffffffffffffffffff16905090565b60095481565b60055481565b600a5481565b60026001541415610fbb576040517f08c379a000000000000000000000000000000000000000000000000000000000815260040180806020018281038252601f8152602001807f5265656e7472616e637947756172643a207265656e7472616e742063616c6c0081525060200191505060405180910390fd5b60026001819055506000600e60003373ffffffffffffffffffffffffffffffffffffffff1673ffffffffffffffffffffffffffffffffffffffff1681526020019081526020016000209050611057338260000154600260009054906101000a900473ffffffffffffffffffffffffffffffffffffffff1673ffffffffffffffffffffffffffffffffffffffff166116729092919063ffffffff16565b3373ffffffffffffffffffffffffffffffffffffffff167f5fafa99d0643513820be26656b45130b01e1c03062e1266bf36f88cbd3bd969582600001546040518082815260200191505060405180910390a26110c2816000015460075461151590919063ffffffff16565b6007819055506110e1816001015460095461151590919063ffffffff16565b60098190555060008160000181905550600081600101819055506001600d600082825403925050819055505060018081905550565b6005544311611124576111b7565b6000600754141561113b57436005819055506111b7565b6000611149600554436118eb565b90506000611162600b548361171490919063ffffffff16565b90506111a7611196600754611188670de0b6b3a76400008561171490919063ffffffff16565b61155f90919063ffffffff16565b600c5461179a90919063ffffffff16565b600c819055504360058190555050505b565b60085481565b6111c7611822565b73ffffffffffffffffffffffffffffffffffffffff1660008054906101000a900473ffffffffffffffffffffffffffffffffffffffff1673ffffffffffffffffffffffffffffffffffffffff1614611287576040517f08c379a00000000000000000000000000000000000000000000000000000000081526004018080602001828103825260208152602001807f4f776e61626c653a2063616c6c6572206973206e6f7420746865206f776e657281525060200191505060405180910390fd5b600073ffffffffffffffffffffffffffffffffffffffff168173ffffffffffffffffffffffffffffffffffffffff16141561130d576040517f08c379a0000000000000000000000000000000000000000000000000000000008152600401808060200182810382526026815260200180611e566026913960400191505060405180910390fd5b8073ffffffffffffffffffffffffffffffffffffffff1660008054906101000a900473ffffffffffffffffffffffffffffffffffffffff1673ffffffffffffffffffffffffffffffffffffffff167f8be0079c531659141344cd1fd0a4f28419497f9722a3daafe3b4186f6b6457e060405160405180910390a3806000806101000a81548173ffffffffffffffffffffffffffffffffffffffff021916908373ffffffffffffffffffffffffffffffffffffffff16021790555050565b600080600e60008473ffffffffffffffffffffffffffffffffffffffff1673ffffffffffffffffffffffffffffffffffffffff16815260200190815260200160002090506000600c549050600554431180156114295750600060075414155b1561149f57600061143c600554436118eb565b90506000611455600b548361171490919063ffffffff16565b905061149a61148960075461147b670de0b6b3a76400008561171490919063ffffffff16565b61155f90919063ffffffff16565b600c5461179a90919063ffffffff16565b925050505b6114e682600101546114d8670de0b6b3a76400006114ca85876000015461171490919063ffffffff16565b61155f90919063ffffffff16565b61151590919063ffffffff16565b92505050919050565b600360009054906101000a900473ffffffffffffffffffffffffffffffffffffffff1681565b600061155783836040518060400160405280601e81526020017f536166654d6174683a207375627472616374696f6e206f766572666c6f770000815250611940565b905092915050565b60006115a183836040518060400160405280601a81526020017f536166654d6174683a206469766973696f6e206279207a65726f000000000000815250611a00565b905092915050565b6000806115f583602001516115e7670de0b6b3a76400006115d9600c54886000015161171490919063ffffffff16565b61155f90919063ffffffff16565b61151590919063ffffffff16565b905060008111156116695761164d3382600360009054906101000a900473ffffffffffffffffffffffffffffffffffffffff1673ffffffffffffffffffffffffffffffffffffffff166116729092919063ffffffff16565b6116628160085461179a90919063ffffffff16565b6008819055505b80915050919050565b61170f8363a9059cbb60e01b8484604051602401808373ffffffffffffffffffffffffffffffffffffffff16815260200182815260200192505050604051602081830303815290604052907bffffffffffffffffffffffffffffffffffffffffffffffffffffffff19166020820180517bffffffffffffffffffffffffffffffffffffffffffffffffffffffff8381831617835250505050611ac6565b505050565b6000808314156117275760009050611794565b600082840290508284828161173857fe5b041461178f576040517f08c379a0000000000000000000000000000000000000000000000000000000008152600401808060200182810382526021815260200180611ea26021913960400191505060405180910390fd5b809150505b92915050565b600080828401905083811015611818576040517f08c379a000000000000000000000000000000000000000000000000000000000815260040180806020018281038252601b8152602001807f536166654d6174683a206164646974696f6e206f766572666c6f77000000000081525060200191505060405180910390fd5b8091505092915050565b600033905090565b6118e5846323b872dd60e01b858585604051602401808473ffffffffffffffffffffffffffffffffffffffff1681526020018373ffffffffffffffffffffffffffffffffffffffff1681526020018281526020019350505050604051602081830303815290604052907bffffffffffffffffffffffffffffffffffffffffffffffffffffffff19166020820180517bffffffffffffffffffffffffffffffffffffffffffffffffffffffff8381831617835250505050611ac6565b50505050565b6000600654821161191057611909838361151590919063ffffffff16565b905061193a565b6006548310611922576000905061193a565b6119378360065461151590919063ffffffff16565b90505b92915050565b60008383111582906119ed576040517f08c379a00000000000000000000000000000000000000000000000000000000081526004018080602001828103825283818151815260200191508051906020019080838360005b838110156119b2578082015181840152602081019050611997565b50505050905090810190601f1680156119df5780820380516001836020036101000a031916815260200191505b509250505060405180910390fd5b5060008385039050809150509392505050565b60008083118290611aac576040517f08c379a00000000000000000000000000000000000000000000000000000000081526004018080602001828103825283818151815260200191508051906020019080838360005b83811015611a71578082015181840152602081019050611a56565b50505050905090810190601f168015611a9e5780820380516001836020036101000a031916815260200191505b509250505060405180910390fd5b506000838581611ab857fe5b049050809150509392505050565b6060611b28826040518060400160405280602081526020017f5361666545524332303a206c6f772d6c6576656c2063616c6c206661696c65648152508573ffffffffffffffffffffffffffffffffffffffff16611bb59092919063ffffffff16565b9050600081511115611bb057808060200190516020811015611b4957600080fd5b8101908080519060200190929190505050611baf576040517f08c379a000000000000000000000000000000000000000000000000000000000815260040180806020018281038252602a815260200180611ec3602a913960400191505060405180910390fd5b5b505050565b6060611bc48484600085611bcd565b90509392505050565b606082471015611c28576040517f08c379a0000000000000000000000000000000000000000000000000000000008152600401808060200182810382526026815260200180611e7c6026913960400191505060405180910390fd5b611c3185611d76565b611ca3576040517f08c379a000000000000000000000000000000000000000000000000000000000815260040180806020018281038252601d8152602001807f416464726573733a2063616c6c20746f206e6f6e2d636f6e747261637400000081525060200191505060405180910390fd5b600060608673ffffffffffffffffffffffffffffffffffffffff1685876040518082805190602001908083835b60208310611cf35780518252602082019150602081019050602083039250611cd0565b6001836020036101000a03801982511681845116808217855250505050505090500191505060006040518083038185875af1925050503d8060008114611d55576040519150601f19603f3d011682016040523d82523d6000602084013e611d5a565b606091505b5091509150611d6a828286611d89565b92505050949350505050565b600080823b905060008111915050919050565b60608315611d9957829050611e4e565b600083511115611dac5782518084602001fd5b816040517f08c379a00000000000000000000000000000000000000000000000000000000081526004018080602001828103825283818151815260200191508051906020019080838360005b83811015611e13578082015181840152602081019050611df8565b50505050905090810190601f168015611e405780820380516001836020036101000a031916815260200191505b509250505060405180910390fd5b939250505056fe4f776e61626c653a206e6577206f776e657220697320746865207a65726f2061646472657373416464726573733a20696e73756666696369656e742062616c616e636520666f722063616c6c536166654d6174683a206d756c7469706c69636174696f6e206f766572666c6f775361666545524332303a204552433230206f7065726174696f6e20646964206e6f742073756363656564a2646970667358221220e2271a0eda8e9bd69b8a674a7ad132b5475a6a41b77ed41731741308c52017e864736f6c634300060c0033737461727420626c6f636b206d757374206265206c657373207468616e2066696e69736820626c6f636b66696e69736820626c6f636b206d757374206265206d6f7265207468616e2063757272656e7420626c6f636b",
  "immutableReferences": {},
  "source": "pragma solidity 0.6.12;\r\n\r\nimport \"@openzeppelin/contracts/access/Ownable.sol\";\r\nimport \"@openzeppelin/contracts/utils/ReentrancyGuard.sol\";\r\nimport \"@openzeppelin/contracts/math/SafeMath.sol\";\r\nimport \"@openzeppelin/contracts/token/ERC20/SafeERC20.sol\";\r\nimport \"@openzeppelin/contracts/token/ERC20/IERC20.sol\";\r\n\r\ncontract StakingPool is Ownable, ReentrancyGuard {\r\n    using SafeMath for uint256;\r\n    using SafeERC20 for IERC20;\r\n\r\n    IERC20 public stakingToken;\r\n    IERC20 public rewardToken;\r\n    uint256 public startBlock;\r\n    uint256 public lastRewardBlock;\r\n    uint256 public finishBlock;\r\n    uint256 public allStakedAmount;\r\n    uint256 public allPaidReward;\r\n    uint256 public allRewardDebt;\r\n    uint256 public poolTokenAmount;\r\n    uint256 public rewardPerBlock;\r\n    uint256 public accTokensPerShare; // Accumulated tokens per share\r\n    uint256 public participants; //Count of participants\r\n\r\n    // Info of each user.\r\n    struct UserInfo {\r\n        uint256 amount;     // How many tokens the user has staked.\r\n        uint256 rewardDebt; // Reward debt\r\n    }\r\n\r\n    mapping (address => UserInfo) public userInfo;\r\n\r\n    event FinishBlockUpdated(uint256 newFinishBlock);\r\n    event PoolReplenished(uint256 amount);\r\n    event TokensStaked(address indexed user, uint256 amount, uint256 reward);\r\n    event StakeWithdrawn(address indexed user, uint256 amount, uint256 reward);\r\n    event EmergencyWithdraw(address indexed user, uint256 amount);\r\n\r\n    event WithdrawPoolRemainder(address indexed user, uint256 amount);\r\n\r\n    constructor(\r\n        IERC20 _stakingToken,\r\n        IERC20 _poolToken,\r\n        uint256 _startBlock,\r\n        uint256 _finishBlock,\r\n        uint256 _poolTokenAmount\r\n    ) public {\r\n        stakingToken = _stakingToken;\r\n        rewardToken = _poolToken;\r\n        require(\r\n            _startBlock < _finishBlock,\r\n            \"start block must be less than finish block\"\r\n        );\r\n        require(\r\n            _finishBlock > block.number,\r\n            \"finish block must be more than current block\"\r\n        );\r\n        startBlock = _startBlock;\r\n        lastRewardBlock = startBlock;\r\n        finishBlock = _finishBlock;\r\n        poolTokenAmount = _poolTokenAmount;\r\n        rewardPerBlock = _poolTokenAmount.div(_finishBlock.sub(_startBlock));\r\n    }\r\n\r\n    function getMultiplier(uint256 _from, uint256 _to)\r\n        internal\r\n        view\r\n        returns (uint256)\r\n    {\r\n        if (_to <= finishBlock) {\r\n            return _to.sub(_from);\r\n        } else if (_from >= finishBlock) {\r\n            return 0;\r\n        } else {\r\n            return finishBlock.sub(_from);\r\n        }\r\n    }\r\n\r\n    // View function to see pending Reward on frontend.\r\n    function pendingReward(address _user) external view returns (uint256) {\r\n        UserInfo storage user = userInfo[_user];\r\n        uint256 tempAccTokensPerShare = accTokensPerShare;\r\n        if (block.number > lastRewardBlock && allStakedAmount != 0) {\r\n            uint256 multiplier = getMultiplier(lastRewardBlock, block.number);\r\n            uint256 reward = multiplier.mul(rewardPerBlock);\r\n            tempAccTokensPerShare = accTokensPerShare.add(\r\n                reward.mul(1e18).div(allStakedAmount)\r\n            );\r\n        }\r\n        return user.amount.mul(tempAccTokensPerShare).div(1e18).sub(user.rewardDebt);\r\n    }\r\n\r\n    // Update reward variables of the given pool to be up-to-date.\r\n    function updatePool() public {\r\n        if (block.number <= lastRewardBlock) {\r\n            return;\r\n        }\r\n        if (allStakedAmount == 0) {\r\n            lastRewardBlock = block.number;\r\n            return;\r\n        }\r\n\r\n        uint256 multiplier = getMultiplier(lastRewardBlock, block.number);\r\n        uint256 reward = multiplier.mul(rewardPerBlock);\r\n        accTokensPerShare = accTokensPerShare.add(\r\n            reward.mul(1e18).div(allStakedAmount)\r\n        );\r\n        lastRewardBlock = block.number;\r\n    }\r\n\r\n    function stakeTokens(uint256 _amountToStake) external nonReentrant{\r\n        updatePool();\r\n        uint256 pending = 0;\r\n        UserInfo storage user = userInfo[msg.sender];\r\n        if (user.amount > 0) {\r\n            pending = transferPendingReward(user);\r\n        }\r\n        else{\r\n            participants +=1;\r\n        }\r\n\r\n        if (_amountToStake > 0) {\r\n            stakingToken.safeTransferFrom(msg.sender, address(this), _amountToStake);\r\n            user.amount = user.amount.add(_amountToStake);\r\n            allStakedAmount = allStakedAmount.add(_amountToStake);\r\n        }\r\n\r\n        allRewardDebt = allRewardDebt.sub(user.rewardDebt);\r\n        user.rewardDebt = user.amount.mul(accTokensPerShare).div(1e18);\r\n        allRewardDebt = allRewardDebt.add(user.rewardDebt);\r\n        emit TokensStaked(msg.sender, _amountToStake, pending);\r\n    }\r\n\r\n    // Leave the pool. Claim back your tokens.\r\n    // Unclocks the staked + gained tokens and burns pool shares\r\n    function withdrawStake(uint256 _amount) external nonReentrant {\r\n        UserInfo storage user = userInfo[msg.sender];\r\n        require(user.amount >= _amount, \"withdraw: not good\");\r\n        updatePool();\r\n        uint256 pending = transferPendingReward(user);\r\n\r\n        if (_amount > 0) {\r\n            user.amount = user.amount.sub(_amount);\r\n            stakingToken.safeTransfer(msg.sender, _amount);\r\n            if(user.amount == 0){\r\n                participants -= 1;\r\n            }\r\n        }\r\n        allRewardDebt = allRewardDebt.sub(user.rewardDebt);\r\n        user.rewardDebt = user.amount.mul(accTokensPerShare).div(1e18);\r\n        allRewardDebt = allRewardDebt.add(user.rewardDebt);\r\n        allStakedAmount = allStakedAmount.sub(_amount);\r\n\r\n        emit StakeWithdrawn(msg.sender, _amount, pending);\r\n    }\r\n\r\n    function transferPendingReward(UserInfo memory user) private returns (uint256) {\r\n        uint256 pending = user.amount.mul(accTokensPerShare).div(1e18).sub(user.rewardDebt);\r\n\r\n        if (pending > 0) {\r\n            rewardToken.safeTransfer(msg.sender, pending);\r\n            allPaidReward = allPaidReward.add(pending);\r\n        }\r\n\r\n        return pending;\r\n    }\r\n\r\n    // Withdraw without caring about rewards. EMERGENCY ONLY.\r\n    function emergencyWithdraw() external nonReentrant{\r\n        UserInfo storage user = userInfo[msg.sender];\r\n        stakingToken.safeTransfer(msg.sender, user.amount);\r\n        emit EmergencyWithdraw(msg.sender, user.amount);\r\n\r\n        allStakedAmount = allStakedAmount.sub(user.amount);\r\n        allRewardDebt = allRewardDebt.sub(user.rewardDebt);\r\n        user.amount = 0;\r\n        user.rewardDebt = 0;\r\n        participants -=1;\r\n    }\r\n\r\n\r\n    function withdrawPoolRemainder() external onlyOwner nonReentrant{\r\n        require(block.number > finishBlock, \"Allow after finish\");\r\n        updatePool();\r\n        uint256 pending = allStakedAmount.mul(accTokensPerShare).div(1e18).sub(allRewardDebt);\r\n        uint256 returnAmount = poolTokenAmount.sub(allPaidReward).sub(pending);\r\n        allPaidReward = allPaidReward.add(returnAmount);\r\n\r\n        rewardToken.safeTransfer(msg.sender, returnAmount);\r\n        emit WithdrawPoolRemainder(msg.sender, returnAmount);\r\n    }\r\n}\r\n",
  "sourcePath": "F:\\PROJECTS\\StakeMaster\\contracts\\StakingPool.sol",
  "compiler": {
    "name": "solc",
    "version": "0.6.12+commit.27d51765.Emscripten.clang"
  },
  "schemaVersion": "3.3.2",
  "updatedAt": "2021-02-04T16:26:55.138Z",
  "networkType": "ethereum",
  "devdoc": {
    "kind": "dev",
    "methods": {
      "owner()": {
        "details": "Returns the address of the current owner."
      },
      "renounceOwnership()": {
        "details": "Leaves the contract without owner. It will not be possible to call `onlyOwner` functions anymore. Can only be called by the current owner. NOTE: Renouncing ownership will leave the contract without an owner, thereby removing any functionality that is only available to the owner."
      },
      "transferOwnership(address)": {
        "details": "Transfers ownership of the contract to a new account (`newOwner`). Can only be called by the current owner."
      }
    },
    "version": 1
  },
  "userdoc": {
    "kind": "user",
    "methods": {},
    "version": 1
  }
}