{
  "contractName": "StakeMaster",
  "abi": [
    {
      "inputs": [
        {
          "internalType": "contract ERC20Burnable",
          "name": "_feeToken",
          "type": "address"
        },
        {
          "internalType": "address",
          "name": "_feeWallet",
          "type": "address"
        },
        {
          "internalType": "uint256",
          "name": "_feeAmount",
          "type": "uint256"
        },
        {
          "internalType": "uint256",
          "name": "_burnPercent",
          "type": "uint256"
        }
      ],
      "stateMutability": "nonpayable",
      "type": "constructor"
    },
    {
      "anonymous": false,
      "inputs": [
        {
          "indexed": false,
          "internalType": "uint256",
          "name": "newBurnPercent",
          "type": "uint256"
        },
        {
          "indexed": false,
          "internalType": "uint256",
          "name": "divider",
          "type": "uint256"
        }
      ],
      "name": "BurnPercentUpdated",
      "type": "event"
    },
    {
      "anonymous": false,
      "inputs": [
        {
          "indexed": false,
          "internalType": "uint256",
          "name": "newFeeAmount",
          "type": "uint256"
        }
      ],
      "name": "FeeAmountUpdated",
      "type": "event"
    },
    {
      "anonymous": false,
      "inputs": [
        {
          "indexed": false,
          "internalType": "address",
          "name": "newFeeWallet",
          "type": "address"
        }
      ],
      "name": "FeeWalletUpdated",
      "type": "event"
    },
    {
      "anonymous": false,
      "inputs": [
        {
          "indexed": true,
          "internalType": "address",
          "name": "previousOwner",
          "type": "address"
        },
        {
          "indexed": true,
          "internalType": "address",
          "name": "newOwner",
          "type": "address"
        }
      ],
      "name": "OwnershipTransferred",
      "type": "event"
    },
    {
      "anonymous": false,
      "inputs": [
        {
          "indexed": false,
          "internalType": "address",
          "name": "owner",
          "type": "address"
        },
        {
          "indexed": false,
          "internalType": "address",
          "name": "pool",
          "type": "address"
        },
        {
          "indexed": false,
          "internalType": "address",
          "name": "stakingToken",
          "type": "address"
        },
        {
          "indexed": false,
          "internalType": "address",
          "name": "poolToken",
          "type": "address"
        },
        {
          "indexed": false,
          "internalType": "uint256",
          "name": "startTime",
          "type": "uint256"
        },
        {
          "indexed": false,
          "internalType": "uint256",
          "name": "finishTime",
          "type": "uint256"
        },
        {
          "indexed": false,
          "internalType": "uint256",
          "name": "poolTokenAmount",
          "type": "uint256"
        }
      ],
      "name": "StakingPoolCreated",
      "type": "event"
    },
    {
      "anonymous": false,
      "inputs": [
        {
          "indexed": false,
          "internalType": "address",
          "name": "newFeeToken",
          "type": "address"
        }
      ],
      "name": "TokenFeeUpdated",
      "type": "event"
    },
    {
      "inputs": [],
      "name": "burnPercent",
      "outputs": [
        {
          "internalType": "uint256",
          "name": "",
          "type": "uint256"
        }
      ],
      "stateMutability": "view",
      "type": "function"
    },
    {
      "inputs": [],
      "name": "divider",
      "outputs": [
        {
          "internalType": "uint256",
          "name": "",
          "type": "uint256"
        }
      ],
      "stateMutability": "view",
      "type": "function"
    },
    {
      "inputs": [],
      "name": "feeAmount",
      "outputs": [
        {
          "internalType": "uint256",
          "name": "",
          "type": "uint256"
        }
      ],
      "stateMutability": "view",
      "type": "function"
    },
    {
      "inputs": [],
      "name": "feeToken",
      "outputs": [
        {
          "internalType": "contract ERC20Burnable",
          "name": "",
          "type": "address"
        }
      ],
      "stateMutability": "view",
      "type": "function"
    },
    {
      "inputs": [],
      "name": "feeWallet",
      "outputs": [
        {
          "internalType": "address",
          "name": "",
          "type": "address"
        }
      ],
      "stateMutability": "view",
      "type": "function"
    },
    {
      "inputs": [],
      "name": "owner",
      "outputs": [
        {
          "internalType": "address",
          "name": "",
          "type": "address"
        }
      ],
      "stateMutability": "view",
      "type": "function"
    },
    {
      "inputs": [],
      "name": "renounceOwnership",
      "outputs": [],
      "stateMutability": "nonpayable",
      "type": "function"
    },
    {
      "inputs": [
        {
          "internalType": "address",
          "name": "newOwner",
          "type": "address"
        }
      ],
      "name": "transferOwnership",
      "outputs": [],
      "stateMutability": "nonpayable",
      "type": "function"
    },
    {
      "inputs": [
        {
          "internalType": "address",
          "name": "_newFeeToken",
          "type": "address"
        }
      ],
      "name": "setFeeToken",
      "outputs": [],
      "stateMutability": "nonpayable",
      "type": "function"
    },
    {
      "inputs": [
        {
          "internalType": "uint256",
          "name": "_newFeeAmount",
          "type": "uint256"
        }
      ],
      "name": "setFeeAmount",
      "outputs": [],
      "stateMutability": "nonpayable",
      "type": "function"
    },
    {
      "inputs": [
        {
          "internalType": "address",
          "name": "_newFeeWallet",
          "type": "address"
        }
      ],
      "name": "setFeeWallet",
      "outputs": [],
      "stateMutability": "nonpayable",
      "type": "function"
    },
    {
      "inputs": [
        {
          "internalType": "uint256",
          "name": "_newBurnPercent",
          "type": "uint256"
        },
        {
          "internalType": "uint256",
          "name": "_newDivider",
          "type": "uint256"
        }
      ],
      "name": "setBurnPercent",
      "outputs": [],
      "stateMutability": "nonpayable",
      "type": "function"
    },
    {
      "inputs": [
        {
          "internalType": "contract IERC20",
          "name": "_stakingToken",
          "type": "address"
        },
        {
          "internalType": "contract IERC20",
          "name": "_poolToken",
          "type": "address"
        },
        {
          "internalType": "uint256",
          "name": "_startTime",
          "type": "uint256"
        },
        {
          "internalType": "uint256",
          "name": "_finishTime",
          "type": "uint256"
        },
        {
          "internalType": "uint256",
          "name": "_poolTokenAmount",
          "type": "uint256"
        },
        {
          "internalType": "bool",
          "name": "_hasWhitelisting",
          "type": "bool"
        }
      ],
      "name": "createStakingPool",
      "outputs": [],
      "stateMutability": "nonpayable",
      "type": "function"
    },
    {
      "inputs": [],
      "name": "version",
      "outputs": [
        {
          "internalType": "uint256",
          "name": "",
          "type": "uint256"
        }
      ],
      "stateMutability": "pure",
      "type": "function"
    }
  ],
  "bytecode": "0x608060405234801561001057600080fd5b506040516152ad3803806152ad8339818101604052608081101561003357600080fd5b810190808051906020019092919080519060200190929190805190602001909291908051906020019092919050505060006100726101b160201b60201c565b9050806000806101000a81548173ffffffffffffffffffffffffffffffffffffffff021916908373ffffffffffffffffffffffffffffffffffffffff1602179055508073ffffffffffffffffffffffffffffffffffffffff16600073ffffffffffffffffffffffffffffffffffffffff167f8be0079c531659141344cd1fd0a4f28419497f9722a3daafe3b4186f6b6457e060405160405180910390a35083600160006101000a81548173ffffffffffffffffffffffffffffffffffffffff021916908373ffffffffffffffffffffffffffffffffffffffff1602179055508160038190555082600260006101000a81548173ffffffffffffffffffffffffffffffffffffffff021916908373ffffffffffffffffffffffffffffffffffffffff160217905550806004819055506064600581905550505050506101b9565b600033905090565b6150e5806101c86000396000f3fe60806040523480156200001157600080fd5b5060043610620001005760003560e01c80636b39268011620000995780638dc12991116200006f5780638dc12991146200030657806390d49b9d1462000341578063f25f4b561462000388578063f2fde38b14620003be5762000100565b80636b3926801462000293578063715018a614620002c45780638da5cb5b14620002d05762000100565b806354fd4d5011620000db57806354fd4d50146200018c57806355fbc3b014620001ac578063647846a5146200023d57806369e1540414620002735762000100565b806303807ee5146200010557806315cce2241462000125578063378efa37146200016c575b600080fd5b6200010f62000405565b6040518082815260200191505060405180910390f35b6200016a600480360360208110156200013d57600080fd5b81019080803573ffffffffffffffffffffffffffffffffffffffff1690602001909291905050506200040b565b005b62000176620005e5565b6040518082815260200191505060405180910390f35b62000196620005eb565b6040518082815260200191505060405180910390f35b6200023b600480360360c0811015620001c457600080fd5b81019080803573ffffffffffffffffffffffffffffffffffffffff169060200190929190803573ffffffffffffffffffffffffffffffffffffffff169060200190929190803590602001909291908035906020019092919080359060200190929190803515159060200190929190505050620005f4565b005b6200024762000ace565b604051808273ffffffffffffffffffffffffffffffffffffffff16815260200191505060405180910390f35b6200027d62000af4565b6040518082815260200191505060405180910390f35b620002c260048036036020811015620002ab57600080fd5b810190808035906020019092919050505062000afa565b005b620002ce62000c06565b005b620002da62000d8f565b604051808273ffffffffffffffffffffffffffffffffffffffff16815260200191505060405180910390f35b6200033f600480360360408110156200031e57600080fd5b81019080803590602001909291908035906020019092919050505062000db8565b005b62000386600480360360208110156200035957600080fd5b81019080803573ffffffffffffffffffffffffffffffffffffffff16906020019092919050505062000f2f565b005b620003926200108b565b604051808273ffffffffffffffffffffffffffffffffffffffff16815260200191505060405180910390f35b6200040360048036036020811015620003d657600080fd5b81019080803573ffffffffffffffffffffffffffffffffffffffff169060200190929190505050620010b1565b005b60045481565b62000415620012c1565b73ffffffffffffffffffffffffffffffffffffffff1660008054906101000a900473ffffffffffffffffffffffffffffffffffffffff1673ffffffffffffffffffffffffffffffffffffffff1614620004d6576040517f08c379a00000000000000000000000000000000000000000000000000000000081526004018080602001828103825260208152602001807f4f776e61626c653a2063616c6c6572206973206e6f7420746865206f776e657281525060200191505060405180910390fd5b620004e181620012c9565b62000554576040517f08c379a000000000000000000000000000000000000000000000000000000000815260040180806020018281038252601a8152602001807f4e65772061646472657373206973206e6f74206120746f6b656e00000000000081525060200191505060405180910390fd5b80600160006101000a81548173ffffffffffffffffffffffffffffffffffffffff021916908373ffffffffffffffffffffffffffffffffffffffff1602179055507f9e892f555b0a5cac6c8cc33c82ebb9308207bd16dfdca9d0289b96d7e4186c8a81604051808273ffffffffffffffffffffffffffffffffffffffff16815260200191505060405180910390a150565b60055481565b60006065905090565b60006003541115620007a95760006200063160055462000622600454600354620012e290919063ffffffff16565b6200136d90919063ffffffff16565b9050620006bc33600260009054906101000a900473ffffffffffffffffffffffffffffffffffffffff166200067284600354620013b990919063ffffffff16565b600160009054906101000a900473ffffffffffffffffffffffffffffffffffffffff1673ffffffffffffffffffffffffffffffffffffffff1662001405909392919063ffffffff16565b6000811115620007a75762000717333083600160009054906101000a900473ffffffffffffffffffffffffffffffffffffffff1673ffffffffffffffffffffffffffffffffffffffff1662001405909392919063ffffffff16565b600160009054906101000a900473ffffffffffffffffffffffffffffffffffffffff1673ffffffffffffffffffffffffffffffffffffffff166342966c68826040518263ffffffff1660e01b815260040180828152602001915050600060405180830381600087803b1580156200078d57600080fd5b505af1158015620007a2573d6000803e3d6000fd5b505050505b505b6000868686868686604051620007bf90620019ff565b808773ffffffffffffffffffffffffffffffffffffffff1681526020018673ffffffffffffffffffffffffffffffffffffffff16815260200185815260200184815260200183815260200182151581526020019650505050505050604051809103906000f08015801562000837573d6000803e3d6000fd5b5090508073ffffffffffffffffffffffffffffffffffffffff1663f2fde38b336040518263ffffffff1660e01b8152600401808273ffffffffffffffffffffffffffffffffffffffff168152602001915050600060405180830381600087803b158015620008a457600080fd5b505af1158015620008b9573d6000803e3d6000fd5b50505050620008ec3382858973ffffffffffffffffffffffffffffffffffffffff1662001405909392919063ffffffff16565b828673ffffffffffffffffffffffffffffffffffffffff166370a08231836040518263ffffffff1660e01b8152600401808273ffffffffffffffffffffffffffffffffffffffff16815260200191505060206040518083038186803b1580156200095557600080fd5b505afa1580156200096a573d6000803e3d6000fd5b505050506040513d60208110156200098157600080fd5b81019080805190602001909291905050501462000a06576040517f08c379a00000000000000000000000000000000000000000000000000000000081526004018080602001828103825260118152602001807f556e737570706f7274656420746f6b656e00000000000000000000000000000081525060200191505060405180910390fd5b7f3d9e4692fdd0545c355fd422714ba89dc9fe8774bc77de3fe8159df3e466cbe033828989898989604051808873ffffffffffffffffffffffffffffffffffffffff1681526020018773ffffffffffffffffffffffffffffffffffffffff1681526020018673ffffffffffffffffffffffffffffffffffffffff1681526020018573ffffffffffffffffffffffffffffffffffffffff16815260200184815260200183815260200182815260200197505050505050505060405180910390a150505050505050565b600160009054906101000a900473ffffffffffffffffffffffffffffffffffffffff1681565b60035481565b62000b04620012c1565b73ffffffffffffffffffffffffffffffffffffffff1660008054906101000a900473ffffffffffffffffffffffffffffffffffffffff1673ffffffffffffffffffffffffffffffffffffffff161462000bc5576040517f08c379a00000000000000000000000000000000000000000000000000000000081526004018080602001828103825260208152602001807f4f776e61626c653a2063616c6c6572206973206e6f7420746865206f776e657281525060200191505060405180910390fd5b806003819055507fbb128cd9921d003aff00ed910fe24b1655b2bf1f4a2090cc3523f61bdc172316816040518082815260200191505060405180910390a150565b62000c10620012c1565b73ffffffffffffffffffffffffffffffffffffffff1660008054906101000a900473ffffffffffffffffffffffffffffffffffffffff1673ffffffffffffffffffffffffffffffffffffffff161462000cd1576040517f08c379a00000000000000000000000000000000000000000000000000000000081526004018080602001828103825260208152602001807f4f776e61626c653a2063616c6c6572206973206e6f7420746865206f776e657281525060200191505060405180910390fd5b600073ffffffffffffffffffffffffffffffffffffffff1660008054906101000a900473ffffffffffffffffffffffffffffffffffffffff1673ffffffffffffffffffffffffffffffffffffffff167f8be0079c531659141344cd1fd0a4f28419497f9722a3daafe3b4186f6b6457e060405160405180910390a360008060006101000a81548173ffffffffffffffffffffffffffffffffffffffff021916908373ffffffffffffffffffffffffffffffffffffffff160217905550565b60008060009054906101000a900473ffffffffffffffffffffffffffffffffffffffff16905090565b62000dc2620012c1565b73ffffffffffffffffffffffffffffffffffffffff1660008054906101000a900473ffffffffffffffffffffffffffffffffffffffff1673ffffffffffffffffffffffffffffffffffffffff161462000e83576040517f08c379a00000000000000000000000000000000000000000000000000000000081526004018080602001828103825260208152602001807f4f776e61626c653a2063616c6c6572206973206e6f7420746865206f776e657281525060200191505060405180910390fd5b8082111562000ede576040517f08c379a0000000000000000000000000000000000000000000000000000000008152600401808060200182810382526026815260200180620050606026913960400191505060405180910390fd5b81600481905550806005819055507fb62d69c6ddf4f4bd443dca17ea7405d8018efb872e82e77bb8ef13b5be2f2e9c8282604051808381526020018281526020019250505060405180910390a15050565b62000f39620012c1565b73ffffffffffffffffffffffffffffffffffffffff1660008054906101000a900473ffffffffffffffffffffffffffffffffffffffff1673ffffffffffffffffffffffffffffffffffffffff161462000ffa576040517f08c379a00000000000000000000000000000000000000000000000000000000081526004018080602001828103825260208152602001807f4f776e61626c653a2063616c6c6572206973206e6f7420746865206f776e657281525060200191505060405180910390fd5b80600260006101000a81548173ffffffffffffffffffffffffffffffffffffffff021916908373ffffffffffffffffffffffffffffffffffffffff1602179055507f29acee77dafcfa0143d74a7ea236018f3a6e1fa71e27fc59bbfbc6b8ca8edccd81604051808273ffffffffffffffffffffffffffffffffffffffff16815260200191505060405180910390a150565b600260009054906101000a900473ffffffffffffffffffffffffffffffffffffffff1681565b620010bb620012c1565b73ffffffffffffffffffffffffffffffffffffffff1660008054906101000a900473ffffffffffffffffffffffffffffffffffffffff1673ffffffffffffffffffffffffffffffffffffffff16146200117c576040517f08c379a00000000000000000000000000000000000000000000000000000000081526004018080602001828103825260208152602001807f4f776e61626c653a2063616c6c6572206973206e6f7420746865206f776e657281525060200191505060405180910390fd5b600073ffffffffffffffffffffffffffffffffffffffff168173ffffffffffffffffffffffffffffffffffffffff16141562001204576040517f08c379a000000000000000000000000000000000000000000000000000000000815260040180806020018281038252602681526020018062004ff36026913960400191505060405180910390fd5b8073ffffffffffffffffffffffffffffffffffffffff1660008054906101000a900473ffffffffffffffffffffffffffffffffffffffff1673ffffffffffffffffffffffffffffffffffffffff167f8be0079c531659141344cd1fd0a4f28419497f9722a3daafe3b4186f6b6457e060405160405180910390a3806000806101000a81548173ffffffffffffffffffffffffffffffffffffffff021916908373ffffffffffffffffffffffffffffffffffffffff16021790555050565b600033905090565b600080823b905060008163ffffffff1611915050919050565b600080831415620012f7576000905062001367565b60008284029050828482816200130957fe5b041462001362576040517f08c379a00000000000000000000000000000000000000000000000000000000081526004018080602001828103825260218152602001806200503f6021913960400191505060405180910390fd5b809150505b92915050565b6000620013b183836040518060400160405280601a81526020017f536166654d6174683a206469766973696f6e206279207a65726f000000000000815250620014c8565b905092915050565b6000620013fd83836040518060400160405280601e81526020017f536166654d6174683a207375627472616374696f6e206f766572666c6f77000081525062001593565b905092915050565b620014c2846323b872dd60e01b858585604051602401808473ffffffffffffffffffffffffffffffffffffffff1681526020018373ffffffffffffffffffffffffffffffffffffffff1681526020018281526020019350505050604051602081830303815290604052907bffffffffffffffffffffffffffffffffffffffffffffffffffffffff19166020820180517bffffffffffffffffffffffffffffffffffffffffffffffffffffffff838183161783525050505062001657565b50505050565b6000808311829062001578576040517f08c379a00000000000000000000000000000000000000000000000000000000081526004018080602001828103825283818151815260200191508051906020019080838360005b838110156200153c5780820151818401526020810190506200151f565b50505050905090810190601f1680156200156a5780820380516001836020036101000a031916815260200191505b509250505060405180910390fd5b5060008385816200158557fe5b049050809150509392505050565b600083831115829062001644576040517f08c379a00000000000000000000000000000000000000000000000000000000081526004018080602001828103825283818151815260200191508051906020019080838360005b8381101562001608578082015181840152602081019050620015eb565b50505050905090810190601f168015620016365780820380516001836020036101000a031916815260200191505b509250505060405180910390fd5b5060008385039050809150509392505050565b6060620016bb826040518060400160405280602081526020017f5361666545524332303a206c6f772d6c6576656c2063616c6c206661696c65648152508573ffffffffffffffffffffffffffffffffffffffff166200174c9092919063ffffffff16565b90506000815111156200174757808060200190516020811015620016de57600080fd5b810190808051906020019092919050505062001746576040517f08c379a000000000000000000000000000000000000000000000000000000000815260040180806020018281038252602a81526020018062005086602a913960400191505060405180910390fd5b5b505050565b60606200175d848460008562001766565b90509392505050565b606082471015620017c3576040517f08c379a0000000000000000000000000000000000000000000000000000000008152600401808060200182810382526026815260200180620050196026913960400191505060405180910390fd5b620017ce856200191a565b62001841576040517f08c379a000000000000000000000000000000000000000000000000000000000815260040180806020018281038252601d8152602001807f416464726573733a2063616c6c20746f206e6f6e2d636f6e747261637400000081525060200191505060405180910390fd5b600060608673ffffffffffffffffffffffffffffffffffffffff1685876040518082805190602001908083835b602083106200189357805182526020820191506020810190506020830392506200186e565b6001836020036101000a03801982511681845116808217855250505050505090500191505060006040518083038185875af1925050503d8060008114620018f7576040519150601f19603f3d011682016040523d82523d6000602084013e620018fc565b606091505b50915091506200190e8282866200192d565b92505050949350505050565b600080823b905060008111915050919050565b606083156200193f57829050620019f8565b600083511115620019535782518084602001fd5b816040517f08c379a00000000000000000000000000000000000000000000000000000000081526004018080602001828103825283818151815260200191508051906020019080838360005b83811015620019bc5780820151818401526020810190506200199f565b50505050905090810190601f168015620019ea5780820380516001836020036101000a031916815260200191505b509250505060405180910390fd5b9392505050565b6135e58062001a0e8339019056fe60806040526000600260006101000a81548160ff0219169083151502179055503480156200002c57600080fd5b50604051620035e5380380620035e5833981810160405260c08110156200005257600080fd5b81019080805190602001909291908051906020019092919080519060200190929190805190602001909291908051906020019092919080519060200190929190505050806000620000a8620003c660201b60201c565b9050806000806101000a81548173ffffffffffffffffffffffffffffffffffffffff021916908373ffffffffffffffffffffffffffffffffffffffff1602179055508073ffffffffffffffffffffffffffffffffffffffff16600073ffffffffffffffffffffffffffffffffffffffff167f8be0079c531659141344cd1fd0a4f28419497f9722a3daafe3b4186f6b6457e060405160405180910390a35080600260006101000a81548160ff02191690831515021790555050600160038190555085600460016101000a81548173ffffffffffffffffffffffffffffffffffffffff021916908373ffffffffffffffffffffffffffffffffffffffff16021790555084600560006101000a81548173ffffffffffffffffffffffffffffffffffffffff021916908373ffffffffffffffffffffffffffffffffffffffff16021790555082841062000261576040517f08c379a000000000000000000000000000000000000000000000000000000000815260040180806020018281038252601e8152602001807f5374617274206d757374206265206c657373207468616e2066696e697368000081525060200191505060405180910390fd5b428411620002d7576040517f08c379a000000000000000000000000000000000000000000000000000000000815260040180806020018281038252601b8152602001807f5374617274206d757374206265206d6f7265207468616e206e6f77000000000081525060200191505060405180910390fd5b836006819055506006546007819055508260088190555081600c8190555062000328620003138585620003ce60201b620020dc1790919060201c565b836200042060201b620021261790919060201c565b600d81905550600560009054906101000a900473ffffffffffffffffffffffffffffffffffffffff1673ffffffffffffffffffffffffffffffffffffffff16600460019054906101000a900473ffffffffffffffffffffffffffffffffffffffff1673ffffffffffffffffffffffffffffffffffffffff1614600460006101000a81548160ff02191690831515021790555050505050505062000601565b600033905090565b60006200041883836040518060400160405280601e81526020017f536166654d6174683a207375627472616374696f6e206f766572666c6f7700008152506200047260201b60201c565b905092915050565b60006200046a83836040518060400160405280601a81526020017f536166654d6174683a206469766973696f6e206279207a65726f0000000000008152506200053660201b60201c565b905092915050565b600083831115829062000523576040517f08c379a00000000000000000000000000000000000000000000000000000000081526004018080602001828103825283818151815260200191508051906020019080838360005b83811015620004e7578082015181840152602081019050620004ca565b50505050905090810190601f168015620005155780820380516001836020036101000a031916815260200191505b509250505060405180910390fd5b5060008385039050809150509392505050565b60008083118290620005e6576040517f08c379a00000000000000000000000000000000000000000000000000000000081526004018080602001828103825283818151815260200191508051906020019080838360005b83811015620005aa5780820151818401526020810190506200058d565b50505050905090810190601f168015620005d85780820380516001836020036101000a031916815260200191505b509250505060405180910390fd5b506000838581620005f357fe5b049050809150509392505050565b612fd480620006116000396000f3fe608060405234801561001057600080fd5b50600436106101fb5760003560e01c80637647ca051161011a578063c4c1c94f116100ad578063e3161ddd1161007c578063e3161ddd146107a1578063e42578ce146107ab578063f2fde38b146107c9578063f40f0f521461080d578063f7c618c114610865576101fb565b8063c4c1c94f146106b7578063c5ebffb41461076f578063d501953d14610779578063db2e21bc14610797576101fb565b80639231cf74116100e95780639231cf7414610601578063951fbcc81461061f5780639b19251a1461063d578063c4b9b20014610697576101fb565b80637647ca051461057757806378e97925146105815780638746656f1461059f5780638da5cb5b146105cd576101fb565b80635958611e116101925780636eaaabd5116101615780636eaaabd5146104db578063715018a61461050b57806372f702f3146105155780637547c7a314610549576101fb565b80635958611e146103885780635e4ba17c146103a65780636386c1c71461045e5780636c4470fb146104bd576101fb565b80632f3c9a4f116101ce5780632f3c9a4f146102d45780633af32abf146102f25780634f41e95d1461034c57806354fd4d501461036a576101fb565b8063076623451461020057806314d3bf41146102205780631959a0021461023e57806325d5971f146102a6575b600080fd5b610208610899565b60405180821515815260200191505060405180910390f35b6102286108ac565b6040518082815260200191505060405180910390f35b6102806004803603602081101561025457600080fd5b81019080803573ffffffffffffffffffffffffffffffffffffffff1690602001909291905050506108b2565b604051808481526020018381526020018215158152602001935050505060405180910390f35b6102d2600480360360208110156102bc57600080fd5b81019080803590602001909291905050506108e9565b005b6102dc610be5565b6040518082815260200191505060405180910390f35b6103346004803603602081101561030857600080fd5b81019080803573ffffffffffffffffffffffffffffffffffffffff169060200190929190505050610beb565b60405180821515815260200191505060405180910390f35b610354610c41565b6040518082815260200191505060405180910390f35b610372610c47565b6040518082815260200191505060405180910390f35b610390610c50565b6040518082815260200191505060405180910390f35b61045c600480360360208110156103bc57600080fd5b81019080803590602001906401000000008111156103d957600080fd5b8201836020820111156103eb57600080fd5b8035906020019184602083028401116401000000008311171561040d57600080fd5b919080806020026020016040519081016040528093929190818152602001838360200280828437600081840152601f19601f820116905080830192505050505050509192919290505050610c56565b005b6104a06004803603602081101561047457600080fd5b81019080803573ffffffffffffffffffffffffffffffffffffffff169060200190929190505050610e4c565b604051808381526020018281526020019250505060405180910390f35b6104c5610ee6565b6040518082815260200191505060405180910390f35b610509600480360360208110156104f157600080fd5b81019080803515159060200190929190505050610eec565b005b610513611019565b005b61051d61119f565b604051808273ffffffffffffffffffffffffffffffffffffffff16815260200191505060405180910390f35b6105756004803603602081101561055f57600080fd5b81019080803590602001909291905050506111c5565b005b61057f611284565b005b610589611584565b6040518082815260200191505060405180910390f35b6105cb600480360360208110156105b557600080fd5b810190808035906020019092919050505061158a565b005b6105d561182f565b604051808273ffffffffffffffffffffffffffffffffffffffff16815260200191505060405180910390f35b610609611858565b6040518082815260200191505060405180910390f35b61062761185e565b6040518082815260200191505060405180910390f35b61067f6004803603602081101561065357600080fd5b81019080803573ffffffffffffffffffffffffffffffffffffffff169060200190929190505050611864565b60405180821515815260200191505060405180910390f35b61069f611884565b60405180821515815260200191505060405180910390f35b61076d600480360360208110156106cd57600080fd5b81019080803590602001906401000000008111156106ea57600080fd5b8201836020820111156106fc57600080fd5b8035906020019184602083028401116401000000008311171561071e57600080fd5b919080806020026020016040519081016040528093929190818152602001838360200280828437600081840152601f19601f820116905080830192505050505050509192919290505050611897565b005b610777611a46565b005b610781611b05565b6040518082815260200191505060405180910390f35b61079f611b0b565b005b6107a9611cdd565b005b6107b3611d80565b6040518082815260200191505060405180910390f35b61080b600480360360208110156107df57600080fd5b81019080803573ffffffffffffffffffffffffffffffffffffffff169060200190929190505050611d86565b005b61084f6004803603602081101561082357600080fd5b81019080803573ffffffffffffffffffffffffffffffffffffffff169060200190929190505050611f91565b6040518082815260200191505060405180910390f35b61086d6120b6565b604051808273ffffffffffffffffffffffffffffffffffffffff16815260200191505060405180910390f35b600260009054906101000a900460ff1681565b60095481565b60106020528060005260406000206000915090508060000154908060010154908060020160009054906101000a900460ff16905083565b60026003541415610962576040517f08c379a000000000000000000000000000000000000000000000000000000000815260040180806020018281038252601f8152602001807f5265656e7472616e637947756172643a207265656e7472616e742063616c6c0081525060200191505060405180910390fd5b60026003819055506000601060003373ffffffffffffffffffffffffffffffffffffffff1673ffffffffffffffffffffffffffffffffffffffff16815260200190815260200160002090508181600001541015610a27576040517f08c379a00000000000000000000000000000000000000000000000000000000081526004018080602001828103825260128152602001807f77697468647261773a206e6f7420676f6f64000000000000000000000000000081525060200191505060405180910390fd5b610a2f611cdd565b6000610a768260405180606001604052908160008201548152602001600182015481526020016002820160009054906101000a900460ff1615151515815250506000612170565b90506000831115610aee57610a988383600001546120dc90919063ffffffff16565b8260000181905550610aed3384600460019054906101000a900473ffffffffffffffffffffffffffffffffffffffff1673ffffffffffffffffffffffffffffffffffffffff166122409092919063ffffffff16565b5b610b078260010154600b546120dc90919063ffffffff16565b600b81905550610b40670de0b6b3a7640000610b32600e5485600001546122e290919063ffffffff16565b61212690919063ffffffff16565b8260010181905550610b618260010154600b5461236890919063ffffffff16565b600b81905550610b7c836009546120dc90919063ffffffff16565b6009819055503373ffffffffffffffffffffffffffffffffffffffff167f933735aa8de6d7547d0126171b2f31b9c34dd00f3ecd4be85a0ba047db4fafef8483604051808381526020018281526020019250505060405180910390a25050600160038190555050565b600e5481565b6000600160008373ffffffffffffffffffffffffffffffffffffffff1673ffffffffffffffffffffffffffffffffffffffff16815260200190815260200160002060009054906101000a900460ff169050919050565b600d5481565b60006065905090565b60085481565b610c5e6123f0565b73ffffffffffffffffffffffffffffffffffffffff1660008054906101000a900473ffffffffffffffffffffffffffffffffffffffff1673ffffffffffffffffffffffffffffffffffffffff1614610d1e576040517f08c379a00000000000000000000000000000000000000000000000000000000081526004018080602001828103825260208152602001807f4f776e61626c653a2063616c6c6572206973206e6f7420746865206f776e657281525060200191505060405180910390fd5b60005b8151811015610e48576000828281518110610d3857fe5b60200260200101519050600160008273ffffffffffffffffffffffffffffffffffffffff1673ffffffffffffffffffffffffffffffffffffffff16815260200190815260200160002060009054906101000a900460ff1615610e3a576000600160008373ffffffffffffffffffffffffffffffffffffffff1673ffffffffffffffffffffffffffffffffffffffff16815260200190815260200160002060006101000a81548160ff0219169083151502179055507fcdd2e9b91a56913d370075169cefa1602ba36be5301664f752192bb1709df75781604051808273ffffffffffffffffffffffffffffffffffffffff16815260200191505060405180910390a15b508080600101915050610d21565b5050565b600080610e57612ee4565b601060008573ffffffffffffffffffffffffffffffffffffffff1673ffffffffffffffffffffffffffffffffffffffff16815260200190815260200160002060405180606001604052908160008201548152602001600182015481526020016002820160009054906101000a900460ff1615151515815250509050806000015181602001519250925050915091565b600f5481565b610ef46123f0565b73ffffffffffffffffffffffffffffffffffffffff1660008054906101000a900473ffffffffffffffffffffffffffffffffffffffff1673ffffffffffffffffffffffffffffffffffffffff1614610fb4576040517f08c379a00000000000000000000000000000000000000000000000000000000081526004018080602001828103825260208152602001807f4f776e61626c653a2063616c6c6572206973206e6f7420746865206f776e657281525060200191505060405180910390fd5b80600260006101000a81548160ff0219169083151502179055507f81a1b67ab393231a9f3a2ce8c84cc6c46c76cc94cf733e155af6fb539873fa39600260009054906101000a900460ff1660405180821515815260200191505060405180910390a150565b6110216123f0565b73ffffffffffffffffffffffffffffffffffffffff1660008054906101000a900473ffffffffffffffffffffffffffffffffffffffff1673ffffffffffffffffffffffffffffffffffffffff16146110e1576040517f08c379a00000000000000000000000000000000000000000000000000000000081526004018080602001828103825260208152602001807f4f776e61626c653a2063616c6c6572206973206e6f7420746865206f776e657281525060200191505060405180910390fd5b600073ffffffffffffffffffffffffffffffffffffffff1660008054906101000a900473ffffffffffffffffffffffffffffffffffffffff1673ffffffffffffffffffffffffffffffffffffffff167f8be0079c531659141344cd1fd0a4f28419497f9722a3daafe3b4186f6b6457e060405160405180910390a360008060006101000a81548173ffffffffffffffffffffffffffffffffffffffff021916908373ffffffffffffffffffffffffffffffffffffffff160217905550565b600460019054906101000a900473ffffffffffffffffffffffffffffffffffffffff1681565b6002600354141561123e576040517f08c379a000000000000000000000000000000000000000000000000000000000815260040180806020018281038252601f8152602001807f5265656e7472616e637947756172643a207265656e7472616e742063616c6c0081525060200191505060405180910390fd5b6002600381905550600260009054906101000a900460ff161561126e5761126433610beb565b61126d57600080fd5b5b6112798160006123f8565b600160038190555050565b61128c6123f0565b73ffffffffffffffffffffffffffffffffffffffff1660008054906101000a900473ffffffffffffffffffffffffffffffffffffffff1673ffffffffffffffffffffffffffffffffffffffff161461134c576040517f08c379a00000000000000000000000000000000000000000000000000000000081526004018080602001828103825260208152602001807f4f776e61626c653a2063616c6c6572206973206e6f7420746865206f776e657281525060200191505060405180910390fd5b600260035414156113c5576040517f08c379a000000000000000000000000000000000000000000000000000000000815260040180806020018281038252601f8152602001807f5265656e7472616e637947756172643a207265656e7472616e742063616c6c0081525060200191505060405180910390fd5b60026003819055506008544211611444576040517f08c379a00000000000000000000000000000000000000000000000000000000081526004018080602001828103825260128152602001807f416c6c6f772061667465722066696e697368000000000000000000000000000081525060200191505060405180910390fd5b61144c611cdd565b6000611493600b54611485670de0b6b3a7640000611477600e546009546122e290919063ffffffff16565b61212690919063ffffffff16565b6120dc90919063ffffffff16565b905060006114c0826114b2600a54600c546120dc90919063ffffffff16565b6120dc90919063ffffffff16565b90506114d781600a5461236890919063ffffffff16565b600a8190555061152a3382600560009054906101000a900473ffffffffffffffffffffffffffffffffffffffff1673ffffffffffffffffffffffffffffffffffffffff166122409092919063ffffffff16565b3373ffffffffffffffffffffffffffffffffffffffff167f575274ea138cb54fdd6aded4d581d6cfb06d6cda7b8d9c519804512d1d61b5a4826040518082815260200191505060405180910390a250506001600381905550565b60065481565b6115926123f0565b73ffffffffffffffffffffffffffffffffffffffff1660008054906101000a900473ffffffffffffffffffffffffffffffffffffffff1673ffffffffffffffffffffffffffffffffffffffff1614611652576040517f08c379a00000000000000000000000000000000000000000000000000000000081526004018080602001828103825260208152602001807f4f776e61626c653a2063616c6c6572206973206e6f7420746865206f776e657281525060200191505060405180910390fd5b600260035414156116cb576040517f08c379a000000000000000000000000000000000000000000000000000000000815260040180806020018281038252601f8152602001807f5265656e7472616e637947756172643a207265656e7472616e742063616c6c0081525060200191505060405180910390fd5b6002600381905550600854421061174a576040517f08c379a00000000000000000000000000000000000000000000000000000000081526004018080602001828103825260118152602001807f506f6f6c207761732066696e697368656400000000000000000000000000000081525060200191505060405180910390fd5b611799333083600560009054906101000a900473ffffffffffffffffffffffffffffffffffffffff1673ffffffffffffffffffffffffffffffffffffffff166128a9909392919063ffffffff16565b6117ae81600c5461236890919063ffffffff16565b600c819055506117dd6117cc600d548361212690919063ffffffff16565b60085461236890919063ffffffff16565b6008819055507f127b91073863d59a24754139ce8786738818c7bfcf79fc24cadc1480bd32479181600854604051808381526020018281526020019250505060405180910390a1600160038190555050565b60008060009054906101000a900473ffffffffffffffffffffffffffffffffffffffff16905090565b60075481565b600b5481565b60016020528060005260406000206000915054906101000a900460ff1681565b600460009054906101000a900460ff1681565b61189f6123f0565b73ffffffffffffffffffffffffffffffffffffffff1660008054906101000a900473ffffffffffffffffffffffffffffffffffffffff1673ffffffffffffffffffffffffffffffffffffffff161461195f576040517f08c379a00000000000000000000000000000000000000000000000000000000081526004018080602001828103825260208152602001807f4f776e61626c653a2063616c6c6572206973206e6f7420746865206f776e657281525060200191505060405180910390fd5b60005b8151811015611a4257600180600084848151811061197c57fe5b602002602001015173ffffffffffffffffffffffffffffffffffffffff1673ffffffffffffffffffffffffffffffffffffffff16815260200190815260200160002060006101000a81548160ff0219169083151502179055507fa850ae9193f515cbae8d35e8925bd2be26627fc91bce650b8652ed254e9cab03828281518110611a0257fe5b6020026020010151604051808273ffffffffffffffffffffffffffffffffffffffff16815260200191505060405180910390a18080600101915050611962565b5050565b60026003541415611abf576040517f08c379a000000000000000000000000000000000000000000000000000000000815260040180806020018281038252601f8152602001807f5265656e7472616e637947756172643a207265656e7472616e742063616c6c0081525060200191505060405180910390fd5b6002600381905550600260009054906101000a900460ff1615611aef57611ae533610beb565b611aee57600080fd5b5b611afb600060016123f8565b6001600381905550565b600c5481565b60026003541415611b84576040517f08c379a000000000000000000000000000000000000000000000000000000000815260040180806020018281038252601f8152602001807f5265656e7472616e637947756172643a207265656e7472616e742063616c6c0081525060200191505060405180910390fd5b60026003819055506000601060003373ffffffffffffffffffffffffffffffffffffffff1673ffffffffffffffffffffffffffffffffffffffff1681526020019081526020016000209050600081600001541115611cd257611c2d338260000154600460019054906101000a900473ffffffffffffffffffffffffffffffffffffffff1673ffffffffffffffffffffffffffffffffffffffff166122409092919063ffffffff16565b3373ffffffffffffffffffffffffffffffffffffffff167f5fafa99d0643513820be26656b45130b01e1c03062e1266bf36f88cbd3bd969582600001546040518082815260200191505060405180910390a2611c9881600001546009546120dc90919063ffffffff16565b600981905550611cb78160010154600b546120dc90919063ffffffff16565b600b8190555060008160000181905550600081600101819055505b506001600381905550565b6007544211611ceb57611d7e565b60006009541415611d025742600781905550611d7e565b6000611d106007544261296a565b90506000611d29600d54836122e290919063ffffffff16565b9050611d6e611d5d600954611d4f670de0b6b3a7640000856122e290919063ffffffff16565b61212690919063ffffffff16565b600e5461236890919063ffffffff16565b600e819055504260078190555050505b565b600a5481565b611d8e6123f0565b73ffffffffffffffffffffffffffffffffffffffff1660008054906101000a900473ffffffffffffffffffffffffffffffffffffffff1673ffffffffffffffffffffffffffffffffffffffff1614611e4e576040517f08c379a00000000000000000000000000000000000000000000000000000000081526004018080602001828103825260208152602001807f4f776e61626c653a2063616c6c6572206973206e6f7420746865206f776e657281525060200191505060405180910390fd5b600073ffffffffffffffffffffffffffffffffffffffff168173ffffffffffffffffffffffffffffffffffffffff161415611ed4576040517f08c379a0000000000000000000000000000000000000000000000000000000008152600401808060200182810382526026815260200180612f086026913960400191505060405180910390fd5b8073ffffffffffffffffffffffffffffffffffffffff1660008054906101000a900473ffffffffffffffffffffffffffffffffffffffff1673ffffffffffffffffffffffffffffffffffffffff167f8be0079c531659141344cd1fd0a4f28419497f9722a3daafe3b4186f6b6457e060405160405180910390a3806000806101000a81548173ffffffffffffffffffffffffffffffffffffffff021916908373ffffffffffffffffffffffffffffffffffffffff16021790555050565b600080601060008473ffffffffffffffffffffffffffffffffffffffff1673ffffffffffffffffffffffffffffffffffffffff16815260200190815260200160002090506000600e54905060075442118015611ff05750600060095414155b156120665760006120036007544261296a565b9050600061201c600d54836122e290919063ffffffff16565b9050612061612050600954612042670de0b6b3a7640000856122e290919063ffffffff16565b61212690919063ffffffff16565b600e5461236890919063ffffffff16565b925050505b6120ad826001015461209f670de0b6b3a76400006120918587600001546122e290919063ffffffff16565b61212690919063ffffffff16565b6120dc90919063ffffffff16565b92505050919050565b600560009054906101000a900473ffffffffffffffffffffffffffffffffffffffff1681565b600061211e83836040518060400160405280601e81526020017f536166654d6174683a207375627472616374696f6e206f766572666c6f7700008152506129cf565b905092915050565b600061216883836040518060400160405280601a81526020017f536166654d6174683a206469766973696f6e206279207a65726f000000000000815250612a8f565b905092915050565b6000806121bc84602001516121ae670de0b6b3a76400006121a0600e5489600001516122e290919063ffffffff16565b61212690919063ffffffff16565b6120dc90919063ffffffff16565b90506000811115612236578261221a576122193382600560009054906101000a900473ffffffffffffffffffffffffffffffffffffffff1673ffffffffffffffffffffffffffffffffffffffff166122409092919063ffffffff16565b5b61222f81600a5461236890919063ffffffff16565b600a819055505b8091505092915050565b6122dd8363a9059cbb60e01b8484604051602401808373ffffffffffffffffffffffffffffffffffffffff16815260200182815260200192505050604051602081830303815290604052907bffffffffffffffffffffffffffffffffffffffffffffffffffffffff19166020820180517bffffffffffffffffffffffffffffffffffffffffffffffffffffffff8381831617835250505050612b55565b505050565b6000808314156122f55760009050612362565b600082840290508284828161230657fe5b041461235d576040517f08c379a0000000000000000000000000000000000000000000000000000000008152600401808060200182810382526021815260200180612f546021913960400191505060405180910390fd5b809150505b92915050565b6000808284019050838110156123e6576040517f08c379a000000000000000000000000000000000000000000000000000000000815260040180806020018281038252601b8152602001807f536166654d6174683a206164646974696f6e206f766572666c6f77000000000081525060200191505060405180910390fd5b8091505092915050565b600033905090565b612400611cdd565b600080601060003373ffffffffffffffffffffffffffffffffffffffff1673ffffffffffffffffffffffffffffffffffffffff16815260200190815260200160002090508060020160009054906101000a900460ff166124895760018160020160006101000a81548160ff0219169083151502179055506001600f600082825401925050819055505b6000816000015411156125a0576124da8160405180606001604052908160008201548152602001600182015481526020016002820160009054906101000a900460ff16151515158152505084612170565b9150821561259f57600460009054906101000a900460ff16612564576040517f08c379a00000000000000000000000000000000000000000000000000000000081526004018080602001828103825260118152602001807f5265696e766573742064697361626c656400000000000000000000000000000081525060200191505060405180910390fd5b61257b82826000015461236890919063ffffffff16565b81600001819055506125988260095461236890919063ffffffff16565b6009819055505b5b60008411156127ca576000600460019054906101000a900473ffffffffffffffffffffffffffffffffffffffff1673ffffffffffffffffffffffffffffffffffffffff166370a08231306040518263ffffffff1660e01b8152600401808273ffffffffffffffffffffffffffffffffffffffff16815260200191505060206040518083038186803b15801561263457600080fd5b505afa158015612648573d6000803e3d6000fd5b505050506040513d602081101561265e57600080fd5b810190808051906020019092919050505090506126c0333087600460019054906101000a900473ffffffffffffffffffffffffffffffffffffffff1673ffffffffffffffffffffffffffffffffffffffff166128a9909392919063ffffffff16565b600081600460019054906101000a900473ffffffffffffffffffffffffffffffffffffffff1673ffffffffffffffffffffffffffffffffffffffff166370a08231306040518263ffffffff1660e01b8152600401808273ffffffffffffffffffffffffffffffffffffffff16815260200191505060206040518083038186803b15801561274c57600080fd5b505afa158015612760573d6000803e3d6000fd5b505050506040513d602081101561277657600080fd5b81019080805190602001909291905050500390508095506127a486846000015461236890919063ffffffff16565b83600001819055506127c18660095461236890919063ffffffff16565b60098190555050505b6127e38160010154600b546120dc90919063ffffffff16565b600b8190555061281c670de0b6b3a764000061280e600e5484600001546122e290919063ffffffff16565b61212690919063ffffffff16565b816001018190555061283d8160010154600b5461236890919063ffffffff16565b600b819055503373ffffffffffffffffffffffffffffffffffffffff167f6363655a3c7ace10eb7a32098436bd120788e6c01329bb863799624f11b575f3858486604051808481526020018381526020018215158152602001935050505060405180910390a250505050565b612964846323b872dd60e01b858585604051602401808473ffffffffffffffffffffffffffffffffffffffff1681526020018373ffffffffffffffffffffffffffffffffffffffff1681526020018281526020019350505050604051602081830303815290604052907bffffffffffffffffffffffffffffffffffffffffffffffffffffffff19166020820180517bffffffffffffffffffffffffffffffffffffffffffffffffffffffff8381831617835250505050612b55565b50505050565b600081831061297c57600090506129c9565b600854821161299f5761299883836120dc90919063ffffffff16565b90506129c9565b60085483106129b157600090506129c9565b6129c6836008546120dc90919063ffffffff16565b90505b92915050565b6000838311158290612a7c576040517f08c379a00000000000000000000000000000000000000000000000000000000081526004018080602001828103825283818151815260200191508051906020019080838360005b83811015612a41578082015181840152602081019050612a26565b50505050905090810190601f168015612a6e5780820380516001836020036101000a031916815260200191505b509250505060405180910390fd5b5060008385039050809150509392505050565b60008083118290612b3b576040517f08c379a00000000000000000000000000000000000000000000000000000000081526004018080602001828103825283818151815260200191508051906020019080838360005b83811015612b00578082015181840152602081019050612ae5565b50505050905090810190601f168015612b2d5780820380516001836020036101000a031916815260200191505b509250505060405180910390fd5b506000838581612b4757fe5b049050809150509392505050565b6060612bb7826040518060400160405280602081526020017f5361666545524332303a206c6f772d6c6576656c2063616c6c206661696c65648152508573ffffffffffffffffffffffffffffffffffffffff16612c449092919063ffffffff16565b9050600081511115612c3f57808060200190516020811015612bd857600080fd5b8101908080519060200190929190505050612c3e576040517f08c379a000000000000000000000000000000000000000000000000000000000815260040180806020018281038252602a815260200180612f75602a913960400191505060405180910390fd5b5b505050565b6060612c538484600085612c5c565b90509392505050565b606082471015612cb7576040517f08c379a0000000000000000000000000000000000000000000000000000000008152600401808060200182810382526026815260200180612f2e6026913960400191505060405180910390fd5b612cc085612e05565b612d32576040517f08c379a000000000000000000000000000000000000000000000000000000000815260040180806020018281038252601d8152602001807f416464726573733a2063616c6c20746f206e6f6e2d636f6e747261637400000081525060200191505060405180910390fd5b600060608673ffffffffffffffffffffffffffffffffffffffff1685876040518082805190602001908083835b60208310612d825780518252602082019150602081019050602083039250612d5f565b6001836020036101000a03801982511681845116808217855250505050505090500191505060006040518083038185875af1925050503d8060008114612de4576040519150601f19603f3d011682016040523d82523d6000602084013e612de9565b606091505b5091509150612df9828286612e18565b92505050949350505050565b600080823b905060008111915050919050565b60608315612e2857829050612edd565b600083511115612e3b5782518084602001fd5b816040517f08c379a00000000000000000000000000000000000000000000000000000000081526004018080602001828103825283818151815260200191508051906020019080838360005b83811015612ea2578082015181840152602081019050612e87565b50505050905090810190601f168015612ecf5780820380516001836020036101000a031916815260200191505b509250505060405180910390fd5b9392505050565b60405180606001604052806000815260200160008152602001600015158152509056fe4f776e61626c653a206e6577206f776e657220697320746865207a65726f2061646472657373416464726573733a20696e73756666696369656e742062616c616e636520666f722063616c6c536166654d6174683a206d756c7469706c69636174696f6e206f766572666c6f775361666545524332303a204552433230206f7065726174696f6e20646964206e6f742073756363656564a26469706673582212207162158b4abb657596100dbad095e428aee4feadd62b089ee8038adbf269c62064736f6c634300060c00334f776e61626c653a206e6577206f776e657220697320746865207a65726f2061646472657373416464726573733a20696e73756666696369656e742062616c616e636520666f722063616c6c536166654d6174683a206d756c7469706c69636174696f6e206f766572666c6f774275726e2070657263656e74206d757374206265206c657373207468616e20646976696465725361666545524332303a204552433230206f7065726174696f6e20646964206e6f742073756363656564a2646970667358221220e33314d5dc800cb04c542ca918edd918e8bb127a4023a5b9922e8df3e01621de64736f6c634300060c0033",
  "immutableReferences": {},
  "source": "pragma solidity 0.6.12;\r\n\r\nimport \"@openzeppelin/contracts/access/Ownable.sol\";\r\nimport \"@openzeppelin/contracts/math/SafeMath.sol\";\r\nimport \"@openzeppelin/contracts/token/ERC20/SafeERC20.sol\";\r\nimport \"@openzeppelin/contracts/token/ERC20/ERC20Burnable.sol\";\r\nimport \"./StakingPool.sol\";\r\n\r\ncontract StakeMaster is Ownable {\r\n    using SafeMath for uint256;\r\n    using SafeERC20 for ERC20Burnable;\r\n    using SafeERC20 for IERC20;\r\n\r\n    ERC20Burnable public feeToken;\r\n    address public feeWallet;\r\n    uint256 public feeAmount;\r\n    uint256 public burnPercent;\r\n    uint256 public divider;\r\n\r\n    event StakingPoolCreated(address owner, address pool, address stakingToken, address poolToken, uint256 startTime, uint256 finishTime, uint256 poolTokenAmount);\r\n    event TokenFeeUpdated(address newFeeToken);\r\n    event FeeAmountUpdated(uint256 newFeeAmount);\r\n    event BurnPercentUpdated(uint256 newBurnPercent, uint256 divider);\r\n    event FeeWalletUpdated(address newFeeWallet);\r\n\r\n    constructor(\r\n        ERC20Burnable _feeToken,\r\n        address _feeWallet,\r\n        uint256 _feeAmount,\r\n        uint256 _burnPercent\r\n    ) public {\r\n        feeToken = _feeToken;\r\n        feeAmount = _feeAmount;\r\n        feeWallet = _feeWallet;\r\n        burnPercent = _burnPercent;\r\n        divider = 100;\r\n    }\r\n\r\n    function setFeeToken(address _newFeeToken) external onlyOwner {\r\n        require(isContract(_newFeeToken), \"New address is not a token\");\r\n        feeToken = ERC20Burnable(_newFeeToken);\r\n\r\n        emit TokenFeeUpdated(_newFeeToken);\r\n    }\r\n\r\n    function setFeeAmount(uint256 _newFeeAmount) external onlyOwner {\r\n        feeAmount = _newFeeAmount;\r\n\r\n        emit FeeAmountUpdated(_newFeeAmount);\r\n    }\r\n\r\n    function setFeeWallet(address _newFeeWallet) external onlyOwner {\r\n        feeWallet = _newFeeWallet;\r\n\r\n        emit FeeWalletUpdated(_newFeeWallet);\r\n    }\r\n\r\n    function setBurnPercent(uint256 _newBurnPercent, uint256 _newDivider)\r\n        external\r\n        onlyOwner\r\n    {\r\n        require(_newBurnPercent <= _newDivider, \"Burn percent must be less than divider\");\r\n        burnPercent = _newBurnPercent;\r\n        divider = _newDivider;\r\n\r\n        emit BurnPercentUpdated(_newBurnPercent, _newDivider);\r\n    }\r\n\r\n    function createStakingPool(\r\n        IERC20 _stakingToken,\r\n        IERC20 _poolToken,\r\n        uint256 _startTime,\r\n        uint256 _finishTime,\r\n        uint256 _poolTokenAmount,\r\n        bool _hasWhitelisting\r\n    ) external {\r\n\r\n        if(feeAmount > 0) {\r\n            uint256 burnAmount = feeAmount.mul(burnPercent).div(divider);\r\n\r\n            feeToken.safeTransferFrom(\r\n                msg.sender,\r\n                feeWallet,\r\n                feeAmount.sub(burnAmount)\r\n            );\r\n            \r\n            if(burnAmount > 0) {\r\n                feeToken.safeTransferFrom(msg.sender, address(this), burnAmount);\r\n                feeToken.burn(burnAmount);\r\n            }\r\n        }\r\n\r\n        StakingPool stakingPool =\r\n            new StakingPool(\r\n                _stakingToken,\r\n                _poolToken,\r\n                _startTime,\r\n                _finishTime,\r\n                _poolTokenAmount,\r\n                _hasWhitelisting\r\n            );\r\n        stakingPool.transferOwnership(msg.sender);\r\n\r\n        _poolToken.safeTransferFrom(\r\n            msg.sender,\r\n            address(stakingPool),\r\n            _poolTokenAmount\r\n        );\r\n        \r\n        require(_poolToken.balanceOf(address(stakingPool)) == _poolTokenAmount,  \"Unsupported token\");\r\n\r\n        emit StakingPoolCreated(msg.sender, address(stakingPool), address(_stakingToken), address(_poolToken), _startTime, _finishTime, _poolTokenAmount);\r\n    }\r\n\r\n    function isContract(address _addr) private view returns (bool) {\r\n        uint32 size;\r\n        assembly {\r\n            size := extcodesize(_addr)\r\n        }\r\n        return (size > 0);\r\n    }\r\n\r\n    // ============ Version Control ============\r\n    function version() external pure returns (uint256) {\r\n        return 101; // 1.0.1\r\n    }\r\n}\r\n",
  "sourcePath": "D:/Projects/tosdis_contracts/contracts/StakeMaster.sol",
  "compiler": {
    "name": "solc",
    "version": "0.6.12+commit.27d51765.Emscripten.clang"
  },
  "schemaVersion": "3.3.2",
  "updatedAt": "2021-07-25T18:58:28.576Z",
  "networkType": "ethereum",
  "devdoc": {
    "kind": "dev",
    "methods": {
      "owner()": {
        "details": "Returns the address of the current owner."
      },
      "renounceOwnership()": {
        "details": "Leaves the contract without owner. It will not be possible to call `onlyOwner` functions anymore. Can only be called by the current owner. NOTE: Renouncing ownership will leave the contract without an owner, thereby removing any functionality that is only available to the owner."
      },
      "transferOwnership(address)": {
        "details": "Transfers ownership of the contract to a new account (`newOwner`). Can only be called by the current owner."
      }
    },
    "version": 1
  },
  "userdoc": {
    "kind": "user",
    "methods": {},
    "version": 1
  }
}