{
  "contractName": "StakeMaster",
  "abi": [
    {
      "inputs": [
        {
          "internalType": "contract ERC20Burnable",
          "name": "_feeToken",
          "type": "address"
        },
        {
          "internalType": "address",
          "name": "_feeWallet",
          "type": "address"
        },
        {
          "internalType": "uint256",
          "name": "_feeAmount",
          "type": "uint256"
        },
        {
          "internalType": "uint256",
          "name": "_burnPercent",
          "type": "uint256"
        }
      ],
      "stateMutability": "nonpayable",
      "type": "constructor"
    },
    {
      "anonymous": false,
      "inputs": [
        {
          "indexed": false,
          "internalType": "uint256",
          "name": "newBurnPercent",
          "type": "uint256"
        },
        {
          "indexed": false,
          "internalType": "uint256",
          "name": "divider",
          "type": "uint256"
        }
      ],
      "name": "BurnPercentUpdated",
      "type": "event"
    },
    {
      "anonymous": false,
      "inputs": [
        {
          "indexed": false,
          "internalType": "uint256",
          "name": "newFeeAmount",
          "type": "uint256"
        }
      ],
      "name": "FeeAmountUpdated",
      "type": "event"
    },
    {
      "anonymous": false,
      "inputs": [
        {
          "indexed": false,
          "internalType": "address",
          "name": "newFeeWallet",
          "type": "address"
        }
      ],
      "name": "FeeWalletUpdated",
      "type": "event"
    },
    {
      "anonymous": false,
      "inputs": [
        {
          "indexed": true,
          "internalType": "address",
          "name": "previousOwner",
          "type": "address"
        },
        {
          "indexed": true,
          "internalType": "address",
          "name": "newOwner",
          "type": "address"
        }
      ],
      "name": "OwnershipTransferred",
      "type": "event"
    },
    {
      "anonymous": false,
      "inputs": [
        {
          "indexed": false,
          "internalType": "address",
          "name": "owner",
          "type": "address"
        },
        {
          "indexed": false,
          "internalType": "address",
          "name": "pool",
          "type": "address"
        },
        {
          "indexed": false,
          "internalType": "address",
          "name": "stakingToken",
          "type": "address"
        },
        {
          "indexed": false,
          "internalType": "address",
          "name": "poolToken",
          "type": "address"
        },
        {
          "indexed": false,
          "internalType": "uint256",
          "name": "startBlock",
          "type": "uint256"
        },
        {
          "indexed": false,
          "internalType": "uint256",
          "name": "finishBlock",
          "type": "uint256"
        },
        {
          "indexed": false,
          "internalType": "uint256",
          "name": "poolTokenAmount",
          "type": "uint256"
        }
      ],
      "name": "StakingPoolCreated",
      "type": "event"
    },
    {
      "anonymous": false,
      "inputs": [
        {
          "indexed": false,
          "internalType": "address",
          "name": "newFeeToken",
          "type": "address"
        }
      ],
      "name": "TokenFeeUpdated",
      "type": "event"
    },
    {
      "inputs": [],
      "name": "burnPercent",
      "outputs": [
        {
          "internalType": "uint256",
          "name": "",
          "type": "uint256"
        }
      ],
      "stateMutability": "view",
      "type": "function",
      "constant": true
    },
    {
      "inputs": [],
      "name": "divider",
      "outputs": [
        {
          "internalType": "uint256",
          "name": "",
          "type": "uint256"
        }
      ],
      "stateMutability": "view",
      "type": "function",
      "constant": true
    },
    {
      "inputs": [],
      "name": "feeAmount",
      "outputs": [
        {
          "internalType": "uint256",
          "name": "",
          "type": "uint256"
        }
      ],
      "stateMutability": "view",
      "type": "function",
      "constant": true
    },
    {
      "inputs": [],
      "name": "feeToken",
      "outputs": [
        {
          "internalType": "contract ERC20Burnable",
          "name": "",
          "type": "address"
        }
      ],
      "stateMutability": "view",
      "type": "function",
      "constant": true
    },
    {
      "inputs": [],
      "name": "feeWallet",
      "outputs": [
        {
          "internalType": "address",
          "name": "",
          "type": "address"
        }
      ],
      "stateMutability": "view",
      "type": "function",
      "constant": true
    },
    {
      "inputs": [],
      "name": "owner",
      "outputs": [
        {
          "internalType": "address",
          "name": "",
          "type": "address"
        }
      ],
      "stateMutability": "view",
      "type": "function",
      "constant": true
    },
    {
      "inputs": [],
      "name": "renounceOwnership",
      "outputs": [],
      "stateMutability": "nonpayable",
      "type": "function"
    },
    {
      "inputs": [
        {
          "internalType": "address",
          "name": "newOwner",
          "type": "address"
        }
      ],
      "name": "transferOwnership",
      "outputs": [],
      "stateMutability": "nonpayable",
      "type": "function"
    },
    {
      "inputs": [
        {
          "internalType": "address",
          "name": "_newFeeToken",
          "type": "address"
        }
      ],
      "name": "setFeeToken",
      "outputs": [],
      "stateMutability": "nonpayable",
      "type": "function"
    },
    {
      "inputs": [
        {
          "internalType": "uint256",
          "name": "_newFeeAmount",
          "type": "uint256"
        }
      ],
      "name": "setFeeAmount",
      "outputs": [],
      "stateMutability": "nonpayable",
      "type": "function"
    },
    {
      "inputs": [
        {
          "internalType": "address",
          "name": "_newFeeWallet",
          "type": "address"
        }
      ],
      "name": "setFeeWallet",
      "outputs": [],
      "stateMutability": "nonpayable",
      "type": "function"
    },
    {
      "inputs": [
        {
          "internalType": "uint256",
          "name": "_newBurnPercent",
          "type": "uint256"
        },
        {
          "internalType": "uint256",
          "name": "_newDivider",
          "type": "uint256"
        }
      ],
      "name": "setBurnPercent",
      "outputs": [],
      "stateMutability": "nonpayable",
      "type": "function"
    },
    {
      "inputs": [
        {
          "internalType": "contract IERC20",
          "name": "_stakingToken",
          "type": "address"
        },
        {
          "internalType": "contract IERC20",
          "name": "_poolToken",
          "type": "address"
        },
        {
          "internalType": "uint256",
          "name": "_startBlock",
          "type": "uint256"
        },
        {
          "internalType": "uint256",
          "name": "_finishBlock",
          "type": "uint256"
        },
        {
          "internalType": "uint256",
          "name": "_poolTokenAmount",
          "type": "uint256"
        }
      ],
      "name": "createStakingPool",
      "outputs": [],
      "stateMutability": "nonpayable",
      "type": "function"
    }
  ],
  "bytecode": "0x608060405234801561001057600080fd5b50604051613f39380380613f398339818101604052608081101561003357600080fd5b810190808051906020019092919080519060200190929190805190602001909291908051906020019092919050505060006100726101b160201b60201c565b9050806000806101000a81548173ffffffffffffffffffffffffffffffffffffffff021916908373ffffffffffffffffffffffffffffffffffffffff1602179055508073ffffffffffffffffffffffffffffffffffffffff16600073ffffffffffffffffffffffffffffffffffffffff167f8be0079c531659141344cd1fd0a4f28419497f9722a3daafe3b4186f6b6457e060405160405180910390a35083600160006101000a81548173ffffffffffffffffffffffffffffffffffffffff021916908373ffffffffffffffffffffffffffffffffffffffff1602179055508160038190555082600260006101000a81548173ffffffffffffffffffffffffffffffffffffffff021916908373ffffffffffffffffffffffffffffffffffffffff160217905550806004819055506064600581905550505050506101b9565b600033905090565b613d71806101c86000396000f3fe60806040523480156200001157600080fd5b5060043610620000e25760003560e01c80636b39268011620000995780638dc12991116200006f5780638dc1299114620002bc57806390d49b9d14620002f7578063f25f4b56146200033e578063f2fde38b146200037457620000e2565b80636b3926801462000249578063715018a6146200027a5780638da5cb5b146200028657620000e2565b806303807ee514620000e757806315cce2241462000107578063378efa37146200014e578063405afeef146200016e578063647846a514620001f357806369e154041462000229575b600080fd5b620000f1620003bb565b6040518082815260200191505060405180910390f35b6200014c600480360360208110156200011f57600080fd5b81019080803573ffffffffffffffffffffffffffffffffffffffff169060200190929190505050620003c1565b005b620001586200059b565b6040518082815260200191505060405180910390f35b620001f1600480360360a08110156200018657600080fd5b81019080803573ffffffffffffffffffffffffffffffffffffffff169060200190929190803573ffffffffffffffffffffffffffffffffffffffff169060200190929190803590602001909291908035906020019092919080359060200190929190505050620005a1565b005b620001fd6200093e565b604051808273ffffffffffffffffffffffffffffffffffffffff16815260200191505060405180910390f35b6200023362000964565b6040518082815260200191505060405180910390f35b62000278600480360360208110156200026157600080fd5b81019080803590602001909291905050506200096a565b005b6200028462000a76565b005b6200029062000bff565b604051808273ffffffffffffffffffffffffffffffffffffffff16815260200191505060405180910390f35b620002f560048036036040811015620002d457600080fd5b81019080803590602001909291908035906020019092919050505062000c28565b005b6200033c600480360360208110156200030f57600080fd5b81019080803573ffffffffffffffffffffffffffffffffffffffff16906020019092919050505062000d44565b005b6200034862000ea0565b604051808273ffffffffffffffffffffffffffffffffffffffff16815260200191505060405180910390f35b620003b9600480360360208110156200038c57600080fd5b81019080803573ffffffffffffffffffffffffffffffffffffffff16906020019092919050505062000ec6565b005b60045481565b620003cb620010d6565b73ffffffffffffffffffffffffffffffffffffffff1660008054906101000a900473ffffffffffffffffffffffffffffffffffffffff1673ffffffffffffffffffffffffffffffffffffffff16146200048c576040517f08c379a00000000000000000000000000000000000000000000000000000000081526004018080602001828103825260208152602001807f4f776e61626c653a2063616c6c6572206973206e6f7420746865206f776e657281525060200191505060405180910390fd5b6200049781620010de565b6200050a576040517f08c379a000000000000000000000000000000000000000000000000000000000815260040180806020018281038252601a8152602001807f4e65772061646472657373206973206e6f74206120746f6b656e00000000000081525060200191505060405180910390fd5b80600160006101000a81548173ffffffffffffffffffffffffffffffffffffffff021916908373ffffffffffffffffffffffffffffffffffffffff1602179055507f9e892f555b0a5cac6c8cc33c82ebb9308207bd16dfdca9d0289b96d7e4186c8a81604051808273ffffffffffffffffffffffffffffffffffffffff16815260200191505060405180910390a150565b60055481565b6000620005d2600554620005c3600454600354620010f790919063ffffffff16565b6200118290919063ffffffff16565b90506200065d33600260009054906101000a900473ffffffffffffffffffffffffffffffffffffffff166200061384600354620011ce90919063ffffffff16565b600160009054906101000a900473ffffffffffffffffffffffffffffffffffffffff1673ffffffffffffffffffffffffffffffffffffffff166200121a909392919063ffffffff16565b620006ae333083600160009054906101000a900473ffffffffffffffffffffffffffffffffffffffff1673ffffffffffffffffffffffffffffffffffffffff166200121a909392919063ffffffff16565b600160009054906101000a900473ffffffffffffffffffffffffffffffffffffffff1673ffffffffffffffffffffffffffffffffffffffff166342966c68826040518263ffffffff1660e01b815260040180828152602001915050600060405180830381600087803b1580156200072457600080fd5b505af115801562000739573d6000803e3d6000fd5b5050505060008686868686604051620007529062001814565b808673ffffffffffffffffffffffffffffffffffffffff1681526020018573ffffffffffffffffffffffffffffffffffffffff16815260200184815260200183815260200182815260200195505050505050604051809103906000f080158015620007c1573d6000803e3d6000fd5b5090508073ffffffffffffffffffffffffffffffffffffffff1663f2fde38b336040518263ffffffff1660e01b8152600401808273ffffffffffffffffffffffffffffffffffffffff168152602001915050600060405180830381600087803b1580156200082e57600080fd5b505af115801562000843573d6000803e3d6000fd5b50505050620008763382858973ffffffffffffffffffffffffffffffffffffffff166200121a909392919063ffffffff16565b7f3d9e4692fdd0545c355fd422714ba89dc9fe8774bc77de3fe8159df3e466cbe033828989898989604051808873ffffffffffffffffffffffffffffffffffffffff1681526020018773ffffffffffffffffffffffffffffffffffffffff1681526020018673ffffffffffffffffffffffffffffffffffffffff1681526020018573ffffffffffffffffffffffffffffffffffffffff16815260200184815260200183815260200182815260200197505050505050505060405180910390a150505050505050565b600160009054906101000a900473ffffffffffffffffffffffffffffffffffffffff1681565b60035481565b62000974620010d6565b73ffffffffffffffffffffffffffffffffffffffff1660008054906101000a900473ffffffffffffffffffffffffffffffffffffffff1673ffffffffffffffffffffffffffffffffffffffff161462000a35576040517f08c379a00000000000000000000000000000000000000000000000000000000081526004018080602001828103825260208152602001807f4f776e61626c653a2063616c6c6572206973206e6f7420746865206f776e657281525060200191505060405180910390fd5b806003819055507fbb128cd9921d003aff00ed910fe24b1655b2bf1f4a2090cc3523f61bdc172316816040518082815260200191505060405180910390a150565b62000a80620010d6565b73ffffffffffffffffffffffffffffffffffffffff1660008054906101000a900473ffffffffffffffffffffffffffffffffffffffff1673ffffffffffffffffffffffffffffffffffffffff161462000b41576040517f08c379a00000000000000000000000000000000000000000000000000000000081526004018080602001828103825260208152602001807f4f776e61626c653a2063616c6c6572206973206e6f7420746865206f776e657281525060200191505060405180910390fd5b600073ffffffffffffffffffffffffffffffffffffffff1660008054906101000a900473ffffffffffffffffffffffffffffffffffffffff1673ffffffffffffffffffffffffffffffffffffffff167f8be0079c531659141344cd1fd0a4f28419497f9722a3daafe3b4186f6b6457e060405160405180910390a360008060006101000a81548173ffffffffffffffffffffffffffffffffffffffff021916908373ffffffffffffffffffffffffffffffffffffffff160217905550565b60008060009054906101000a900473ffffffffffffffffffffffffffffffffffffffff16905090565b62000c32620010d6565b73ffffffffffffffffffffffffffffffffffffffff1660008054906101000a900473ffffffffffffffffffffffffffffffffffffffff1673ffffffffffffffffffffffffffffffffffffffff161462000cf3576040517f08c379a00000000000000000000000000000000000000000000000000000000081526004018080602001828103825260208152602001807f4f776e61626c653a2063616c6c6572206973206e6f7420746865206f776e657281525060200191505060405180910390fd5b81600481905550806005819055507fb62d69c6ddf4f4bd443dca17ea7405d8018efb872e82e77bb8ef13b5be2f2e9c8282604051808381526020018281526020019250505060405180910390a15050565b62000d4e620010d6565b73ffffffffffffffffffffffffffffffffffffffff1660008054906101000a900473ffffffffffffffffffffffffffffffffffffffff1673ffffffffffffffffffffffffffffffffffffffff161462000e0f576040517f08c379a00000000000000000000000000000000000000000000000000000000081526004018080602001828103825260208152602001807f4f776e61626c653a2063616c6c6572206973206e6f7420746865206f776e657281525060200191505060405180910390fd5b80600260006101000a81548173ffffffffffffffffffffffffffffffffffffffff021916908373ffffffffffffffffffffffffffffffffffffffff1602179055507f29acee77dafcfa0143d74a7ea236018f3a6e1fa71e27fc59bbfbc6b8ca8edccd81604051808273ffffffffffffffffffffffffffffffffffffffff16815260200191505060405180910390a150565b600260009054906101000a900473ffffffffffffffffffffffffffffffffffffffff1681565b62000ed0620010d6565b73ffffffffffffffffffffffffffffffffffffffff1660008054906101000a900473ffffffffffffffffffffffffffffffffffffffff1673ffffffffffffffffffffffffffffffffffffffff161462000f91576040517f08c379a00000000000000000000000000000000000000000000000000000000081526004018080602001828103825260208152602001807f4f776e61626c653a2063616c6c6572206973206e6f7420746865206f776e657281525060200191505060405180910390fd5b600073ffffffffffffffffffffffffffffffffffffffff168173ffffffffffffffffffffffffffffffffffffffff16141562001019576040517f08c379a000000000000000000000000000000000000000000000000000000000815260040180806020018281038252602681526020018062003ca56026913960400191505060405180910390fd5b8073ffffffffffffffffffffffffffffffffffffffff1660008054906101000a900473ffffffffffffffffffffffffffffffffffffffff1673ffffffffffffffffffffffffffffffffffffffff167f8be0079c531659141344cd1fd0a4f28419497f9722a3daafe3b4186f6b6457e060405160405180910390a3806000806101000a81548173ffffffffffffffffffffffffffffffffffffffff021916908373ffffffffffffffffffffffffffffffffffffffff16021790555050565b600033905090565b600080823b905060008163ffffffff1611915050919050565b6000808314156200110c57600090506200117c565b60008284029050828482816200111e57fe5b041462001177576040517f08c379a000000000000000000000000000000000000000000000000000000000815260040180806020018281038252602181526020018062003cf16021913960400191505060405180910390fd5b809150505b92915050565b6000620011c683836040518060400160405280601a81526020017f536166654d6174683a206469766973696f6e206279207a65726f000000000000815250620012dd565b905092915050565b60006200121283836040518060400160405280601e81526020017f536166654d6174683a207375627472616374696f6e206f766572666c6f770000815250620013a8565b905092915050565b620012d7846323b872dd60e01b858585604051602401808473ffffffffffffffffffffffffffffffffffffffff1681526020018373ffffffffffffffffffffffffffffffffffffffff1681526020018281526020019350505050604051602081830303815290604052907bffffffffffffffffffffffffffffffffffffffffffffffffffffffff19166020820180517bffffffffffffffffffffffffffffffffffffffffffffffffffffffff83818316178352505050506200146c565b50505050565b600080831182906200138d576040517f08c379a00000000000000000000000000000000000000000000000000000000081526004018080602001828103825283818151815260200191508051906020019080838360005b838110156200135157808201518184015260208101905062001334565b50505050905090810190601f1680156200137f5780820380516001836020036101000a031916815260200191505b509250505060405180910390fd5b5060008385816200139a57fe5b049050809150509392505050565b600083831115829062001459576040517f08c379a00000000000000000000000000000000000000000000000000000000081526004018080602001828103825283818151815260200191508051906020019080838360005b838110156200141d57808201518184015260208101905062001400565b50505050905090810190601f1680156200144b5780820380516001836020036101000a031916815260200191505b509250505060405180910390fd5b5060008385039050809150509392505050565b6060620014d0826040518060400160405280602081526020017f5361666545524332303a206c6f772d6c6576656c2063616c6c206661696c65648152508573ffffffffffffffffffffffffffffffffffffffff16620015619092919063ffffffff16565b90506000815111156200155c57808060200190516020811015620014f357600080fd5b81019080805190602001909291905050506200155b576040517f08c379a000000000000000000000000000000000000000000000000000000000815260040180806020018281038252602a81526020018062003d12602a913960400191505060405180910390fd5b5b505050565b60606200157284846000856200157b565b90509392505050565b606082471015620015d8576040517f08c379a000000000000000000000000000000000000000000000000000000000815260040180806020018281038252602681526020018062003ccb6026913960400191505060405180910390fd5b620015e3856200172f565b62001656576040517f08c379a000000000000000000000000000000000000000000000000000000000815260040180806020018281038252601d8152602001807f416464726573733a2063616c6c20746f206e6f6e2d636f6e747261637400000081525060200191505060405180910390fd5b600060608673ffffffffffffffffffffffffffffffffffffffff1685876040518082805190602001908083835b60208310620016a8578051825260208201915060208101905060208303925062001683565b6001836020036101000a03801982511681845116808217855250505050505090500191505060006040518083038185875af1925050503d80600081146200170c576040519150601f19603f3d011682016040523d82523d6000602084013e62001711565b606091505b50915091506200172382828662001742565b92505050949350505050565b600080823b905060008111915050919050565b6060831562001754578290506200180d565b600083511115620017685782518084602001fd5b816040517f08c379a00000000000000000000000000000000000000000000000000000000081526004018080602001828103825283818151815260200191508051906020019080838360005b83811015620017d1578082015181840152602081019050620017b4565b50505050905090810190601f168015620017ff5780820380516001836020036101000a031916815260200191505b509250505060405180910390fd5b9392505050565b61248280620018238339019056fe60806040523480156200001157600080fd5b506040516200248238038062002482833981810160405260a08110156200003757600080fd5b810190808051906020019092919080519060200190929190805190602001909291908051906020019092919080519060200190929190505050600062000082620002bf60201b60201c565b9050806000806101000a81548173ffffffffffffffffffffffffffffffffffffffff021916908373ffffffffffffffffffffffffffffffffffffffff1602179055508073ffffffffffffffffffffffffffffffffffffffff16600073ffffffffffffffffffffffffffffffffffffffff167f8be0079c531659141344cd1fd0a4f28419497f9722a3daafe3b4186f6b6457e060405160405180910390a3506001808190555084600260006101000a81548173ffffffffffffffffffffffffffffffffffffffff021916908373ffffffffffffffffffffffffffffffffffffffff16021790555083600360006101000a81548173ffffffffffffffffffffffffffffffffffffffff021916908373ffffffffffffffffffffffffffffffffffffffff16021790555081831062000203576040517f08c379a000000000000000000000000000000000000000000000000000000000815260040180806020018281038252602a8152602001806200242c602a913960400191505060405180910390fd5b4382116200025d576040517f08c379a000000000000000000000000000000000000000000000000000000000815260040180806020018281038252602c81526020018062002456602c913960400191505060405180910390fd5b826004819055506004546005819055508160068190555080600a81905550620002ae620002998484620002c760201b620015151790919060201c565b826200031960201b6200155f1790919060201c565b600b819055505050505050620004fa565b600033905090565b60006200031183836040518060400160405280601e81526020017f536166654d6174683a207375627472616374696f6e206f766572666c6f7700008152506200036b60201b60201c565b905092915050565b60006200036383836040518060400160405280601a81526020017f536166654d6174683a206469766973696f6e206279207a65726f0000000000008152506200042f60201b60201c565b905092915050565b60008383111582906200041c576040517f08c379a00000000000000000000000000000000000000000000000000000000081526004018080602001828103825283818151815260200191508051906020019080838360005b83811015620003e0578082015181840152602081019050620003c3565b50505050905090810190601f1680156200040e5780820380516001836020036101000a031916815260200191505b509250505060405180910390fd5b5060008385039050809150509392505050565b60008083118290620004df576040517f08c379a00000000000000000000000000000000000000000000000000000000081526004018080602001828103825283818151815260200191508051906020019080838360005b83811015620004a357808201518184015260208101905062000486565b50505050905090810190601f168015620004d15780820380516001836020036101000a031916815260200191505b509250505060405180910390fd5b506000838581620004ec57fe5b049050809150509392505050565b611f22806200050a6000396000f3fe608060405234801561001057600080fd5b50600436106101425760003560e01c80638ae39cac116100b8578063db2e21bc1161007c578063db2e21bc1461038c578063e3161ddd14610396578063e42578ce146103a0578063f2fde38b146103be578063f40f0f5214610402578063f7c618c11461045a57610142565b80638ae39cac146102e05780638da5cb5b146102fe578063951fbcc814610332578063a9f8d18114610350578063d501953d1461036e57610142565b80634ed474d71161010a5780634ed474d71461022e5780636c4470fb1461024c578063715018a61461026a57806372f702f3146102745780637547c7a3146102a85780637647ca05146102d657610142565b806314d3bf41146101475780631959a0021461016557806325d5971f146101c45780632f3c9a4f146101f257806348cd4cb114610210575b600080fd5b61014f61048e565b6040518082815260200191505060405180910390f35b6101a76004803603602081101561017b57600080fd5b81019080803573ffffffffffffffffffffffffffffffffffffffff169060200190929190505050610494565b604051808381526020018281526020019250505060405180910390f35b6101f0600480360360208110156101da57600080fd5b81019080803590602001909291905050506104b8565b005b6101fa6107b5565b6040518082815260200191505060405180910390f35b6102186107bb565b6040518082815260200191505060405180910390f35b6102366107c1565b6040518082815260200191505060405180910390f35b6102546107c7565b6040518082815260200191505060405180910390f35b6102726107cd565b005b61027c610953565b604051808273ffffffffffffffffffffffffffffffffffffffff16815260200191505060405180910390f35b6102d4600480360360208110156102be57600080fd5b8101908080359060200190929190505050610979565b005b6102de610c02565b005b6102e8610f01565b6040518082815260200191505060405180910390f35b610306610f07565b604051808273ffffffffffffffffffffffffffffffffffffffff16815260200191505060405180910390f35b61033a610f30565b6040518082815260200191505060405180910390f35b610358610f36565b6040518082815260200191505060405180910390f35b610376610f3c565b6040518082815260200191505060405180910390f35b610394610f42565b005b61039e611116565b005b6103a86111b9565b6040518082815260200191505060405180910390f35b610400600480360360208110156103d457600080fd5b81019080803573ffffffffffffffffffffffffffffffffffffffff1690602001909291905050506111bf565b005b6104446004803603602081101561041857600080fd5b81019080803573ffffffffffffffffffffffffffffffffffffffff1690602001909291905050506113ca565b6040518082815260200191505060405180910390f35b6104626114ef565b604051808273ffffffffffffffffffffffffffffffffffffffff16815260200191505060405180910390f35b60075481565b600e6020528060005260406000206000915090508060000154908060010154905082565b60026001541415610531576040517f08c379a000000000000000000000000000000000000000000000000000000000815260040180806020018281038252601f8152602001807f5265656e7472616e637947756172643a207265656e7472616e742063616c6c0081525060200191505060405180910390fd5b60026001819055506000600e60003373ffffffffffffffffffffffffffffffffffffffff1673ffffffffffffffffffffffffffffffffffffffff168152602001908152602001600020905081816000015410156105f6576040517f08c379a00000000000000000000000000000000000000000000000000000000081526004018080602001828103825260128152602001807f77697468647261773a206e6f7420676f6f64000000000000000000000000000081525060200191505060405180910390fd5b6105fe611116565b600061062882604051806040016040529081600082015481526020016001820154815250506115a9565b905060008311156106bf5761064a83836000015461151590919063ffffffff16565b826000018190555061069f3384600260009054906101000a900473ffffffffffffffffffffffffffffffffffffffff1673ffffffffffffffffffffffffffffffffffffffff166116729092919063ffffffff16565b6000826000015414156106be576001600d600082825403925050819055505b5b6106d8826001015460095461151590919063ffffffff16565b600981905550610711670de0b6b3a7640000610703600c54856000015461171490919063ffffffff16565b61155f90919063ffffffff16565b8260010181905550610732826001015460095461179a90919063ffffffff16565b60098190555061074d8360075461151590919063ffffffff16565b6007819055503373ffffffffffffffffffffffffffffffffffffffff167f933735aa8de6d7547d0126171b2f31b9c34dd00f3ecd4be85a0ba047db4fafef8483604051808381526020018281526020019250505060405180910390a250506001808190555050565b600c5481565b60045481565b60065481565b600d5481565b6107d5611822565b73ffffffffffffffffffffffffffffffffffffffff1660008054906101000a900473ffffffffffffffffffffffffffffffffffffffff1673ffffffffffffffffffffffffffffffffffffffff1614610895576040517f08c379a00000000000000000000000000000000000000000000000000000000081526004018080602001828103825260208152602001807f4f776e61626c653a2063616c6c6572206973206e6f7420746865206f776e657281525060200191505060405180910390fd5b600073ffffffffffffffffffffffffffffffffffffffff1660008054906101000a900473ffffffffffffffffffffffffffffffffffffffff1673ffffffffffffffffffffffffffffffffffffffff167f8be0079c531659141344cd1fd0a4f28419497f9722a3daafe3b4186f6b6457e060405160405180910390a360008060006101000a81548173ffffffffffffffffffffffffffffffffffffffff021916908373ffffffffffffffffffffffffffffffffffffffff160217905550565b600260009054906101000a900473ffffffffffffffffffffffffffffffffffffffff1681565b600260015414156109f2576040517f08c379a000000000000000000000000000000000000000000000000000000000815260040180806020018281038252601f8152602001807f5265656e7472616e637947756172643a207265656e7472616e742063616c6c0081525060200191505060405180910390fd5b6002600181905550610a02611116565b600080600e60003373ffffffffffffffffffffffffffffffffffffffff1673ffffffffffffffffffffffffffffffffffffffff1681526020019081526020016000209050600081600001541115610a8257610a7b81604051806040016040529081600082015481526020016001820154815250506115a9565b9150610a94565b6001600d600082825401925050819055505b6000831115610b2757610aec333085600260009054906101000a900473ffffffffffffffffffffffffffffffffffffffff1673ffffffffffffffffffffffffffffffffffffffff1661182a909392919063ffffffff16565b610b0383826000015461179a90919063ffffffff16565b8160000181905550610b208360075461179a90919063ffffffff16565b6007819055505b610b40816001015460095461151590919063ffffffff16565b600981905550610b79670de0b6b3a7640000610b6b600c54846000015461171490919063ffffffff16565b61155f90919063ffffffff16565b8160010181905550610b9a816001015460095461179a90919063ffffffff16565b6009819055503373ffffffffffffffffffffffffffffffffffffffff167fdd2a19c3bdd089cbe77c04f5655f83de0504d6140d12c8667646f55d0557c4dc8484604051808381526020018281526020019250505060405180910390a250506001808190555050565b610c0a611822565b73ffffffffffffffffffffffffffffffffffffffff1660008054906101000a900473ffffffffffffffffffffffffffffffffffffffff1673ffffffffffffffffffffffffffffffffffffffff1614610cca576040517f08c379a00000000000000000000000000000000000000000000000000000000081526004018080602001828103825260208152602001807f4f776e61626c653a2063616c6c6572206973206e6f7420746865206f776e657281525060200191505060405180910390fd5b60026001541415610d43576040517f08c379a000000000000000000000000000000000000000000000000000000000815260040180806020018281038252601f8152602001807f5265656e7472616e637947756172643a207265656e7472616e742063616c6c0081525060200191505060405180910390fd5b60026001819055506006544311610dc2576040517f08c379a00000000000000000000000000000000000000000000000000000000081526004018080602001828103825260128152602001807f416c6c6f772061667465722066696e697368000000000000000000000000000081525060200191505060405180910390fd5b610dca611116565b6000610e11600954610e03670de0b6b3a7640000610df5600c5460075461171490919063ffffffff16565b61155f90919063ffffffff16565b61151590919063ffffffff16565b90506000610e3e82610e30600854600a5461151590919063ffffffff16565b61151590919063ffffffff16565b9050610e558160085461179a90919063ffffffff16565b600881905550610ea83382600360009054906101000a900473ffffffffffffffffffffffffffffffffffffffff1673ffffffffffffffffffffffffffffffffffffffff166116729092919063ffffffff16565b3373ffffffffffffffffffffffffffffffffffffffff167f575274ea138cb54fdd6aded4d581d6cfb06d6cda7b8d9c519804512d1d61b5a4826040518082815260200191505060405180910390a2505060018081905550565b600b5481565b60008060009054906101000a900473ffffffffffffffffffffffffffffffffffffffff16905090565b60095481565b60055481565b600a5481565b60026001541415610fbb576040517f08c379a000000000000000000000000000000000000000000000000000000000815260040180806020018281038252601f8152602001807f5265656e7472616e637947756172643a207265656e7472616e742063616c6c0081525060200191505060405180910390fd5b60026001819055506000600e60003373ffffffffffffffffffffffffffffffffffffffff1673ffffffffffffffffffffffffffffffffffffffff1681526020019081526020016000209050611057338260000154600260009054906101000a900473ffffffffffffffffffffffffffffffffffffffff1673ffffffffffffffffffffffffffffffffffffffff166116729092919063ffffffff16565b3373ffffffffffffffffffffffffffffffffffffffff167f5fafa99d0643513820be26656b45130b01e1c03062e1266bf36f88cbd3bd969582600001546040518082815260200191505060405180910390a26110c2816000015460075461151590919063ffffffff16565b6007819055506110e1816001015460095461151590919063ffffffff16565b60098190555060008160000181905550600081600101819055506001600d600082825403925050819055505060018081905550565b6005544311611124576111b7565b6000600754141561113b57436005819055506111b7565b6000611149600554436118eb565b90506000611162600b548361171490919063ffffffff16565b90506111a7611196600754611188670de0b6b3a76400008561171490919063ffffffff16565b61155f90919063ffffffff16565b600c5461179a90919063ffffffff16565b600c819055504360058190555050505b565b60085481565b6111c7611822565b73ffffffffffffffffffffffffffffffffffffffff1660008054906101000a900473ffffffffffffffffffffffffffffffffffffffff1673ffffffffffffffffffffffffffffffffffffffff1614611287576040517f08c379a00000000000000000000000000000000000000000000000000000000081526004018080602001828103825260208152602001807f4f776e61626c653a2063616c6c6572206973206e6f7420746865206f776e657281525060200191505060405180910390fd5b600073ffffffffffffffffffffffffffffffffffffffff168173ffffffffffffffffffffffffffffffffffffffff16141561130d576040517f08c379a0000000000000000000000000000000000000000000000000000000008152600401808060200182810382526026815260200180611e566026913960400191505060405180910390fd5b8073ffffffffffffffffffffffffffffffffffffffff1660008054906101000a900473ffffffffffffffffffffffffffffffffffffffff1673ffffffffffffffffffffffffffffffffffffffff167f8be0079c531659141344cd1fd0a4f28419497f9722a3daafe3b4186f6b6457e060405160405180910390a3806000806101000a81548173ffffffffffffffffffffffffffffffffffffffff021916908373ffffffffffffffffffffffffffffffffffffffff16021790555050565b600080600e60008473ffffffffffffffffffffffffffffffffffffffff1673ffffffffffffffffffffffffffffffffffffffff16815260200190815260200160002090506000600c549050600554431180156114295750600060075414155b1561149f57600061143c600554436118eb565b90506000611455600b548361171490919063ffffffff16565b905061149a61148960075461147b670de0b6b3a76400008561171490919063ffffffff16565b61155f90919063ffffffff16565b600c5461179a90919063ffffffff16565b925050505b6114e682600101546114d8670de0b6b3a76400006114ca85876000015461171490919063ffffffff16565b61155f90919063ffffffff16565b61151590919063ffffffff16565b92505050919050565b600360009054906101000a900473ffffffffffffffffffffffffffffffffffffffff1681565b600061155783836040518060400160405280601e81526020017f536166654d6174683a207375627472616374696f6e206f766572666c6f770000815250611940565b905092915050565b60006115a183836040518060400160405280601a81526020017f536166654d6174683a206469766973696f6e206279207a65726f000000000000815250611a00565b905092915050565b6000806115f583602001516115e7670de0b6b3a76400006115d9600c54886000015161171490919063ffffffff16565b61155f90919063ffffffff16565b61151590919063ffffffff16565b905060008111156116695761164d3382600360009054906101000a900473ffffffffffffffffffffffffffffffffffffffff1673ffffffffffffffffffffffffffffffffffffffff166116729092919063ffffffff16565b6116628160085461179a90919063ffffffff16565b6008819055505b80915050919050565b61170f8363a9059cbb60e01b8484604051602401808373ffffffffffffffffffffffffffffffffffffffff16815260200182815260200192505050604051602081830303815290604052907bffffffffffffffffffffffffffffffffffffffffffffffffffffffff19166020820180517bffffffffffffffffffffffffffffffffffffffffffffffffffffffff8381831617835250505050611ac6565b505050565b6000808314156117275760009050611794565b600082840290508284828161173857fe5b041461178f576040517f08c379a0000000000000000000000000000000000000000000000000000000008152600401808060200182810382526021815260200180611ea26021913960400191505060405180910390fd5b809150505b92915050565b600080828401905083811015611818576040517f08c379a000000000000000000000000000000000000000000000000000000000815260040180806020018281038252601b8152602001807f536166654d6174683a206164646974696f6e206f766572666c6f77000000000081525060200191505060405180910390fd5b8091505092915050565b600033905090565b6118e5846323b872dd60e01b858585604051602401808473ffffffffffffffffffffffffffffffffffffffff1681526020018373ffffffffffffffffffffffffffffffffffffffff1681526020018281526020019350505050604051602081830303815290604052907bffffffffffffffffffffffffffffffffffffffffffffffffffffffff19166020820180517bffffffffffffffffffffffffffffffffffffffffffffffffffffffff8381831617835250505050611ac6565b50505050565b6000600654821161191057611909838361151590919063ffffffff16565b905061193a565b6006548310611922576000905061193a565b6119378360065461151590919063ffffffff16565b90505b92915050565b60008383111582906119ed576040517f08c379a00000000000000000000000000000000000000000000000000000000081526004018080602001828103825283818151815260200191508051906020019080838360005b838110156119b2578082015181840152602081019050611997565b50505050905090810190601f1680156119df5780820380516001836020036101000a031916815260200191505b509250505060405180910390fd5b5060008385039050809150509392505050565b60008083118290611aac576040517f08c379a00000000000000000000000000000000000000000000000000000000081526004018080602001828103825283818151815260200191508051906020019080838360005b83811015611a71578082015181840152602081019050611a56565b50505050905090810190601f168015611a9e5780820380516001836020036101000a031916815260200191505b509250505060405180910390fd5b506000838581611ab857fe5b049050809150509392505050565b6060611b28826040518060400160405280602081526020017f5361666545524332303a206c6f772d6c6576656c2063616c6c206661696c65648152508573ffffffffffffffffffffffffffffffffffffffff16611bb59092919063ffffffff16565b9050600081511115611bb057808060200190516020811015611b4957600080fd5b8101908080519060200190929190505050611baf576040517f08c379a000000000000000000000000000000000000000000000000000000000815260040180806020018281038252602a815260200180611ec3602a913960400191505060405180910390fd5b5b505050565b6060611bc48484600085611bcd565b90509392505050565b606082471015611c28576040517f08c379a0000000000000000000000000000000000000000000000000000000008152600401808060200182810382526026815260200180611e7c6026913960400191505060405180910390fd5b611c3185611d76565b611ca3576040517f08c379a000000000000000000000000000000000000000000000000000000000815260040180806020018281038252601d8152602001807f416464726573733a2063616c6c20746f206e6f6e2d636f6e747261637400000081525060200191505060405180910390fd5b600060608673ffffffffffffffffffffffffffffffffffffffff1685876040518082805190602001908083835b60208310611cf35780518252602082019150602081019050602083039250611cd0565b6001836020036101000a03801982511681845116808217855250505050505090500191505060006040518083038185875af1925050503d8060008114611d55576040519150601f19603f3d011682016040523d82523d6000602084013e611d5a565b606091505b5091509150611d6a828286611d89565b92505050949350505050565b600080823b905060008111915050919050565b60608315611d9957829050611e4e565b600083511115611dac5782518084602001fd5b816040517f08c379a00000000000000000000000000000000000000000000000000000000081526004018080602001828103825283818151815260200191508051906020019080838360005b83811015611e13578082015181840152602081019050611df8565b50505050905090810190601f168015611e405780820380516001836020036101000a031916815260200191505b509250505060405180910390fd5b939250505056fe4f776e61626c653a206e6577206f776e657220697320746865207a65726f2061646472657373416464726573733a20696e73756666696369656e742062616c616e636520666f722063616c6c536166654d6174683a206d756c7469706c69636174696f6e206f766572666c6f775361666545524332303a204552433230206f7065726174696f6e20646964206e6f742073756363656564a2646970667358221220e2271a0eda8e9bd69b8a674a7ad132b5475a6a41b77ed41731741308c52017e864736f6c634300060c0033737461727420626c6f636b206d757374206265206c657373207468616e2066696e69736820626c6f636b66696e69736820626c6f636b206d757374206265206d6f7265207468616e2063757272656e7420626c6f636b4f776e61626c653a206e6577206f776e657220697320746865207a65726f2061646472657373416464726573733a20696e73756666696369656e742062616c616e636520666f722063616c6c536166654d6174683a206d756c7469706c69636174696f6e206f766572666c6f775361666545524332303a204552433230206f7065726174696f6e20646964206e6f742073756363656564a26469706673582212200e90e9710ec9f92b85bdeae2a1de7bd2691de532b3e28554bc1c5f9f2b8a29fd64736f6c634300060c0033",
  "immutableReferences": {},
  "source": "pragma solidity 0.6.12;\r\n\r\nimport \"@openzeppelin/contracts/access/Ownable.sol\";\r\nimport \"@openzeppelin/contracts/math/SafeMath.sol\";\r\nimport \"@openzeppelin/contracts/token/ERC20/SafeERC20.sol\";\r\nimport \"@openzeppelin/contracts/token/ERC20/ERC20Burnable.sol\";\r\nimport \"./StakingPool.sol\";\r\n\r\ncontract StakeMaster is Ownable {\r\n    using SafeMath for uint256;\r\n    using SafeERC20 for ERC20Burnable;\r\n    using SafeERC20 for IERC20;\r\n\r\n    ERC20Burnable public feeToken;\r\n    address public feeWallet;\r\n    uint256 public feeAmount;\r\n    uint256 public burnPercent;\r\n    uint256 public divider;\r\n\r\n    event StakingPoolCreated(address owner, address pool, address stakingToken, address poolToken, uint256 startBlock, uint256 finishBlock, uint256 poolTokenAmount);\r\n    event TokenFeeUpdated(address newFeeToken);\r\n    event FeeAmountUpdated(uint256 newFeeAmount);\r\n    event BurnPercentUpdated(uint256 newBurnPercent, uint256 divider);\r\n    event FeeWalletUpdated(address newFeeWallet);\r\n\r\n    constructor(\r\n        ERC20Burnable _feeToken,\r\n        address _feeWallet,\r\n        uint256 _feeAmount,\r\n        uint256 _burnPercent\r\n    ) public {\r\n        feeToken = _feeToken;\r\n        feeAmount = _feeAmount;\r\n        feeWallet = _feeWallet;\r\n        burnPercent = _burnPercent;\r\n        divider = 100;\r\n    }\r\n\r\n    function setFeeToken(address _newFeeToken) external onlyOwner {\r\n        require(isContract(_newFeeToken), \"New address is not a token\");\r\n        feeToken = ERC20Burnable(_newFeeToken);\r\n\r\n        emit TokenFeeUpdated(_newFeeToken);\r\n    }\r\n\r\n    function setFeeAmount(uint256 _newFeeAmount) external onlyOwner {\r\n        feeAmount = _newFeeAmount;\r\n\r\n        emit FeeAmountUpdated(_newFeeAmount);\r\n    }\r\n\r\n    function setFeeWallet(address _newFeeWallet) external onlyOwner {\r\n        feeWallet = _newFeeWallet;\r\n\r\n        emit FeeWalletUpdated(_newFeeWallet);\r\n    }\r\n\r\n    function setBurnPercent(uint256 _newBurnPercent, uint256 _newDivider)\r\n        external\r\n        onlyOwner\r\n    {\r\n        burnPercent = _newBurnPercent;\r\n        divider = _newDivider;\r\n\r\n        emit BurnPercentUpdated(_newBurnPercent, _newDivider);\r\n    }\r\n\r\n    function createStakingPool(\r\n        IERC20 _stakingToken,\r\n        IERC20 _poolToken,\r\n        uint256 _startBlock,\r\n        uint256 _finishBlock,\r\n        uint256 _poolTokenAmount\r\n    ) external {\r\n        uint256 burnAmount = feeAmount.mul(burnPercent).div(divider);\r\n\r\n        feeToken.safeTransferFrom(\r\n            msg.sender,\r\n            feeWallet,\r\n            feeAmount.sub(burnAmount)\r\n        );\r\n        feeToken.safeTransferFrom(msg.sender, address(this), burnAmount);\r\n        feeToken.burn(burnAmount);\r\n\r\n        StakingPool stakingPool =\r\n            new StakingPool(\r\n                _stakingToken,\r\n                _poolToken,\r\n                _startBlock,\r\n                _finishBlock,\r\n                _poolTokenAmount\r\n            );\r\n        stakingPool.transferOwnership(msg.sender);\r\n\r\n        _poolToken.safeTransferFrom(\r\n            msg.sender,\r\n            address(stakingPool),\r\n            _poolTokenAmount\r\n        );\r\n\r\n        emit StakingPoolCreated(msg.sender, address(stakingPool), address(_stakingToken), address(_poolToken), _startBlock, _finishBlock, _poolTokenAmount);\r\n    }\r\n\r\n    function isContract(address _addr) private view returns (bool) {\r\n        uint32 size;\r\n        assembly {\r\n            size := extcodesize(_addr)\r\n        }\r\n        return (size > 0);\r\n    }\r\n}\r\n",
  "sourcePath": "F:/PROJECTS/StakeMaster/contracts/StakeMaster.sol",
  "compiler": {
    "name": "solc",
    "version": "0.6.12+commit.27d51765.Emscripten.clang"
  },
  "schemaVersion": "3.3.2",
  "updatedAt": "2021-02-04T16:26:55.124Z",
  "networkType": "ethereum",
  "devdoc": {
    "kind": "dev",
    "methods": {
      "owner()": {
        "details": "Returns the address of the current owner."
      },
      "renounceOwnership()": {
        "details": "Leaves the contract without owner. It will not be possible to call `onlyOwner` functions anymore. Can only be called by the current owner. NOTE: Renouncing ownership will leave the contract without an owner, thereby removing any functionality that is only available to the owner."
      },
      "transferOwnership(address)": {
        "details": "Transfers ownership of the contract to a new account (`newOwner`). Can only be called by the current owner."
      }
    },
    "version": 1
  },
  "userdoc": {
    "kind": "user",
    "methods": {},
    "version": 1
  }
}