{
  "contractName": "TierSystem",
  "abi": [
    {
      "inputs": [
        {
          "internalType": "uint256",
          "name": "_vipDisAmount",
          "type": "uint256"
        },
        {
          "internalType": "uint256",
          "name": "_vipPercent",
          "type": "uint256"
        },
        {
          "internalType": "uint256",
          "name": "_holdersDisAmount",
          "type": "uint256"
        },
        {
          "internalType": "uint256",
          "name": "_holdersPercent",
          "type": "uint256"
        },
        {
          "internalType": "uint256",
          "name": "_publicDisAmount",
          "type": "uint256"
        },
        {
          "internalType": "uint256",
          "name": "_publicPercent",
          "type": "uint256"
        }
      ],
      "stateMutability": "nonpayable",
      "type": "constructor"
    },
    {
      "anonymous": false,
      "inputs": [
        {
          "indexed": true,
          "internalType": "address",
          "name": "previousOwner",
          "type": "address"
        },
        {
          "indexed": true,
          "internalType": "address",
          "name": "newOwner",
          "type": "address"
        }
      ],
      "name": "OwnershipTransferred",
      "type": "event"
    },
    {
      "anonymous": false,
      "inputs": [
        {
          "indexed": false,
          "internalType": "address",
          "name": "account",
          "type": "address"
        },
        {
          "indexed": false,
          "internalType": "uint256",
          "name": "balance",
          "type": "uint256"
        }
      ],
      "name": "SetUserBalance",
      "type": "event"
    },
    {
      "inputs": [],
      "name": "holdersTier",
      "outputs": [
        {
          "internalType": "uint256",
          "name": "disAmount",
          "type": "uint256"
        },
        {
          "internalType": "uint256",
          "name": "percent",
          "type": "uint256"
        }
      ],
      "stateMutability": "view",
      "type": "function"
    },
    {
      "inputs": [],
      "name": "owner",
      "outputs": [
        {
          "internalType": "address",
          "name": "",
          "type": "address"
        }
      ],
      "stateMutability": "view",
      "type": "function"
    },
    {
      "inputs": [],
      "name": "publicTier",
      "outputs": [
        {
          "internalType": "uint256",
          "name": "disAmount",
          "type": "uint256"
        },
        {
          "internalType": "uint256",
          "name": "percent",
          "type": "uint256"
        }
      ],
      "stateMutability": "view",
      "type": "function"
    },
    {
      "inputs": [],
      "name": "renounceOwnership",
      "outputs": [],
      "stateMutability": "nonpayable",
      "type": "function"
    },
    {
      "inputs": [
        {
          "internalType": "address",
          "name": "newOwner",
          "type": "address"
        }
      ],
      "name": "transferOwnership",
      "outputs": [],
      "stateMutability": "nonpayable",
      "type": "function"
    },
    {
      "inputs": [
        {
          "internalType": "address",
          "name": "",
          "type": "address"
        }
      ],
      "name": "usersBalance",
      "outputs": [
        {
          "internalType": "uint256",
          "name": "",
          "type": "uint256"
        }
      ],
      "stateMutability": "view",
      "type": "function"
    },
    {
      "inputs": [],
      "name": "vipTier",
      "outputs": [
        {
          "internalType": "uint256",
          "name": "disAmount",
          "type": "uint256"
        },
        {
          "internalType": "uint256",
          "name": "percent",
          "type": "uint256"
        }
      ],
      "stateMutability": "view",
      "type": "function"
    },
    {
      "inputs": [
        {
          "internalType": "uint256",
          "name": "_vipDisAmount",
          "type": "uint256"
        },
        {
          "internalType": "uint256",
          "name": "_vipPercent",
          "type": "uint256"
        },
        {
          "internalType": "uint256",
          "name": "_holdersDisAmount",
          "type": "uint256"
        },
        {
          "internalType": "uint256",
          "name": "_holdersPercent",
          "type": "uint256"
        },
        {
          "internalType": "uint256",
          "name": "_publicDisAmount",
          "type": "uint256"
        },
        {
          "internalType": "uint256",
          "name": "_publicPercent",
          "type": "uint256"
        }
      ],
      "name": "setTier",
      "outputs": [],
      "stateMutability": "nonpayable",
      "type": "function"
    },
    {
      "inputs": [
        {
          "internalType": "address[]",
          "name": "_addresses",
          "type": "address[]"
        },
        {
          "internalType": "uint256[]",
          "name": "_balances",
          "type": "uint256[]"
        }
      ],
      "name": "addBalances",
      "outputs": [],
      "stateMutability": "nonpayable",
      "type": "function"
    },
    {
      "inputs": [
        {
          "internalType": "address",
          "name": "user",
          "type": "address"
        },
        {
          "internalType": "uint256",
          "name": "maxEthPayment",
          "type": "uint256"
        }
      ],
      "name": "getMaxEthPayment",
      "outputs": [
        {
          "internalType": "uint256",
          "name": "",
          "type": "uint256"
        }
      ],
      "stateMutability": "view",
      "type": "function"
    }
  ],
  "bytecode": "0x608060405234801561001057600080fd5b5060405161106e38038061106e833981810160405260c081101561003357600080fd5b81019080805190602001909291908051906020019092919080519060200190929190805190602001909291908051906020019092919080519060200190929190505050600061008661014360201b60201c565b9050806000806101000a81548173ffffffffffffffffffffffffffffffffffffffff021916908373ffffffffffffffffffffffffffffffffffffffff1602179055508073ffffffffffffffffffffffffffffffffffffffff16600073ffffffffffffffffffffffffffffffffffffffff167f8be0079c531659141344cd1fd0a4f28419497f9722a3daafe3b4186f6b6457e060405160405180910390a35061013886868686868661014b60201b60201c565b50505050505061025d565b600033905090565b61015961014360201b60201c565b73ffffffffffffffffffffffffffffffffffffffff1660008054906101000a900473ffffffffffffffffffffffffffffffffffffffff1673ffffffffffffffffffffffffffffffffffffffff1614610219576040517f08c379a00000000000000000000000000000000000000000000000000000000081526004018080602001828103825260208152602001807f4f776e61626c653a2063616c6c6572206973206e6f7420746865206f776e657281525060200191505060405180910390fd5b856002600001819055508460026001018190555083600460000181905550826004600101819055508160066000018190555080600660010181905550505050505050565b610e028061026c6000396000f3fe608060405234801561001057600080fd5b506004361061009e5760003560e01c80638da5cb5b116100665780638da5cb5b1461017457806390d8260f146101a8578063aa39aaf81461020a578063ddf0c0701461026a578063f2fde38b146103b65761009e565b80631888b3d3146100a35780634f0cdfa9146100c857806358324335146100ed578063689990d814610145578063715018a61461016a575b600080fd5b6100ab6103fa565b604051808381526020018281526020019250505060405180910390f35b6100d061040c565b604051808381526020018281526020019250505060405180910390f35b61012f6004803603602081101561010357600080fd5b81019080803573ffffffffffffffffffffffffffffffffffffffff16906020019092919050505061041e565b6040518082815260200191505060405180910390f35b61014d610436565b604051808381526020018281526020019250505060405180910390f35b610172610448565b005b61017c6105ce565b604051808273ffffffffffffffffffffffffffffffffffffffff16815260200191505060405180910390f35b6101f4600480360360408110156101be57600080fd5b81019080803573ffffffffffffffffffffffffffffffffffffffff169060200190929190803590602001909291905050506105f7565b6040518082815260200191505060405180910390f35b610268600480360360c081101561022057600080fd5b81019080803590602001909291908035906020019092919080359060200190929190803590602001909291908035906020019092919080359060200190929190505050610705565b005b6103b46004803603604081101561028057600080fd5b810190808035906020019064010000000081111561029d57600080fd5b8201836020820111156102af57600080fd5b803590602001918460208302840111640100000000831117156102d157600080fd5b919080806020026020016040519081016040528093929190818152602001838360200280828437600081840152601f19601f8201169050808301925050505050505091929192908035906020019064010000000081111561033157600080fd5b82018360208201111561034357600080fd5b8035906020019184602083028401116401000000008311171561036557600080fd5b919080806020026020016040519081016040528093929190818152602001838360200280828437600081840152601f19601f820116905080830192505050505050509192919290505050610811565b005b6103f8600480360360208110156103cc57600080fd5b81019080803573ffffffffffffffffffffffffffffffffffffffff1690602001909291905050506109dc565b005b60028060000154908060010154905082565b60068060000154908060010154905082565b60016020528060005260406000206000915090505481565b60048060000154908060010154905082565b610450610be7565b73ffffffffffffffffffffffffffffffffffffffff1660008054906101000a900473ffffffffffffffffffffffffffffffffffffffff1673ffffffffffffffffffffffffffffffffffffffff1614610510576040517f08c379a00000000000000000000000000000000000000000000000000000000081526004018080602001828103825260208152602001807f4f776e61626c653a2063616c6c6572206973206e6f7420746865206f776e657281525060200191505060405180910390fd5b600073ffffffffffffffffffffffffffffffffffffffff1660008054906101000a900473ffffffffffffffffffffffffffffffffffffffff1673ffffffffffffffffffffffffffffffffffffffff167f8be0079c531659141344cd1fd0a4f28419497f9722a3daafe3b4186f6b6457e060405160405180910390a360008060006101000a81548173ffffffffffffffffffffffffffffffffffffffff021916908373ffffffffffffffffffffffffffffffffffffffff160217905550565b60008060009054906101000a900473ffffffffffffffffffffffffffffffffffffffff16905090565b600080600160008573ffffffffffffffffffffffffffffffffffffffff1673ffffffffffffffffffffffffffffffffffffffff168152602001908152602001600020549050600260000154811061067b57610673606461066560026001015486610bef90919063ffffffff16565b610c7590919063ffffffff16565b9150506106ff565b60046000015481106106ba576106b260646106a460046001015486610bef90919063ffffffff16565b610c7590919063ffffffff16565b9150506106ff565b60066000015481106106f9576106f160646106e360066001015486610bef90919063ffffffff16565b610c7590919063ffffffff16565b9150506106ff565b60009150505b92915050565b61070d610be7565b73ffffffffffffffffffffffffffffffffffffffff1660008054906101000a900473ffffffffffffffffffffffffffffffffffffffff1673ffffffffffffffffffffffffffffffffffffffff16146107cd576040517f08c379a00000000000000000000000000000000000000000000000000000000081526004018080602001828103825260208152602001807f4f776e61626c653a2063616c6c6572206973206e6f7420746865206f776e657281525060200191505060405180910390fd5b856002600001819055508460026001018190555083600460000181905550826004600101819055508160066000018190555080600660010181905550505050505050565b610819610be7565b73ffffffffffffffffffffffffffffffffffffffff1660008054906101000a900473ffffffffffffffffffffffffffffffffffffffff1673ffffffffffffffffffffffffffffffffffffffff16146108d9576040517f08c379a00000000000000000000000000000000000000000000000000000000081526004018080602001828103825260208152602001807f4f776e61626c653a2063616c6c6572206973206e6f7420746865206f776e657281525060200191505060405180910390fd5b60005b82518110156109d7578181815181106108f157fe5b60200260200101516001600085848151811061090957fe5b602002602001015173ffffffffffffffffffffffffffffffffffffffff1673ffffffffffffffffffffffffffffffffffffffff168152602001908152602001600020819055507f253631a0c6a9908a520e0cc2641677d808dbc3e2c53802a3ac1ac9e5391cb80383828151811061097c57fe5b602002602001015183838151811061099057fe5b6020026020010151604051808373ffffffffffffffffffffffffffffffffffffffff1681526020018281526020019250505060405180910390a180806001019150506108dc565b505050565b6109e4610be7565b73ffffffffffffffffffffffffffffffffffffffff1660008054906101000a900473ffffffffffffffffffffffffffffffffffffffff1673ffffffffffffffffffffffffffffffffffffffff1614610aa4576040517f08c379a00000000000000000000000000000000000000000000000000000000081526004018080602001828103825260208152602001807f4f776e61626c653a2063616c6c6572206973206e6f7420746865206f776e657281525060200191505060405180910390fd5b600073ffffffffffffffffffffffffffffffffffffffff168173ffffffffffffffffffffffffffffffffffffffff161415610b2a576040517f08c379a0000000000000000000000000000000000000000000000000000000008152600401808060200182810382526026815260200180610d866026913960400191505060405180910390fd5b8073ffffffffffffffffffffffffffffffffffffffff1660008054906101000a900473ffffffffffffffffffffffffffffffffffffffff1673ffffffffffffffffffffffffffffffffffffffff167f8be0079c531659141344cd1fd0a4f28419497f9722a3daafe3b4186f6b6457e060405160405180910390a3806000806101000a81548173ffffffffffffffffffffffffffffffffffffffff021916908373ffffffffffffffffffffffffffffffffffffffff16021790555050565b600033905090565b600080831415610c025760009050610c6f565b6000828402905082848281610c1357fe5b0414610c6a576040517f08c379a0000000000000000000000000000000000000000000000000000000008152600401808060200182810382526021815260200180610dac6021913960400191505060405180910390fd5b809150505b92915050565b6000610cb783836040518060400160405280601a81526020017f536166654d6174683a206469766973696f6e206279207a65726f000000000000815250610cbf565b905092915050565b60008083118290610d6b576040517f08c379a00000000000000000000000000000000000000000000000000000000081526004018080602001828103825283818151815260200191508051906020019080838360005b83811015610d30578082015181840152602081019050610d15565b50505050905090810190601f168015610d5d5780820380516001836020036101000a031916815260200191505b509250505060405180910390fd5b506000838581610d7757fe5b04905080915050939250505056fe4f776e61626c653a206e6577206f776e657220697320746865207a65726f2061646472657373536166654d6174683a206d756c7469706c69636174696f6e206f766572666c6f77a2646970667358221220bc02d3890f537b8f0d198e4dbea8985901704dd9e845933d9e2d4733bb4054b464736f6c634300060c0033",
  "immutableReferences": {},
  "source": "pragma solidity 0.6.12;\r\n\r\nimport \"@openzeppelin/contracts/access/Ownable.sol\";\r\nimport \"@openzeppelin/contracts/math/SafeMath.sol\";\r\nimport \"./interfaces/ITierSystem.sol\";\r\n\r\ncontract TierSystem is ITierSystem, Ownable{\r\n    using SafeMath for uint256;\r\n\r\n    mapping(address => uint256) public usersBalance;\r\n\r\n    event SetUserBalance(address account, uint256 balance);\r\n\r\n    TierInfo public vipTier;\r\n    TierInfo public holdersTier;\r\n    TierInfo public publicTier;\r\n\r\n    struct TierInfo {\r\n        uint256 disAmount;     \r\n        uint256 percent; \r\n    }\r\n\r\n    constructor(\r\n        uint256 _vipDisAmount, \r\n        uint256 _vipPercent, \r\n        uint256 _holdersDisAmount, \r\n        uint256 _holdersPercent, \r\n        uint256 _publicDisAmount, \r\n        uint256 _publicPercent\r\n    ) public {\r\n        setTier(_vipDisAmount, _vipPercent, _holdersDisAmount, _holdersPercent, _publicDisAmount, _publicPercent);\r\n    }\r\n\r\n    function setTier(uint256 _vipDisAmount, uint256 _vipPercent, \r\n                     uint256 _holdersDisAmount, uint256 _holdersPercent, \r\n                     uint256 _publicDisAmount, uint256 _publicPercent) public onlyOwner {\r\n        vipTier.disAmount = _vipDisAmount;\r\n        vipTier.percent = _vipPercent;\r\n\r\n        holdersTier.disAmount = _holdersDisAmount;\r\n        holdersTier.percent = _holdersPercent;\r\n\r\n        publicTier.disAmount = _publicDisAmount;\r\n        publicTier.percent = _publicPercent;\r\n    }\r\n\r\n    function addBalances(address[] memory _addresses, uint256[] memory _balances) external onlyOwner {\r\n        for (uint i = 0; i < _addresses.length; i++) {\r\n            usersBalance[_addresses[i]] = _balances[i];\r\n            emit SetUserBalance(_addresses[i], _balances[i]);\r\n        }\r\n    }\r\n\r\n     function getMaxEthPayment(address user, uint256 maxEthPayment)\r\n        public\r\n        view\r\n        override\r\n        returns (uint256)\r\n    {\r\n       uint256 _disBalance =  usersBalance[user];\r\n        if(_disBalance>=vipTier.disAmount){\r\n           return maxEthPayment.mul(vipTier.percent).div(100);\r\n        }\r\n        if(_disBalance>=holdersTier.disAmount){\r\n           return maxEthPayment.mul(holdersTier.percent).div(100);\r\n        }\r\n        if(_disBalance>=publicTier.disAmount){\r\n           return maxEthPayment.mul(publicTier.percent).div(100);\r\n        }\r\n        return 0;\r\n    }\r\n}",
  "sourcePath": "D:/Projects/TosDisFinance/StakeMaster/contracts/TierSystem.sol",
  "compiler": {
    "name": "solc",
    "version": "0.6.12+commit.27d51765.Emscripten.clang"
  },
  "schemaVersion": "3.4.0",
  "updatedAt": "2021-06-02T11:07:10.598Z",
  "devdoc": {
    "kind": "dev",
    "methods": {
      "owner()": {
        "details": "Returns the address of the current owner."
      },
      "renounceOwnership()": {
        "details": "Leaves the contract without owner. It will not be possible to call `onlyOwner` functions anymore. Can only be called by the current owner. NOTE: Renouncing ownership will leave the contract without an owner, thereby removing any functionality that is only available to the owner."
      },
      "transferOwnership(address)": {
        "details": "Transfers ownership of the contract to a new account (`newOwner`). Can only be called by the current owner."
      }
    },
    "version": 1
  },
  "userdoc": {
    "kind": "user",
    "methods": {},
    "version": 1
  }
}