{
  "contractName": "TokenVesting",
  "abi": [
    {
      "inputs": [
        {
          "internalType": "address",
          "name": "token",
          "type": "address"
        }
      ],
      "stateMutability": "nonpayable",
      "type": "constructor"
    },
    {
      "anonymous": false,
      "inputs": [
        {
          "indexed": false,
          "internalType": "uint256",
          "name": "amount",
          "type": "uint256"
        }
      ],
      "name": "Released",
      "type": "event"
    },
    {
      "inputs": [
        {
          "internalType": "address",
          "name": "beneficiary",
          "type": "address"
        }
      ],
      "name": "getVesting",
      "outputs": [
        {
          "internalType": "uint256",
          "name": "",
          "type": "uint256"
        },
        {
          "internalType": "uint256",
          "name": "",
          "type": "uint256"
        },
        {
          "internalType": "uint256",
          "name": "",
          "type": "uint256"
        },
        {
          "internalType": "uint256",
          "name": "",
          "type": "uint256"
        },
        {
          "internalType": "uint256",
          "name": "",
          "type": "uint256"
        }
      ],
      "stateMutability": "view",
      "type": "function"
    },
    {
      "inputs": [
        {
          "internalType": "address",
          "name": "beneficiary",
          "type": "address"
        },
        {
          "internalType": "uint256",
          "name": "start",
          "type": "uint256"
        },
        {
          "internalType": "uint256",
          "name": "interval",
          "type": "uint256"
        },
        {
          "internalType": "uint256",
          "name": "duration",
          "type": "uint256"
        },
        {
          "internalType": "uint256",
          "name": "amount",
          "type": "uint256"
        }
      ],
      "name": "createVesting",
      "outputs": [],
      "stateMutability": "nonpayable",
      "type": "function"
    },
    {
      "inputs": [
        {
          "internalType": "uint256",
          "name": "start",
          "type": "uint256"
        }
      ],
      "name": "postponeVesting",
      "outputs": [],
      "stateMutability": "nonpayable",
      "type": "function"
    },
    {
      "inputs": [
        {
          "internalType": "address",
          "name": "beneficiary",
          "type": "address"
        }
      ],
      "name": "release",
      "outputs": [],
      "stateMutability": "nonpayable",
      "type": "function"
    },
    {
      "inputs": [
        {
          "internalType": "address",
          "name": "beneficiary",
          "type": "address"
        }
      ],
      "name": "releasableAmount",
      "outputs": [
        {
          "internalType": "uint256",
          "name": "",
          "type": "uint256"
        }
      ],
      "stateMutability": "view",
      "type": "function"
    },
    {
      "inputs": [
        {
          "internalType": "address",
          "name": "beneficiary",
          "type": "address"
        }
      ],
      "name": "vestedAmount",
      "outputs": [
        {
          "internalType": "uint256",
          "name": "",
          "type": "uint256"
        }
      ],
      "stateMutability": "view",
      "type": "function"
    }
  ],
  "bytecode": "0x608060405234801561001057600080fd5b506040516116173803806116178339818101604052602081101561003357600080fd5b81019080805190602001909291905050506001600081905550600073ffffffffffffffffffffffffffffffffffffffff168173ffffffffffffffffffffffffffffffffffffffff1614156100ef576040517f08c379a000000000000000000000000000000000000000000000000000000000815260040180806020018281038252601c8152602001807f746f6b656e20616464726573732063616e6e6f74206265207a65726f0000000081525060200191505060405180910390fd5b80600160006101000a81548173ffffffffffffffffffffffffffffffffffffffff021916908373ffffffffffffffffffffffffffffffffffffffff160217905550506114d7806101406000396000f3fe608060405234801561001057600080fd5b50600436106100625760003560e01c80631726cbc81461006757806319165587146100bf578063384711cc14610103578063b5ec0b971461015b578063cc49ede714610189578063eab23abe146101fd575b600080fd5b6100a96004803603602081101561007d57600080fd5b81019080803573ffffffffffffffffffffffffffffffffffffffff169060200190929190505050610269565b6040518082815260200191505060405180910390f35b610101600480360360208110156100d557600080fd5b81019080803573ffffffffffffffffffffffffffffffffffffffff1690602001909291905050506102cf565b005b6101456004803603602081101561011957600080fd5b81019080803573ffffffffffffffffffffffffffffffffffffffff1690602001909291905050506104c8565b6040518082815260200191505060405180910390f35b6101876004803603602081101561017157600080fd5b8101908080359060200190929190505050610622565b005b6101cb6004803603602081101561019f57600080fd5b81019080803573ffffffffffffffffffffffffffffffffffffffff169060200190929190505050610733565b604051808681526020018581526020018481526020018381526020018281526020019550505050505060405180910390f35b610267600480360360a081101561021357600080fd5b81019080803573ffffffffffffffffffffffffffffffffffffffff169060200190929190803590602001909291908035906020019092919080359060200190929190803590602001909291905050506107ee565b005b60006102c8600260008473ffffffffffffffffffffffffffffffffffffffff1673ffffffffffffffffffffffffffffffffffffffff168152602001908152602001600020600401546102ba846104c8565b610a5590919063ffffffff16565b9050919050565b60026000541415610348576040517f08c379a000000000000000000000000000000000000000000000000000000000815260040180806020018281038252601f8152602001807f5265656e7472616e637947756172643a207265656e7472616e742063616c6c0081525060200191505060405180910390fd5b6002600081905550600061035b82610269565b9050600081116103b6576040517f08c379a00000000000000000000000000000000000000000000000000000000081526004018080602001828103825260298152602001806114796029913960400191505060405180910390fd5b6000600260008473ffffffffffffffffffffffffffffffffffffffff1673ffffffffffffffffffffffffffffffffffffffff1681526020019081526020016000209050610410828260040154610a9f90919063ffffffff16565b816004018190555061042f828260030154610a5590919063ffffffff16565b81600301819055506104848383600160009054906101000a900473ffffffffffffffffffffffffffffffffffffffff1673ffffffffffffffffffffffffffffffffffffffff16610b279092919063ffffffff16565b7ffb81f9b30d73d830c3544b34d827c08142579ee75710b490bab0b3995468c565826040518082815260200191505060405180910390a15050600160008190555050565b60006104d2611277565b600260008473ffffffffffffffffffffffffffffffffffffffff1673ffffffffffffffffffffffffffffffffffffffff1681526020019081526020016000206040518060a00160405290816000820154815260200160018201548152602001600282015481526020016003820154815260200160048201548152505090506000816060015190506000610572836080015183610a9f90919063ffffffff16565b905061058f83604001518460000151610a9f90919063ffffffff16565b42106105a05780935050505061061d565b60006105cf84602001516105c1866000015142610a5590919063ffffffff16565b610bc990919063ffffffff16565b905060006105ee85602001518660400151610bc990919063ffffffff16565b9050610615816106078486610c1390919063ffffffff16565b610bc990919063ffffffff16565b955050505050505b919050565b600060026000610630610c99565b73ffffffffffffffffffffffffffffffffffffffff1673ffffffffffffffffffffffffffffffffffffffff16815260200190815260200160002090506000816003015414156106ca576040517f08c379a000000000000000000000000000000000000000000000000000000000815260040180806020018281038252604581526020018061132f6045913960600191505060405180910390fd5b81816000015410610726576040517f08c379a00000000000000000000000000000000000000000000000000000000081526004018080602001828103825260588152602001806113f76058913960600191505060405180910390fd5b8181600001819055505050565b6000806000806000610743611277565b600260008873ffffffffffffffffffffffffffffffffffffffff1673ffffffffffffffffffffffffffffffffffffffff1681526020019081526020016000206040518060a001604052908160008201548152602001600182015481526020016002820154815260200160038201548152602001600482015481525050905080600001518160200151826040015183606001518460800151955095509550955095505091939590929450565b60026000541415610867576040517f08c379a000000000000000000000000000000000000000000000000000000000815260040180806020018281038252601f8152602001807f5265656e7472616e637947756172643a207265656e7472616e742063616c6c0081525060200191505060405180910390fd5b6002600081905550600083116108c8576040517f08c379a000000000000000000000000000000000000000000000000000000000815260040180806020018281038252603c81526020018061139a603c913960400191505060405180910390fd5b82821015610921576040517f08c379a00000000000000000000000000000000000000000000000000000000081526004018080602001828103825260448152602001806112a76044913960600191505060405180910390fd5b6000600260008773ffffffffffffffffffffffffffffffffffffffff1673ffffffffffffffffffffffffffffffffffffffff168152602001908152602001600020905060008160030154146109c1576040517f08c379a00000000000000000000000000000000000000000000000000000000081526004018080602001828103825260448152602001806112eb6044913960600191505060405180910390fd5b610a176109cc610c99565b3084600160009054906101000a900473ffffffffffffffffffffffffffffffffffffffff1673ffffffffffffffffffffffffffffffffffffffff16610ca1909392919063ffffffff16565b848160000181905550838160010181905550828160020181905550818160030181905550600081600401819055505060016000819055505050505050565b6000610a9783836040518060400160405280601e81526020017f536166654d6174683a207375627472616374696f6e206f766572666c6f770000815250610d62565b905092915050565b600080828401905083811015610b1d576040517f08c379a000000000000000000000000000000000000000000000000000000000815260040180806020018281038252601b8152602001807f536166654d6174683a206164646974696f6e206f766572666c6f77000000000081525060200191505060405180910390fd5b8091505092915050565b610bc48363a9059cbb60e01b8484604051602401808373ffffffffffffffffffffffffffffffffffffffff16815260200182815260200192505050604051602081830303815290604052907bffffffffffffffffffffffffffffffffffffffffffffffffffffffff19166020820180517bffffffffffffffffffffffffffffffffffffffffffffffffffffffff8381831617835250505050610e22565b505050565b6000610c0b83836040518060400160405280601a81526020017f536166654d6174683a206469766973696f6e206279207a65726f000000000000815250610f11565b905092915050565b600080831415610c265760009050610c93565b6000828402905082848281610c3757fe5b0414610c8e576040517f08c379a00000000000000000000000000000000000000000000000000000000081526004018080602001828103825260218152602001806113d66021913960400191505060405180910390fd5b809150505b92915050565b600033905090565b610d5c846323b872dd60e01b858585604051602401808473ffffffffffffffffffffffffffffffffffffffff1681526020018373ffffffffffffffffffffffffffffffffffffffff1681526020018281526020019350505050604051602081830303815290604052907bffffffffffffffffffffffffffffffffffffffffffffffffffffffff19166020820180517bffffffffffffffffffffffffffffffffffffffffffffffffffffffff8381831617835250505050610e22565b50505050565b6000838311158290610e0f576040517f08c379a00000000000000000000000000000000000000000000000000000000081526004018080602001828103825283818151815260200191508051906020019080838360005b83811015610dd4578082015181840152602081019050610db9565b50505050905090810190601f168015610e015780820380516001836020036101000a031916815260200191505b509250505060405180910390fd5b5060008385039050809150509392505050565b6060610e84826040518060400160405280602081526020017f5361666545524332303a206c6f772d6c6576656c2063616c6c206661696c65648152508573ffffffffffffffffffffffffffffffffffffffff16610fd79092919063ffffffff16565b9050600081511115610f0c57808060200190516020811015610ea557600080fd5b8101908080519060200190929190505050610f0b576040517f08c379a000000000000000000000000000000000000000000000000000000000815260040180806020018281038252602a81526020018061144f602a913960400191505060405180910390fd5b5b505050565b60008083118290610fbd576040517f08c379a00000000000000000000000000000000000000000000000000000000081526004018080602001828103825283818151815260200191508051906020019080838360005b83811015610f82578082015181840152602081019050610f67565b50505050905090810190601f168015610faf5780820380516001836020036101000a031916815260200191505b509250505060405180910390fd5b506000838581610fc957fe5b049050809150509392505050565b6060610fe68484600085610fef565b90509392505050565b60608247101561104a576040517f08c379a00000000000000000000000000000000000000000000000000000000081526004018080602001828103825260268152602001806113746026913960400191505060405180910390fd5b61105385611198565b6110c5576040517f08c379a000000000000000000000000000000000000000000000000000000000815260040180806020018281038252601d8152602001807f416464726573733a2063616c6c20746f206e6f6e2d636f6e747261637400000081525060200191505060405180910390fd5b600060608673ffffffffffffffffffffffffffffffffffffffff1685876040518082805190602001908083835b6020831061111557805182526020820191506020810190506020830392506110f2565b6001836020036101000a03801982511681845116808217855250505050505090500191505060006040518083038185875af1925050503d8060008114611177576040519150601f19603f3d011682016040523d82523d6000602084013e61117c565b606091505b509150915061118c8282866111ab565b92505050949350505050565b600080823b905060008111915050919050565b606083156111bb57829050611270565b6000835111156111ce5782518084602001fd5b816040517f08c379a00000000000000000000000000000000000000000000000000000000081526004018080602001828103825283818151815260200191508051906020019080838360005b8381101561123557808201518184015260208101905061121a565b50505050905090810190601f1680156112625780820380516001836020036101000a031916815260200191505b509250505060405180910390fd5b9392505050565b6040518060a001604052806000815260200160008152602001600081526020016000815260200160008152509056fe546f6b656e56657374696e67202363726561746556657374696e673a20696e74657276616c2063616e6e6f7420626520626967676572207468616e206475726174696f6e546f6b656e56657374696e67202363726561746556657374696e673a2076657374696e6720666f722062656e656669636961727920616c72656164792063726561746564546f6b656e56657374696e672023706f7374706f6e6556657374696e673a2076657374696e6720666f722062656e656669636961727920646f6573206e6f74206578697374416464726573733a20696e73756666696369656e742062616c616e636520666f722063616c6c546f6b656e56657374696e67202363726561746556657374696e673a20696e74657276616c206d7573742062652067726561746572207468616e2030536166654d6174683a206d756c7469706c69636174696f6e206f766572666c6f77546f6b656e56657374696e672023706f7374706f6e6556657374696e673a206e657720737461727420646174652063616e6e6f74206265206561726c696572207468616e206f726967696e616c20737461727420646174655361666545524332303a204552433230206f7065726174696f6e20646964206e6f742073756363656564546f6b656e56657374696e67202372656c656173653a206e6f7468696e6720746f2072656c65617365a2646970667358221220f13e14ad677fe15e7998a7753bb191bd63268dbcfb2842314d2b9d707d78d4c864736f6c634300060c0033",
  "immutableReferences": {},
  "source": "// SPDX-License-Identifier: MIT\r\n\r\npragma solidity 0.6.12;\r\n\r\nimport \"@openzeppelin/contracts/GSN/Context.sol\";\r\nimport \"@openzeppelin/contracts/token/ERC20/IERC20.sol\";\r\nimport \"@openzeppelin/contracts/math/SafeMath.sol\";\r\nimport \"@openzeppelin/contracts/token/ERC20/SafeERC20.sol\";\r\nimport \"@openzeppelin/contracts/utils/ReentrancyGuard.sol\";\r\n\r\n\r\n/**\r\n * @title TokenVesting\r\n * @dev A token holder contract that can release its token balance gradually like a\r\n * typical vesting scheme, with a cliff and vesting period. Optionally revocable by the\r\n * owner.\r\n */\r\ncontract TokenVesting is Context, ReentrancyGuard  {\r\n    using SafeMath for uint256;\r\n    using SafeERC20 for IERC20;\r\n\r\n    event Released(uint256 amount);\r\n\r\n    IERC20 private _token;\r\n\r\n    struct Vesting {\r\n        uint256 start;\r\n        uint256 interval;\r\n        uint256 duration;\r\n        uint256 balance;\r\n        uint256 released;\r\n    }\r\n\r\n    mapping (address => Vesting) private _vestings;\r\n\r\n    constructor (address token) public {\r\n        require(token != address(0), \"token address cannot be zero\");\r\n        _token = IERC20(token);\r\n    }\r\n\r\n    function getVesting(address beneficiary) public view returns (uint256, uint256, uint256, uint256, uint256) {\r\n        Vesting memory v = _vestings[beneficiary];\r\n        return (v.start, v.interval, v.duration, v.balance, v.released);\r\n    }\r\n\r\n    function createVesting(\r\n        address beneficiary,\r\n        uint256 start,\r\n        uint256 interval,\r\n        uint256 duration,\r\n        uint256 amount\r\n    ) external nonReentrant {\r\n        require(interval > 0 , \"TokenVesting #createVesting: interval must be greater than 0\");\r\n        require(duration >= interval, \"TokenVesting #createVesting: interval cannot be bigger than duration\");\r\n\r\n        Vesting storage vest = _vestings[beneficiary];\r\n        require(vest.balance == 0, \"TokenVesting #createVesting: vesting for beneficiary already created\");\r\n\r\n        _token.safeTransferFrom(_msgSender(), address(this), amount);\r\n\r\n        vest.start = start;\r\n        vest.interval = interval;\r\n        vest.duration = duration;\r\n        vest.balance = amount;\r\n        vest.released = uint256(0);\r\n    }\r\n\r\n    function postponeVesting(uint256 start) external {\r\n        Vesting storage vest = _vestings[_msgSender()];\r\n        require(vest.balance != 0, \"TokenVesting #postponeVesting: vesting for beneficiary does not exist\");\r\n        require(vest.start < start, \"TokenVesting #postponeVesting: new start date cannot be earlier than original start date\");\r\n        vest.start = start;\r\n    }\r\n\r\n    function release(address beneficiary) external nonReentrant {\r\n        uint256 unreleased = releasableAmount(beneficiary);\r\n        require(unreleased > 0, \"TokenVesting #release: nothing to release\");\r\n\r\n        Vesting storage vest = _vestings[beneficiary];\r\n\r\n        vest.released = vest.released.add(unreleased);\r\n        vest.balance = vest.balance.sub(unreleased);\r\n\r\n        _token.safeTransfer(beneficiary, unreleased);\r\n        emit Released(unreleased);\r\n    }\r\n\r\n    function releasableAmount(address beneficiary) public view returns (uint256) {\r\n        return vestedAmount(beneficiary).sub(_vestings[beneficiary].released);\r\n    }\r\n\r\n    function vestedAmount(address beneficiary) public view returns (uint256) {\r\n        Vesting memory vest = _vestings[beneficiary];\r\n        uint256 currentBalance = vest.balance;\r\n        uint256 totalBalance = currentBalance.add(vest.released);\r\n\r\n        if (block.timestamp >= vest.start.add(vest.duration)) {\r\n            return totalBalance;\r\n        } else {\r\n            uint256 numberOfInvervals = block.timestamp.sub(vest.start).div(vest.interval);\r\n            uint256 totalIntervals = vest.duration.div(vest.interval);\r\n            return totalBalance.mul(numberOfInvervals).div(totalIntervals);\r\n        }\r\n    }\r\n}\r\n",
  "sourcePath": "F:/PROJECTS/StakeMaster/contracts/TokenVesting.sol",
  "compiler": {
    "name": "solc",
    "version": "0.6.12+commit.27d51765.Emscripten.clang"
  },
  "schemaVersion": "3.3.2",
  "updatedAt": "2021-02-04T16:27:09.928Z",
  "networkType": "ethereum",
  "devdoc": {
    "details": "A token holder contract that can release its token balance gradually like a typical vesting scheme, with a cliff and vesting period. Optionally revocable by the owner.",
    "kind": "dev",
    "methods": {},
    "title": "TokenVesting",
    "version": 1
  },
  "userdoc": {
    "kind": "user",
    "methods": {},
    "version": 1
  }
}