{
  "contractName": "TosDisERC20",
  "abi": [
    {
      "inputs": [],
      "stateMutability": "nonpayable",
      "type": "constructor"
    },
    {
      "anonymous": false,
      "inputs": [
        {
          "indexed": true,
          "internalType": "address",
          "name": "owner",
          "type": "address"
        },
        {
          "indexed": true,
          "internalType": "address",
          "name": "spender",
          "type": "address"
        },
        {
          "indexed": false,
          "internalType": "uint256",
          "name": "value",
          "type": "uint256"
        }
      ],
      "name": "Approval",
      "type": "event"
    },
    {
      "anonymous": false,
      "inputs": [
        {
          "indexed": true,
          "internalType": "address",
          "name": "from",
          "type": "address"
        },
        {
          "indexed": true,
          "internalType": "address",
          "name": "to",
          "type": "address"
        },
        {
          "indexed": false,
          "internalType": "uint256",
          "name": "value",
          "type": "uint256"
        }
      ],
      "name": "Burn",
      "type": "event"
    },
    {
      "anonymous": false,
      "inputs": [
        {
          "indexed": true,
          "internalType": "address",
          "name": "from",
          "type": "address"
        },
        {
          "indexed": true,
          "internalType": "address",
          "name": "to",
          "type": "address"
        },
        {
          "indexed": false,
          "internalType": "uint256",
          "name": "value",
          "type": "uint256"
        }
      ],
      "name": "Mint",
      "type": "event"
    },
    {
      "anonymous": false,
      "inputs": [
        {
          "indexed": true,
          "internalType": "address",
          "name": "from",
          "type": "address"
        },
        {
          "indexed": true,
          "internalType": "address",
          "name": "to",
          "type": "address"
        },
        {
          "indexed": false,
          "internalType": "uint256",
          "name": "value",
          "type": "uint256"
        }
      ],
      "name": "Transfer",
      "type": "event"
    },
    {
      "inputs": [],
      "name": "TokenSignature",
      "outputs": [
        {
          "internalType": "bytes32",
          "name": "",
          "type": "bytes32"
        }
      ],
      "stateMutability": "view",
      "type": "function"
    },
    {
      "inputs": [
        {
          "internalType": "address",
          "name": "",
          "type": "address"
        },
        {
          "internalType": "address",
          "name": "",
          "type": "address"
        }
      ],
      "name": "allowance",
      "outputs": [
        {
          "internalType": "uint256",
          "name": "",
          "type": "uint256"
        }
      ],
      "stateMutability": "view",
      "type": "function"
    },
    {
      "inputs": [
        {
          "internalType": "address",
          "name": "",
          "type": "address"
        }
      ],
      "name": "balanceOf",
      "outputs": [
        {
          "internalType": "uint256",
          "name": "",
          "type": "uint256"
        }
      ],
      "stateMutability": "view",
      "type": "function"
    },
    {
      "inputs": [],
      "name": "decimals",
      "outputs": [
        {
          "internalType": "uint8",
          "name": "",
          "type": "uint8"
        }
      ],
      "stateMutability": "view",
      "type": "function"
    },
    {
      "inputs": [],
      "name": "name",
      "outputs": [
        {
          "internalType": "string",
          "name": "",
          "type": "string"
        }
      ],
      "stateMutability": "view",
      "type": "function"
    },
    {
      "inputs": [],
      "name": "platform",
      "outputs": [
        {
          "internalType": "address",
          "name": "",
          "type": "address"
        }
      ],
      "stateMutability": "view",
      "type": "function"
    },
    {
      "inputs": [],
      "name": "symbol",
      "outputs": [
        {
          "internalType": "string",
          "name": "",
          "type": "string"
        }
      ],
      "stateMutability": "view",
      "type": "function"
    },
    {
      "inputs": [],
      "name": "totalSupply",
      "outputs": [
        {
          "internalType": "uint256",
          "name": "",
          "type": "uint256"
        }
      ],
      "stateMutability": "view",
      "type": "function"
    },
    {
      "inputs": [
        {
          "internalType": "string",
          "name": "_name",
          "type": "string"
        },
        {
          "internalType": "string",
          "name": "_symbol",
          "type": "string"
        },
        {
          "internalType": "uint8",
          "name": "_decimals",
          "type": "uint8"
        }
      ],
      "name": "initialize",
      "outputs": [],
      "stateMutability": "nonpayable",
      "type": "function"
    },
    {
      "inputs": [
        {
          "internalType": "address",
          "name": "spender",
          "type": "address"
        },
        {
          "internalType": "uint256",
          "name": "value",
          "type": "uint256"
        }
      ],
      "name": "approve",
      "outputs": [
        {
          "internalType": "bool",
          "name": "",
          "type": "bool"
        }
      ],
      "stateMutability": "nonpayable",
      "type": "function"
    },
    {
      "inputs": [
        {
          "internalType": "address",
          "name": "to",
          "type": "address"
        },
        {
          "internalType": "uint256",
          "name": "value",
          "type": "uint256"
        }
      ],
      "name": "transfer",
      "outputs": [
        {
          "internalType": "bool",
          "name": "",
          "type": "bool"
        }
      ],
      "stateMutability": "nonpayable",
      "type": "function"
    },
    {
      "inputs": [
        {
          "internalType": "address",
          "name": "from",
          "type": "address"
        },
        {
          "internalType": "address",
          "name": "to",
          "type": "address"
        },
        {
          "internalType": "uint256",
          "name": "value",
          "type": "uint256"
        }
      ],
      "name": "transferFrom",
      "outputs": [
        {
          "internalType": "bool",
          "name": "",
          "type": "bool"
        }
      ],
      "stateMutability": "nonpayable",
      "type": "function"
    },
    {
      "inputs": [
        {
          "internalType": "address",
          "name": "to",
          "type": "address"
        },
        {
          "internalType": "uint256",
          "name": "value",
          "type": "uint256"
        }
      ],
      "name": "mint",
      "outputs": [],
      "stateMutability": "nonpayable",
      "type": "function"
    },
    {
      "inputs": [
        {
          "internalType": "address",
          "name": "from",
          "type": "address"
        },
        {
          "internalType": "uint256",
          "name": "value",
          "type": "uint256"
        }
      ],
      "name": "burn",
      "outputs": [],
      "stateMutability": "nonpayable",
      "type": "function"
    }
  ],
  "bytecode": "0x60806040526012600360006101000a81548160ff021916908360ff16021790555034801561002c57600080fd5b50336000806101000a81548173ffffffffffffffffffffffffffffffffffffffff021916908373ffffffffffffffffffffffffffffffffffffffff1602179055506115628061007c6000396000f3fe608060405234801561001057600080fd5b50600436106100ea5760003560e01c80634bde38c81161008c5780639dc29fac116100665780639dc29fac14610555578063a9059cbb146105a3578063dd62ed3e14610607578063ecda05261461067f576100ea565b80634bde38c81461044657806370a082311461047a57806395d89b41146104d2576100ea565b806318160ddd116100c857806318160ddd1461033557806323b872dd14610353578063313ce567146103d757806340c10f19146103f8576100ea565b806306fdde03146100ef578063095ea7b3146101725780631624f6c6146101d6575b600080fd5b6100f761069d565b6040518080602001828103825283818151815260200191508051906020019080838360005b8381101561013757808201518184015260208101905061011c565b50505050905090810190601f1680156101645780820380516001836020036101000a031916815260200191505b509250505060405180910390f35b6101be6004803603604081101561018857600080fd5b81019080803573ffffffffffffffffffffffffffffffffffffffff1690602001909291908035906020019092919050505061073b565b60405180821515815260200191505060405180910390f35b610333600480360360608110156101ec57600080fd5b810190808035906020019064010000000081111561020957600080fd5b82018360208201111561021b57600080fd5b8035906020019184600183028401116401000000008311171561023d57600080fd5b91908080601f016020809104026020016040519081016040528093929190818152602001838380828437600081840152601f19601f820116905080830192505050505050509192919290803590602001906401000000008111156102a057600080fd5b8201836020820111156102b257600080fd5b803590602001918460018302840111640100000000831117156102d457600080fd5b91908080601f016020809104026020016040519081016040528093929190818152602001838380828437600081840152601f19601f820116905080830192505050505050509192919290803560ff16906020019092919050505061082d565b005b61033d61093c565b6040518082815260200191505060405180910390f35b6103bf6004803603606081101561036957600080fd5b81019080803573ffffffffffffffffffffffffffffffffffffffff169060200190929190803573ffffffffffffffffffffffffffffffffffffffff16906020019092919080359060200190929190505050610942565b60405180821515815260200191505060405180910390f35b6103df610b3e565b604051808260ff16815260200191505060405180910390f35b6104446004803603604081101561040e57600080fd5b81019080803573ffffffffffffffffffffffffffffffffffffffff16906020019092919080359060200190929190505050610b51565b005b61044e610d2c565b604051808273ffffffffffffffffffffffffffffffffffffffff16815260200191505060405180910390f35b6104bc6004803603602081101561049057600080fd5b81019080803573ffffffffffffffffffffffffffffffffffffffff169060200190929190505050610d50565b6040518082815260200191505060405180910390f35b6104da610d68565b6040518080602001828103825283818151815260200191508051906020019080838360005b8381101561051a5780820151818401526020810190506104ff565b50505050905090810190601f1680156105475780820380516001836020036101000a031916815260200191505b509250505060405180910390f35b6105a16004803603604081101561056b57600080fd5b81019080803573ffffffffffffffffffffffffffffffffffffffff16906020019092919080359060200190929190505050610e06565b005b6105ef600480360360408110156105b957600080fd5b81019080803573ffffffffffffffffffffffffffffffffffffffff16906020019092919080359060200190929190505050610fe1565b60405180821515815260200191505060405180910390f35b6106696004803603604081101561061d57600080fd5b81019080803573ffffffffffffffffffffffffffffffffffffffff169060200190929190803573ffffffffffffffffffffffffffffffffffffffff169060200190929190505050610ff8565b6040518082815260200191505060405180910390f35b61068761101d565b6040518082815260200191505060405180910390f35b60018054600181600116156101000203166002900480601f0160208091040260200160405190810160405280929190818152602001828054600181600116156101000203166002900480156107335780601f1061070857610100808354040283529160200191610733565b820191906000526020600020905b81548152906001019060200180831161071657829003601f168201915b505050505081565b600081600660003373ffffffffffffffffffffffffffffffffffffffff1673ffffffffffffffffffffffffffffffffffffffff16815260200190815260200160002060008573ffffffffffffffffffffffffffffffffffffffff1673ffffffffffffffffffffffffffffffffffffffff168152602001908152602001600020819055508273ffffffffffffffffffffffffffffffffffffffff163373ffffffffffffffffffffffffffffffffffffffff167f8c5be1e5ebec7d5bd14f71427d1e84f3dd0314c0f7b2291e5b200ac8c7c3b925846040518082815260200191505060405180910390a36001905092915050565b60008054906101000a900473ffffffffffffffffffffffffffffffffffffffff1673ffffffffffffffffffffffffffffffffffffffff163373ffffffffffffffffffffffffffffffffffffffff16146108ee576040517f08c379a00000000000000000000000000000000000000000000000000000000081526004018080602001828103825260098152602001807f464f5242494444454e000000000000000000000000000000000000000000000081525060200191505060405180910390fd5b826001908051906020019061090492919061146d565b50816002908051906020019061091b92919061146d565b5080600360006101000a81548160ff021916908360ff160217905550505050565b60045481565b600081600660008673ffffffffffffffffffffffffffffffffffffffff1673ffffffffffffffffffffffffffffffffffffffff16815260200190815260200160002060003373ffffffffffffffffffffffffffffffffffffffff1673ffffffffffffffffffffffffffffffffffffffff168152602001908152602001600020541015610a19576040517f08c379a000000000000000000000000000000000000000000000000000000000815260040180806020018281038252602281526020018061150b6022913960400191505060405180910390fd5b610aa882600660008773ffffffffffffffffffffffffffffffffffffffff1673ffffffffffffffffffffffffffffffffffffffff16815260200190815260200160002060003373ffffffffffffffffffffffffffffffffffffffff1673ffffffffffffffffffffffffffffffffffffffff1681526020019081526020016000205461104190919063ffffffff16565b600660008673ffffffffffffffffffffffffffffffffffffffff1673ffffffffffffffffffffffffffffffffffffffff16815260200190815260200160002060003373ffffffffffffffffffffffffffffffffffffffff1673ffffffffffffffffffffffffffffffffffffffff16815260200190815260200160002081905550610b3384848461108b565b600190509392505050565b600360009054906101000a900460ff1681565b60008054906101000a900473ffffffffffffffffffffffffffffffffffffffff1673ffffffffffffffffffffffffffffffffffffffff163373ffffffffffffffffffffffffffffffffffffffff1614610c12576040517f08c379a00000000000000000000000000000000000000000000000000000000081526004018080602001828103825260098152602001807f464f5242494444454e000000000000000000000000000000000000000000000081525060200191505060405180910390fd5b610c278160045461132590919063ffffffff16565b600481905550610c7f81600560008573ffffffffffffffffffffffffffffffffffffffff1673ffffffffffffffffffffffffffffffffffffffff1681526020019081526020016000205461132590919063ffffffff16565b600560008473ffffffffffffffffffffffffffffffffffffffff1673ffffffffffffffffffffffffffffffffffffffff168152602001908152602001600020819055508173ffffffffffffffffffffffffffffffffffffffff16600073ffffffffffffffffffffffffffffffffffffffff167fab8530f87dc9b59234c4623bf917212bb2536d647574c8e7e5da92c2ede0c9f8836040518082815260200191505060405180910390a35050565b60008054906101000a900473ffffffffffffffffffffffffffffffffffffffff1681565b60056020528060005260406000206000915090505481565b60028054600181600116156101000203166002900480601f016020809104026020016040519081016040528092919081815260200182805460018160011615610100020316600290048015610dfe5780601f10610dd357610100808354040283529160200191610dfe565b820191906000526020600020905b815481529060010190602001808311610de157829003601f168201915b505050505081565b60008054906101000a900473ffffffffffffffffffffffffffffffffffffffff1673ffffffffffffffffffffffffffffffffffffffff163373ffffffffffffffffffffffffffffffffffffffff1614610ec7576040517f08c379a00000000000000000000000000000000000000000000000000000000081526004018080602001828103825260098152602001807f464f5242494444454e000000000000000000000000000000000000000000000081525060200191505060405180910390fd5b610f1981600560008573ffffffffffffffffffffffffffffffffffffffff1673ffffffffffffffffffffffffffffffffffffffff1681526020019081526020016000205461104190919063ffffffff16565b600560008473ffffffffffffffffffffffffffffffffffffffff1673ffffffffffffffffffffffffffffffffffffffff16815260200190815260200160002081905550610f718160045461104190919063ffffffff16565b600481905550600073ffffffffffffffffffffffffffffffffffffffff168273ffffffffffffffffffffffffffffffffffffffff167fbac40739b0d4ca32fa2d82fc91630465ba3eddd1598da6fca393b26fb63b9453836040518082815260200191505060405180910390a35050565b6000610fee33848461108b565b6001905092915050565b6006602052816000526040600020602052806000526040600020600091509150505481565b7f544f534449535f5452414e53495400000000000000000000000000000000000081565b600061108383836040518060400160405280601e81526020017f536166654d6174683a207375627472616374696f6e206f766572666c6f7700008152506113ad565b905092915050565b80600560008573ffffffffffffffffffffffffffffffffffffffff1673ffffffffffffffffffffffffffffffffffffffff168152602001908152602001600020541015611140576040517f08c379a00000000000000000000000000000000000000000000000000000000081526004018080602001828103825260208152602001807f4552433230546f6b656e3a20494e53554646494349454e545f42414c414e434581525060200191505060405180910390fd5b61119281600560008673ffffffffffffffffffffffffffffffffffffffff1673ffffffffffffffffffffffffffffffffffffffff1681526020019081526020016000205461104190919063ffffffff16565b600560008573ffffffffffffffffffffffffffffffffffffffff1673ffffffffffffffffffffffffffffffffffffffff1681526020019081526020016000208190555061122781600560008573ffffffffffffffffffffffffffffffffffffffff1673ffffffffffffffffffffffffffffffffffffffff1681526020019081526020016000205461132590919063ffffffff16565b600560008473ffffffffffffffffffffffffffffffffffffffff1673ffffffffffffffffffffffffffffffffffffffff16815260200190815260200160002081905550600073ffffffffffffffffffffffffffffffffffffffff168273ffffffffffffffffffffffffffffffffffffffff1614156112bb576112b48160045461104190919063ffffffff16565b6004819055505b8173ffffffffffffffffffffffffffffffffffffffff168373ffffffffffffffffffffffffffffffffffffffff167fddf252ad1be2c89b69c2b068fc378daa952ba7f163c4a11628f55a4df523b3ef836040518082815260200191505060405180910390a3505050565b6000808284019050838110156113a3576040517f08c379a000000000000000000000000000000000000000000000000000000000815260040180806020018281038252601b8152602001807f536166654d6174683a206164646974696f6e206f766572666c6f77000000000081525060200191505060405180910390fd5b8091505092915050565b600083831115829061145a576040517f08c379a00000000000000000000000000000000000000000000000000000000081526004018080602001828103825283818151815260200191508051906020019080838360005b8381101561141f578082015181840152602081019050611404565b50505050905090810190601f16801561144c5780820380516001836020036101000a031916815260200191505b509250505060405180910390fd5b5060008385039050809150509392505050565b828054600181600116156101000203166002900490600052602060002090601f016020900481019282601f106114ae57805160ff19168380011785556114dc565b828001600101855582156114dc579182015b828111156114db5782518255916020019190600101906114c0565b5b5090506114e991906114ed565b5090565b5b808211156115065760008160009055506001016114ee565b509056fe4552433230546f6b656e3a20494e53554646494349454e545f414c4c4f57414e4345a2646970667358221220c4a24a450e5633776e9e83f6369715fb3dfb8161f09b81b558e5c25ae9ec269b64736f6c634300060c0033",
  "immutableReferences": {},
  "source": "// Dependency file: contracts/BSC/libraries/TransferHelper.sol\r\n\r\n\r\n// pragma solidity >=0.6.0;\r\n\r\n// helper methods for interacting with ERC20 tokens and sending ETH that do not consistently return true/false\r\nlibrary TransferHelper {\r\n    function safeApprove(address token, address to, uint value) internal {\r\n        // bytes4(keccak256(bytes('approve(address,uint256)')));\r\n        (bool success, bytes memory data) = token.call(abi.encodeWithSelector(0x095ea7b3, to, value));\r\n        require(success && (data.length == 0 || abi.decode(data, (bool))), 'TransferHelper: APPROVE_FAILED');\r\n    }\r\n\r\n    function safeTransfer(address token, address to, uint value) internal {\r\n        // bytes4(keccak256(bytes('transfer(address,uint256)')));\r\n        (bool success, bytes memory data) = token.call(abi.encodeWithSelector(0xa9059cbb, to, value));\r\n        require(success && (data.length == 0 || abi.decode(data, (bool))), 'TransferHelper: TRANSFER_FAILED');\r\n    }\r\n\r\n    function safeTransferFrom(address token, address from, address to, uint value) internal {\r\n        // bytes4(keccak256(bytes('transferFrom(address,address,uint256)')));\r\n        (bool success, bytes memory data) = token.call(abi.encodeWithSelector(0x23b872dd, from, to, value));\r\n        require(success && (data.length == 0 || abi.decode(data, (bool))), 'TransferHelper: TRANSFER_FROM_FAILED');\r\n    }\r\n\r\n    function safeTransferETH(address to, uint value) internal {\r\n        (bool success,) = to.call{value:value}(new bytes(0));\r\n        require(success, 'TransferHelper: ETH_TRANSFER_FAILED');\r\n    }\r\n}\r\n\r\n\r\n// Dependency file: contracts/BSC/libraries/SafeMath.sol\r\n\r\n\r\n// pragma solidity ^0.6.0;\r\n\r\n/**\r\n * @dev Wrappers over Solidity's arithmetic operations with added overflow\r\n * checks.\r\n *\r\n * Arithmetic operations in Solidity wrap on overflow. This can easily result\r\n * in bugs, because programmers usually assume that an overflow raises an\r\n * error, which is the standard behavior in high level programming languages.\r\n * `SafeMath` restores this intuition by reverting the transaction when an\r\n * operation overflows.\r\n *\r\n * Using this library instead of the unchecked operations eliminates an entire\r\n * class of bugs, so it's recommended to use it always.\r\n */\r\nlibrary SafeMath {\r\n    /**\r\n     * @dev Returns the addition of two unsigned integers, reverting on\r\n     * overflow.\r\n     *\r\n     * Counterpart to Solidity's `+` operator.\r\n     *\r\n     * Requirements:\r\n     *\r\n     * - Addition cannot overflow.\r\n     */\r\n    function add(uint256 a, uint256 b) internal pure returns (uint256) {\r\n        uint256 c = a + b;\r\n        require(c >= a, \"SafeMath: addition overflow\");\r\n\r\n        return c;\r\n    }\r\n\r\n    /**\r\n     * @dev Returns the subtraction of two unsigned integers, reverting on\r\n     * overflow (when the result is negative).\r\n     *\r\n     * Counterpart to Solidity's `-` operator.\r\n     *\r\n     * Requirements:\r\n     *\r\n     * - Subtraction cannot overflow.\r\n     */\r\n    function sub(uint256 a, uint256 b) internal pure returns (uint256) {\r\n        return sub(a, b, \"SafeMath: subtraction overflow\");\r\n    }\r\n\r\n    /**\r\n     * @dev Returns the subtraction of two unsigned integers, reverting with custom message on\r\n     * overflow (when the result is negative).\r\n     *\r\n     * Counterpart to Solidity's `-` operator.\r\n     *\r\n     * Requirements:\r\n     *\r\n     * - Subtraction cannot overflow.\r\n     */\r\n    function sub(uint256 a, uint256 b, string memory errorMessage) internal pure returns (uint256) {\r\n        require(b <= a, errorMessage);\r\n        uint256 c = a - b;\r\n\r\n        return c;\r\n    }\r\n\r\n    /**\r\n     * @dev Returns the multiplication of two unsigned integers, reverting on\r\n     * overflow.\r\n     *\r\n     * Counterpart to Solidity's `*` operator.\r\n     *\r\n     * Requirements:\r\n     *\r\n     * - Multiplication cannot overflow.\r\n     */\r\n    function mul(uint256 a, uint256 b) internal pure returns (uint256) {\r\n        // Gas optimization: this is cheaper than requiring 'a' not being zero, but the\r\n        // benefit is lost if 'b' is also tested.\r\n        // See: https://github.com/OpenZeppelin/openzeppelin-contracts/pull/522\r\n        if (a == 0) {\r\n            return 0;\r\n        }\r\n\r\n        uint256 c = a * b;\r\n        require(c / a == b, \"SafeMath: multiplication overflow\");\r\n\r\n        return c;\r\n    }\r\n\r\n    /**\r\n     * @dev Returns the integer division of two unsigned integers. Reverts on\r\n     * division by zero. The result is rounded towards zero.\r\n     *\r\n     * Counterpart to Solidity's `/` operator. Note: this function uses a\r\n     * `revert` opcode (which leaves remaining gas untouched) while Solidity\r\n     * uses an invalid opcode to revert (consuming all remaining gas).\r\n     *\r\n     * Requirements:\r\n     *\r\n     * - The divisor cannot be zero.\r\n     */\r\n    function div(uint256 a, uint256 b) internal pure returns (uint256) {\r\n        return div(a, b, \"SafeMath: division by zero\");\r\n    }\r\n\r\n    /**\r\n     * @dev Returns the integer division of two unsigned integers. Reverts with custom message on\r\n     * division by zero. The result is rounded towards zero.\r\n     *\r\n     * Counterpart to Solidity's `/` operator. Note: this function uses a\r\n     * `revert` opcode (which leaves remaining gas untouched) while Solidity\r\n     * uses an invalid opcode to revert (consuming all remaining gas).\r\n     *\r\n     * Requirements:\r\n     *\r\n     * - The divisor cannot be zero.\r\n     */\r\n    function div(uint256 a, uint256 b, string memory errorMessage) internal pure returns (uint256) {\r\n        require(b > 0, errorMessage);\r\n        uint256 c = a / b;\r\n        // assert(a == b * c + a % b); // There is no case in which this doesn't hold\r\n\r\n        return c;\r\n    }\r\n\r\n    /**\r\n     * @dev Returns the remainder of dividing two unsigned integers. (unsigned integer modulo),\r\n     * Reverts when dividing by zero.\r\n     *\r\n     * Counterpart to Solidity's `%` operator. This function uses a `revert`\r\n     * opcode (which leaves remaining gas untouched) while Solidity uses an\r\n     * invalid opcode to revert (consuming all remaining gas).\r\n     *\r\n     * Requirements:\r\n     *\r\n     * - The divisor cannot be zero.\r\n     */\r\n    function mod(uint256 a, uint256 b) internal pure returns (uint256) {\r\n        return mod(a, b, \"SafeMath: modulo by zero\");\r\n    }\r\n\r\n    /**\r\n     * @dev Returns the remainder of dividing two unsigned integers. (unsigned integer modulo),\r\n     * Reverts with custom message when dividing by zero.\r\n     *\r\n     * Counterpart to Solidity's `%` operator. This function uses a `revert`\r\n     * opcode (which leaves remaining gas untouched) while Solidity uses an\r\n     * invalid opcode to revert (consuming all remaining gas).\r\n     *\r\n     * Requirements:\r\n     *\r\n     * - The divisor cannot be zero.\r\n     */\r\n    function mod(uint256 a, uint256 b, string memory errorMessage) internal pure returns (uint256) {\r\n        require(b != 0, errorMessage);\r\n        return a % b;\r\n    }\r\n}\r\n\r\n// Dependency file: contracts/BSC/TosDisERC20.sol\r\n\r\n// pragma solidity >=0.5.16;\r\n// import 'contracts/BSC/libraries/SafeMath.sol';\r\ncontract TosDisERC20 {\r\n    using SafeMath for uint;\r\n\r\n    bytes32 public constant TokenSignature = \"TOSDIS_TRANSIT\";\r\n\r\n    address public platform;\r\n    string public name;\r\n    string public symbol;\r\n    uint8 public decimals = 18;\r\n    uint public totalSupply;\r\n    mapping(address => uint) public balanceOf;\r\n    mapping(address => mapping(address => uint)) public allowance;\r\n\r\n    event Transfer(address indexed from, address indexed to, uint value);\r\n    event Approval(address indexed owner, address indexed spender, uint value);\r\n    event Mint(address indexed from, address indexed to, uint256 value);\r\n    event Burn(address indexed from, address indexed to, uint256 value);\r\n\r\n    constructor() public \r\n    {\r\n        platform = msg.sender;\r\n    }\r\n    \r\n    function initialize(string memory _name, string memory _symbol, uint8 _decimals) public {\r\n        require(msg.sender == platform, \"FORBIDDEN\");\r\n        name = _name;\r\n        symbol = _symbol;\r\n        decimals = _decimals;\r\n    }\r\n\r\n    function _transfer(address from, address to, uint value) private {\r\n        require(balanceOf[from] >= value, 'ERC20Token: INSUFFICIENT_BALANCE');\r\n        balanceOf[from] = balanceOf[from].sub(value);\r\n        balanceOf[to] = balanceOf[to].add(value);\r\n        if (to == address(0)) { // burn\r\n            totalSupply = totalSupply.sub(value);\r\n        }\r\n        emit Transfer(from, to, value);\r\n    }\r\n\r\n    function approve(address spender, uint value) external returns (bool) {\r\n        allowance[msg.sender][spender] = value;\r\n        emit Approval(msg.sender, spender, value);\r\n        return true;\r\n    }\r\n\r\n    function transfer(address to, uint value) external returns (bool) {\r\n        _transfer(msg.sender, to, value);\r\n        return true;\r\n    }\r\n\r\n    function transferFrom(address from, address to, uint value) external returns (bool) {\r\n        require(allowance[from][msg.sender] >= value, 'ERC20Token: INSUFFICIENT_ALLOWANCE');\r\n        allowance[from][msg.sender] = allowance[from][msg.sender].sub(value);\r\n        _transfer(from, to, value);\r\n        return true;\r\n    }\r\n    \r\n    function mint(address to, uint256 value) external {\r\n        require(msg.sender == platform, \"FORBIDDEN\");\r\n        totalSupply = totalSupply.add(value);\r\n        balanceOf[to] = balanceOf[to].add(value);\r\n        emit Mint(address(0), to, value);\r\n    }\r\n\r\n    function burn(address from, uint256 value) external {\r\n        require(msg.sender == platform, \"FORBIDDEN\");\r\n        balanceOf[from] = balanceOf[from].sub(value);\r\n        totalSupply = totalSupply.sub(value);\r\n        emit Burn(from, address(0), value);\r\n    }\r\n}\r\n\r\n// Root file: contracts/BSC/BSCTosDisTransit.sol\r\n\r\npragma solidity >=0.5.16;\r\n\r\n// import 'contracts/BSC/libraries/TransferHelper.sol';\r\n// import 'contracts/BSC/TosDisERC20.sol';\r\n\r\ninterface IWETH {\r\n    function deposit() external payable;\r\n    function withdraw(uint) external;\r\n}\r\n\r\ncontract BSCTosDisTransit {\r\n    using SafeMath for uint;\r\n    address public owner;\r\n    address public signWallet;\r\n    address public developWallet;\r\n    \r\n    uint public totalFee;\r\n    \r\n    uint public developFee;\r\n    \r\n    // key: bsc token, value: transit token\r\n    mapping (address => address) public pairFor; \r\n    // key: transit token, value: bsc token\r\n    mapping (address => address) public pairTo;\r\n    \r\n    // key: transit_id\r\n    mapping (bytes32 => bool) public executedMap;\r\n    \r\n    uint private unlocked = 1;\r\n\r\n    modifier lock() {\r\n        require(unlocked == 1, 'Locked');\r\n        unlocked = 0;\r\n        _;\r\n        unlocked = 1;\r\n    }\r\n\r\n    event Payback(address indexed from, address indexed token, uint amount);\r\n    event Withdraw(bytes32 transitId, address indexed to, address indexed token, uint amount);\r\n    event CollectFee(address indexed handler, uint amount);\r\n    event ChangedSigner(address wallet);\r\n    event ChangedDevelopWallet(address wallet);\r\n    event ChangedDevelopFee(uint amount);\r\n\r\n    constructor(address _signer, address _developer) public {\r\n        signWallet = _signer;\r\n        developWallet = _developer;\r\n        owner = msg.sender;\r\n    }\r\n    \r\n    function changeSigner(address _wallet) external {\r\n        require(msg.sender == owner, \"CHANGE_SIGNER_FORBIDDEN\");\r\n        signWallet = _wallet;\r\n        emit ChangedSigner(signWallet);\r\n    }\r\n    \r\n    function changeDevelopWallet(address _wallet) external {\r\n        require(msg.sender == owner, \"CHANGE_DEVELOP_WALLET_FORBIDDEN\");\r\n        developWallet = _wallet;\r\n        emit ChangedDevelopWallet(developWallet);\r\n    } \r\n    \r\n    function changeDevelopFee(uint _amount) external {\r\n        require(msg.sender == owner, \"CHANGE_DEVELOP_FEE_FORBIDDEN\");\r\n        developFee = _amount;\r\n        emit ChangedDevelopFee(developFee);\r\n    }\r\n    \r\n    function collectFee() external lock{\r\n        require(msg.sender == owner, \"FORBIDDEN\");\r\n        require(developWallet != address(0), \"SETUP_DEVELOP_WALLET\");\r\n        require(totalFee > 0, \"NO_FEE\");\r\n        TransferHelper.safeTransferETH(developWallet, totalFee);\r\n        totalFee = 0;\r\n    }\r\n    \r\n    function paybackTransit(address _token, uint _amount) external payable {\r\n        require(pairFor[_token] != address(0), \"UNSUPPORT_TOKEN\");\r\n        require(_amount > 0 && TosDisERC20(_token).balanceOf(msg.sender) >= _amount, \"INVALID_AMOUNT\");\r\n        require(msg.value == developFee, \"FEE_VALUE_INCORRECT\");\r\n        totalFee = totalFee.add(developFee);\r\n        TosDisERC20(_token).burn(msg.sender, _amount);\r\n        emit Payback(msg.sender, pairFor[_token], _amount);\r\n    }\r\n    \r\n    function withdrawTransitToken(\r\n        bytes calldata _signature,\r\n        bytes32 _transitId,\r\n        uint _amount,\r\n        address _token,\r\n        string calldata _name,\r\n        string calldata _symbol,\r\n        uint8 _decimals\r\n    ) external payable {\r\n        require(!executedMap[_transitId], \"ALREADY_EXECUTED\");\r\n        bytes32 message = keccak256(abi.encodePacked(_transitId, msg.sender, _amount, _token, _name, _symbol, _decimals));\r\n        require(_verify(message, _signature), \"INVALID_SIGNATURE\");\r\n\r\n        require(_amount > 0, \"NOTHING_TO_WITHDRAW\");\r\n        require(msg.value == developFee, \"INSUFFICIENT_VALUE\");\r\n        \r\n        if(pairTo[_token] == address(0)) {\r\n            _createToken(_token, _name, _symbol, _decimals);\r\n        }\r\n        \r\n        TosDisERC20(pairTo[_token]).mint(msg.sender, _amount);\r\n        totalFee = totalFee.add(developFee);\r\n        executedMap[_transitId] = true;\r\n        \r\n        emit Withdraw(_transitId, msg.sender, _token, _amount);\r\n    }\r\n    \r\n    function _verify(bytes32 _message, bytes memory _signature) internal view returns (bool) {\r\n        bytes32 hash = _toEthBytes32SignedMessageHash(_message);\r\n        address[] memory signList = _recoverAddresses(hash, _signature);\r\n        return signList[0] == signWallet;\r\n    }\r\n    \r\n    function _toEthBytes32SignedMessageHash (bytes32 _msg) pure internal returns (bytes32 signHash)\r\n    {\r\n        signHash = keccak256(abi.encodePacked(\"\\x19Ethereum Signed Message:\\n32\", _msg));\r\n    }\r\n    \r\n    function _recoverAddresses(bytes32 _hash, bytes memory _signatures) \r\n             pure internal returns (address[] memory addresses)\r\n    {\r\n        uint8 v;\r\n        bytes32 r;\r\n        bytes32 s;\r\n        uint count = _countSignatures(_signatures);\r\n        addresses = new address[](count);\r\n        for (uint i = 0; i < count; i++) {\r\n            (v, r, s) = _parseSignature(_signatures, i);\r\n            addresses[i] = ecrecover(_hash, v, r, s);\r\n        }\r\n    }\r\n    \r\n    function _parseSignature(bytes memory _signatures, uint _pos) \r\n             pure internal returns (uint8 v, bytes32 r, bytes32 s)\r\n    {\r\n        uint offset = _pos * 65;\r\n        assembly {\r\n            r := mload(add(_signatures, add(32, offset)))\r\n            s := mload(add(_signatures, add(64, offset)))\r\n            v := and(mload(add(_signatures, add(65, offset))), 0xff)\r\n        }\r\n\r\n        if (v < 27) v += 27;\r\n\r\n        require(v == 27 || v == 28);\r\n    }\r\n    \r\n    function _countSignatures(bytes memory _signatures) pure internal returns (uint)\r\n    {\r\n        return _signatures.length % 65 == 0 ? _signatures.length / 65 : 0;\r\n    }\r\n    \r\n    function _createToken (address _transitToken, string memory _name, string memory _symbol, uint8 _decimals) \r\n             internal returns(address bscTosDisToken){\r\n        bytes memory bytecode = type(TosDisERC20).creationCode;\r\n        bytes32 salt = keccak256(abi.encodePacked(_transitToken, _name, _symbol, _decimals));\r\n            assembly {\r\n                bscTosDisToken := create2(0, add(bytecode, 32), mload(bytecode), salt)\r\n            }\r\n        TosDisERC20(bscTosDisToken).initialize(_name, _symbol, _decimals);\r\n        pairFor[bscTosDisToken] = _transitToken;\r\n        pairTo[_transitToken] = bscTosDisToken;\r\n    }\r\n}",
  "sourcePath": "D:/Projects/TosDisFinance/StakeMaster/contracts/BSCTosDisTransit.sol",
  "compiler": {
    "name": "solc",
    "version": "0.6.12+commit.27d51765.Emscripten.clang"
  },
  "schemaVersion": "3.4.0",
  "updatedAt": "2021-06-02T11:07:10.399Z",
  "devdoc": {
    "kind": "dev",
    "methods": {},
    "version": 1
  },
  "userdoc": {
    "kind": "user",
    "methods": {},
    "version": 1
  }
}